:100000000C94E1020C94FE020C94FE020C94FE028D
:100010000C94FE020C94FE020C94FE020C94FE0260
:100020000C94FE020C94FE020C94FE020C94AD3B68
:100030000C94FE020C94FE020C94FE020C94FE0240
:100040000C94FE020C94D2380C94FE020C94FE0226
:100050000C94FE020C94373E0C94FE020C94FE02AB
:100060000C94FE020C94623F0C94933F0C94FE029D
:100070000C94FE020C94FE020C94FE020C94FE0200
:100080000C94903D0C94FE020C94FE020C94FE0223
:100090000C94FE020C94FE020C94FE020C94FE02E0
:1000A0000C94FE020C94FE020C941E3C0C94FE0276
:1000B0000C94FE020C94FE020C94FE020C94FE02C0
:1000C0000C94FE020C94FE020C94FE020C94FE02B0
:1000D0000C94FE020C94FE020C94B6400C94E74083
:1000E0000C94FE0244045304C707C70750043004AD
:1000F000C707EB03AB04BE07BE07BE07BE07BE07BC
:10010000BE07DE044C0743069807C7071C07130603
:100110006D0697066805F4058F07C304C707C70770
:100120009C0414053E05C707C7076E078107BE0775
:10013000BE07BE07BE07BE07BE07BE07BE07BE0797
:10014000BE07C707C707BE07BE07BE07BE07BE0775
:10015000BE07BE07BE07BE07BE07BE07BE07BE0777
:10016000BE07D503CD03DB03BE07F10318046C04FF
:100170000004E404A606BE07BE07BE07BE07BE070E
:10018000BE075207C706F3042404BE07BE07A00338
:10019000E103BE07BE079503BE07BE07BE07BE0745
:1001A000BE07BB03BE07AF03BE07BE07BE07BE0741
:1001B000BE07BE07BE07BE07BE07BE07BE07BE0717
:1001C000BE0784040C04256400494F20424F41526D
:1001D0004420444941474E4F5354494353004D61D5
:1001E000676E6574696320436172640044464D2004
:1001F00044656275670054616E6B20476175676581
:10020000730052656C6179732C2050756C73657244
:10021000732C2048616E646C657300436172647373
:1002200020726561643A202564202000282564201E
:1002300063686172616374657273207265616429B9
:1002400000446174613A20004E4F206B6579207242
:10025000657475726E732E00285465737420646F14
:100260006573206E6F7420636865636B20706172C4
:1002700069747929004D61676E6574696320436113
:10028000726420546573740050453A20256C7500E3
:10029000424F3A20256C750046453A20256C750082
:1002A000256C752062797465730044464D20536552
:1002B0007269616C20546573740025640047617530
:1002C000676520256400256C7500312D383A52652C
:1002D0006C6179732020303A526573657420204E2A
:1002E0004F3A45786974000000002E0006000600B1
:1002F000143E143E1400282C761400241008240008
:10030000142A12280006001C2200221C000A040ADB
:1003100000081C08004020000808080020002010E9
:10032000080402001C22221C00023E00322A2A2459
:1003300000222A2A140018143E10002E2A2A1A001D
:100340001C2A2A100002320A0600142A2A14000469
:100350002A2A1C001400340008142200141414006B
:1003600022140800022A0A04001C223A2A1C3C1209
:10037000123C003E2A2A14001C2222003E22221C8B
:10038000003E2A2A003E0A0A001C222A3A003E08A1
:10039000083E00223E22001020221E003E081422A9
:1003A000003E2020003E0408043E003E04083E00BB
:1003B0001C22221C003E12120C001C22225C003E59
:1003C00012122C00242A2A1200023E02001E2020B3
:1003D0001E001E201806001E201C201E00360808C5
:1003E00036000628281E00322A26003E220002047B
:1003F00008102000223E00040204002020202000DB
:100400000204001824243C003E242418001824244C
:10041000001824243E0018342C0800083C0A001858
:10042000A4A47C003E040438003A00807A003E1008
:100430001824003E003C043C0438003C040438000E
:100440001824241800FC24241800182424FC003C40
:10045000080400282C341400041E24001C20203C16
:10046000001C20100C001C201C201C002418240040
:100470001CA0A07C0024342C2400083622003E005E
:1004800022360800040204020000000003000500F8
:1004900009000F00140019001E0020002300260090
:1004A0002A002E003100350037003D004200450093
:1004B0004A004F00540059005E00630068006D0060
:1004C0006F007100750079007D00820087008C004C
:1004D000910095009A009E00A200A700AC00B00019
:1004E000B500BA00BE00C400C900CE00D300D800D9
:1004F000DD00E200E600EB00F000F600FB0000018A
:10050000040107010D011001140119011C01210151
:1005100026012A012F01340138013D014201440125
:1005200047014C014E01540159015E01630168010C
:100530006C01710175017A017F01850189018E01CC
:100540009301970199019D01A2010302040605058B
:10055000050203030404030402060503050505055B
:100560000505050502020404040505050504050446
:10057000040505040505040605050505050504052E
:100580000506050504030603040503050504050522
:100590000405050203050206050505050405040515
:1005A0000506040505040204050153797374656D9D
:1005B00020697320626F6F74696E672075702E2ECC
:1005C0002E0011241FBECFEFD1E2DEBFCDBF12E05F
:1005D000A0E0B2E0E2E2F9E802C005900D92AC338F
:1005E000B107D9F72EE0ACE3B2E001C01D92A93605
:1005F000B207E1F70E94FF3C0C948F440C9400007A
:100600000C949640CF93C92F0E9496408C2FCF9187
:100610000C949640CF93DF93EC010E946240892BAB
:1006200029F41092E5061092E40612C00E9473406D
:10063000888381E015C00E946240892BB9F78091C0
:10064000E4069091E50601969093E5068093E40612
:100650008091E4069091E506803D974064F380E048
:10066000DF91CF910895CF93DF9300D0CDB7DEB760
:10067000CE0101960E940A03811102C080E007C0EA
:10068000CE0102960E940A038823C1F389810F904C
:100690000F90DF91CF9108950F931F93CF93DF9326
:1006A0001F92CDB7DEB702E516E0CE0101960E949B
:1006B0000A03882339F08981F80181938F01811120
:1006C000F4CF81E00F90DF91CF911F910F910895AA
:1006D0000F9300E020E048E060E076E980E090E001
:1006E0000E94CE3F0E94C73790933F0280933E0204
:1006F0009C5F90933D0280933C020F9108950F936D
:100700001F93CF93DF930E946240892B09F43FC46B
:100710000E94734090E0FC013197E137F10508F049
:100720002DC4EE58FF4F0C94584182ED96E00E9484
:100730000A03882309F422C48091D206809509C057
:1007400082ED96E00E940A03882309F417C40E94F0
:10075000FD3CDF91CF911F910F910C94964082ED5B
:1007600096E00E940A03882309F408C48091D20607
:100770000E948B092AC082ED96E00E940A0388231A
:1007800009F4FCC38091D206853509F000C4DF91DD
:10079000CF911F910F910C94ED0980E093E0DF91D0
:1007A000CF911F910F910C94A53C0E94483C882347
:1007B00081F289E5CECFDF91CF911F910F910C94FB
:1007C000D33C8091E2069091E306DF91CF911F9197
:1007D0000F910C940203DF91CF911F910F910C9414
:1007E000253E82ED96E00E940A03882309F4C6C3E1
:1007F0008091D206DF91CF911F910F910C949008B8
:1008000082ED96E00E940A03882309F4B7C3809121
:10081000D2060E94843D9DCF82ED96E00E940A039D
:10082000882309F4ABC38091D2060E94680891CF57
:1008300082ED96E00E940A03882309F49FC3809109
:10084000D2060E945E3D85CF82ED96E00E940A03AB
:10085000882309F493C38091D2060E94513A79CF3C
:100860000E943303882309F489C30E943303882339
:1008700009F484C360E070E080E090E0DF91CF9104
:100880001F910F910C94C13D82ED96E00E940A03E6
:10089000882309F473C38091D2060E945F3A59CF2E
:1008A0000E94CC3A56CF82ED96E00E940A0388233C
:1008B00009F464C38091D2060E949808172FD82F9C
:1008C000C92F862F0E949640812F0E9496408D2F1F
:1008D0000E9496408C2F3DCF82ED96E00E940A0345
:1008E000882309F44BC383ED96E00E940A03882312
:1008F00009F444C36091D3068091D206DF91CF9171
:100900001F910F910C94693D82ED96E00E940A03BD
:10091000882309F433C385ED96E00E940A038823F7
:1009200009F42CC36091D5068091D206DF91CF9156
:100930001F910F910C94520884ED96E00E940A03D7
:10094000882309F41BC385ED96E00E940A038823DF
:1009500009F414C31CC382ED96E00E940A038823A5
:1009600009F40CC383ED96E00E940A03882309F47E
:1009700005C36091D3068091D206DF91CF911F917C
:100980000F910C94453D85ED96E00E940A03882363
:1009900009F4F4C20E944C03882309F4EFC282E5F3
:1009A00096E00E94CA378093D906869542E556E0C4
:1009B0006091D50690E4981B892F2FC1DF91CF91CC
:1009C0001F910F910C94B71285ED96E00E940A03D7
:1009D000882309F4D3C28091D506DF91CF911F916E
:1009E0000F910C94341285ED96E00E940A0388233F
:1009F00009F4C4C284ED96E00E940A03882309F436
:100A0000BDC286ED96E00E940A03882309F4B6C2AF
:100A10004091D6066091D4068091D506DF91CF91A2
:100A20001F910F910C94461284ED96E00E940A03E8
:100A3000882309F4A3C286ED96E00E940A03882366
:100A400009F49CC285ED96E00E940A03882309F40C
:100A500095C288ED96E00E940A03882309F48EC2AD
:100A60002091D8064091D5066091D6068091D40693
:100A7000DF91CF911F910F910C94E90F84ED96E0D7
:100A80000E940A03882309F479C285ED96E00E944A
:100A90000A03882309F472C287ED96E00E940A03D4
:100AA000882309F46BC288ED96E00E940A0388232C
:100AB00009F464C22091D8064091D7066091D5060A
:100AC0008091D406DF91CF911F910F910C9431103A
:100AD00084ED96E00E940A03882309F44FC285ED55
:100AE00096E00E940A03882309F448C289ED96E043
:100AF0000E940A03882309F441C28AED96E00E940D
:100B00000A03882309F43AC284E492E090934102F4
:100B1000809340028091D9069091DA06899FC001A6
:100B200011248C5B9D4F90934302809342020E945C
:100B30006F3E60934E0670934F06809350069093DD
:100B400051062091400230914102809142029091E1
:100B500043022817390741F10E946F3E00914E066B
:100B600010914F062091500630915106DC01CB01C7
:100B7000801B910BA20BB30B8D3D9540A105B105D8
:100B800008F0FCC10E946240892BD9F2C09140025A
:100B9000D0914102CE010196909341028093400290
:100BA0000E9473408883CDCF8091D90690E09093C6
:100BB0004906809348068091DA0690E090934B06B0
:100BC00080934A0684E492E090934D0680934C060D
:100BD00048E456E06091D5068091D406DF91CF912C
:100BE0001F910F910C94661284ED96E00E940A0307
:100BF000882309F4C3C185ED96E00E940A03882387
:100C000009F4BCC10E944C03882309F4B7C142E532
:100C100056E06091D5068091D406DF91CF911F9167
:100C20000F910C94E93784ED96E00E940A03882323
:100C300009F4A4C185ED96E00E940A03882309F413
:100C40009DC186ED96E00E940A03882309F496C1AF
:100C500087ED96E00E940A03882309F48FC188ED8E
:100C600096E00E940A03882309F488C10091D806FF
:100C70002091D7064091D6066091D5068091D40682
:100C80000E94AB1184C184ED96E00E940A03882380
:100C900009F474C186ED96E00E940A03882309F4E2
:100CA0006DC185ED96E00E940A03882309F466C1B0
:100CB00088ED96E00E940A03882309F45FC1209121
:100CC000D8064091D5066091D6068091D406DF9172
:100CD000CF911F910F910C940D1084ED96E00E941E
:100CE0000A03882309F44AC185ED96E00E940A03AD
:100CF000882309F443C186ED96E00E940A03882305
:100D000009F43CC187ED96E00E940A03882309F4A8
:100D100035C12091D7064091D6066091D5068091C5
:100D2000D406DF91CF911F910F910C94FE1185EDA8
:100D300096E00E940A03882309F420C18091D50619
:100D4000DF91CF911F910F910C94201285ED96E0C9
:100D50000E940A03882309F411C184ED96E00E94E1
:100D60000A03882309F40AC186ED96E00E940A036B
:100D7000882309F403C14091D6066091D40680917E
:100D8000D506DF91CF911F910F910C9455120E94BF
:100D90006F3E60934E0670934F068093500690937B
:100DA00051060E94C73790933F0280933E022091E4
:100DB0003E0230913F0280913C0290913D02281703
:100DC000390709F4E4C00E946F3E00914E0610916D
:100DD0004F062091500630915106DC01CB01801B5B
:100DE000910BA20BB30B8D3D9540A105B10590F081
:100DF00080913C0290913D02E0913E02F0913F02D1
:100E00008E179F0711F01192FBCF90933F028093B2
:100E10003E02BDC00E946240892B49F2C0913E0251
:100E2000D0913F02CE01019690933F0280933E0203
:100E30000E9473408883BBCF84ED96E00E940A0332
:100E4000882309F49BC085ED96E00E940A0388235D
:100E500009F494C086ED96E00E940A03882309F401
:100E60008DC087ED96E00E940A03882309F486C0AE
:100E700088ED96E00E940A03882309F47FC0009160
:100E8000D8062091D7064091D6066091D50680916C
:100E9000D4060E9483107BC0DF91CF911F910F91E8
:100EA0000C94C2120E94C73790933F0280933E0277
:100EB000E0913E02F0913F0280913C0290913D0210
:100EC000E817F90709F463C0CF01019690933F0238
:100ED00080933E0280810E949640EACF82ED96E0A8
:100EE0000E940A03882309F449C08091D2062FE0AA
:100EF000829FC001112464E670E00E942241862F87
:100F000008C082ED96E00E940A038823B9F180911F
:100F1000D206DF91CF911F910F910C94900F0E94F8
:100F20004C03882359F182E596E00E94CA374DCCE4
:100F300084ED96E00E940A03882301F185ED96E096
:100F40000E940A038823D1F087ED96E00E940A03ED
:100F50008823A1F088ED96E00E940A03882371F0AF
:100F60002091D8064091D7066091D5068091D4068D
:100F7000DF91CF911F910F910C945A108091E2064E
:100F80009091E30601969093E3068093E206DF9149
:100F9000CF911F910F9108951092E7061092E606E7
:100FA0002091C80027FD0FC02091E6063091E7068A
:100FB000243F41E0340769F02F5F3F4F3093E7064D
:100FC0002093E606EDCF2091CE00FC01208381E046
:100FD000089580E00895EF92FF920F931F93CF93AF
:100FE000DF93CDB7DEB72C970FB6F894DEBF0FBEF8
:100FF000CDBF8091C80085FFFCCF80E48093CE00F8
:1010000087E893E10197F1F700C000008BE0E0E092
:10101000F2E0DE01119601900D928A95E1F71C86AF
:10102000F12C80E5E82E0F2D10E0E1E0F0E0EC0F70
:10103000FD1FE00FF11F8081882339F18091C800E6
:1010400085FFFCCFE092CE008091C80085FFFCCFE9
:10105000E1E0F0E0EC0FFD1F0E0F1F1FF801808193
:101060008093CE00CE010C960E94CC07882369F0B5
:101070002091CE002C8730E0F80180818F5F90E0D6
:101080002817390781F6F394CECF2C960FB6F89433
:10109000DEBF0FBECDBFDF91CF911F910F91FF90AB
:1010A000EF9008959091C80095FFFCCF982F906322
:1010B0009093CE0095E89A95F1F700009091C800C2
:1010C00095FFFCCF6093CE0090E040960C94464490
:1010D00090E040960C943E44CF93F89482E0809345
:1010E000C80088E18093C90086E08093CA0089E146
:1010F00090E09093CD008093CC0078940E94EB0711
:10110000C0E08C2F0E9468088F3F09F480E2682FAE
:101110008C2F0E945208CF5FC83099F7CF91089565
:101120009091C80095FFFCCF80628093CE00089517
:10113000CF93DF9300D000D0CDB7DEB79091C80039
:1011400095FFFCCF80618093CE00CE0101960E9476
:10115000CC07811104C060E070E0CB0116C0CE0165
:1011600002960E94CC078823B1F3CE0103960E9419
:10117000CC07882381F3CE0104960E94CC078823F4
:1011800051F369817A818B819C810F900F900F9030
:101190000F90DF91CF9108950F931F93CF93DF931B
:1011A0000FEE1EEB2DEA3EED0093050710930607A8
:1011B00020930707309308078093090780930A0755
:1011C00070930C0760930B0770930E0760930D07E5
:1011D000C5E0D7E089910E94423F87E0CF30D80731
:1011E000C9F7DF91CF911F910F910895CF92DF92B0
:1011F000EF92FF92CF93DF930E946F3E6B017C01D1
:10120000D1E00E946F3EDC01CB018C199D09AE0933
:10121000BF09883C9105A105B10508F072C0809115
:101220000007882319F08130C9F165C08091FE065E
:10123000811169C00E940E3F892B09F45CC0809126
:101240000207809301078091030780930207809132
:101250000407809303070E941F3F80930407809137
:10126000010790910207A0910307B09104078F3EF8
:101270002EEB92072DEAA2072EEDB207E1F580933F
:101280000F0790931007A0931107B09312071092C5
:10129000FF06D09300072FC0D093FE060E940E3F9A
:1012A000892B49F1C091FF0681E08C0F8093FF06E6
:1012B0000E941F3FEC2FF0E0ED5EF84F808380919D
:1012C000FF06843259F710920007E3E1F7E080E06F
:1012D0009191890F97E0E633F907D1F7909136079E
:1012E0009817D1F28091FC069091FD06019690939B
:1012F000FD068093FC068091FE06882309F481CFC9
:1013000002C080E001C081E0DF91CF91FF90EF90BB
:10131000DF90CF9008950F931F93CF93C82F8091A4
:10132000F8069091F906A091FA06B091FB06892B78
:101330008A2B8B2B81F460E070E08BE70E94CC0855
:101340000E94F608882359F1EFE0F7E0A8EEB6E036
:101350002FE137E016C00E946F3E0091F806109111
:10136000F9062091FA063091FB06DC01CB01801BC7
:10137000910BA20BB30B853F9140A105B105D8F6A7
:1013800018C0808590E0982F88274781842B8D9303
:101390009D9332962E173F07A1F71092FE060E94EA
:1013A0006F3E6093F8067093F9068093FA06909367
:1013B000FB06EC2FF0E0EE0FFF1FE851F94F8081A4
:1013C0009181CF911F910F91089560E070E08CEAB8
:1013D0000C94CC088BEF0C94423FCF9360E070E00C
:1013E0008CEA0E94CC08C0E00E946240892BC1F0C8
:1013F0000E9473408B3F910599F48BEFCF910C9431
:10140000423F0E941F3F0E949640CF5FC03241F48E
:1014100043E46CE385E00E9455120E94C212C0E0D2
:101420000E940E3F892B69F7DFCF0F9300E020E089
:1014300048E060E076E980E090E00E947A3E0F911B
:101440000895CF92DF92EF92FF920F931F93CF9365
:10145000DF930E94B71249EC51E060E080E00E9407
:101460003A3810E096ECE92E91E0F92E24E0D22EE5
:101470003CE0C32E80913707181778F5C12FD0E0D4
:10148000CE010296082F000F000F000F01979F93C7
:101490008F93FF92EF920F93DF920E949A3849E068
:1014A00063E082E0810F0E945512CC0FDD1FCC0F4C
:1014B000DD1FCE5BD14F8B818F938A818F930F93EA
:1014C000CF920E949A381F5F8DB79EB70A960FB6CB
:1014D000F8949EBF0FBE8DBFCDCFDF91CF911F91EE
:1014E0000F91FF90EF90DF90CF900C94C2128F92EB
:1014F0009F92AF92BF92CF92DF92EF92FF920F93A3
:101500001F93CF93DF930E94B712812C912C54012B
:101510008DEBE82E82E0F82E9AEBC92E92E0D92EC0
:10152000D8E20E94CC3A8E34C9F10E946F3EDC01B1
:10153000CB0188199909AA09BB0985369105A1052E
:10154000B10578F30E94B712C0E000E010E01F93ED
:101550000F93FF92EF92CF931F920E949A38802FA1
:101560000E948B099F938F93DF92CF92CF93DF934B
:101570000E949A380F5F1F4FC85F8DB79EB70C96B9
:101580000FB6F8949EBF0FBE8DBFC03401F70E9406
:10159000C2120E946F3E4B015C01C3CFDF91CF911D
:1015A0001F910F91FF90EF90DF90CF90BF90AF9081
:1015B0009F908F9008952F923F924F925F926F92DB
:1015C0007F928F929F92AF92BF92CF92DF92EF92D3
:1015D000FF920F931F93CF93DF93CDB7DEB728977A
:1015E0000FB6F894DEBF0FBECDBF0E94B7124AEA15
:1015F00052E060E080E00E943A380E94C2120E94ED
:10160000E50919821A821B821C82412C512C32015D
:10161000C12CD12C7601812C912C54011D821E826B
:101620001F82188680EA282E82E0382E08E118E210
:101630000E940E3F892B39F00E941F3F2FEF821A24
:10164000920AA20AB20A8091C00084FF05C03FEF4F
:10165000C31AD30AE30AF30A83FF0CC029813A8133
:101660004B815C812F5F3F4F4F4F5F4F29833A8300
:101670004B835C8382FF05C03FEF431A530A630A22
:10168000730A0E94CC3A8E3409F46FC0893589F40C
:1016900019821A821B821C82412C512C3201C12CCE
:1016A000D12C7601812C912C54011D821E821F8227
:1016B00018860E946F3EDC01CB012D813E814F8157
:1016C0005885821B930BA40BB50B85369105A1059C
:1016D000B10508F4ADCF83E00E94341284E00E948B
:1016E0003412BF92AF929F928F923F922F920F939C
:1016F0001F920E949A38FF92EF92DF92CF9248E9B0
:1017000052E05F934F9390E29F931F920E949A380A
:101710002C812F933B813F934A814F9359815F9353
:1017200080E992E09F938F9330E23F931F930E9452
:101730009A387F926F925F924F9248E852E05F939F
:101740004F9390E29F9320E52F930E949A380FB613
:10175000F894DEBF0FBECDBF0E94C2120E946F3E42
:101760006D837E838F83988763CF28960FB6F89416
:10177000DEBF0FBECDBFDF91CF911F910F91FF90C4
:10178000EF90DF90CF90BF90AF909F908F907F9021
:101790006F905F904F903F902F900C94EA092F929A
:1017A0003F924F925F926F927F928F929F92AF92F1
:1017B000BF92CF92DF92EF92FF920F931F93CF933E
:1017C000DF93CDB7DEB7C254D1090FB6F894DEBFB0
:1017D0000FBECDBF0E94B71245E752E060E080E047
:1017E0000E943A3848E552E068E080E00E943A38CA
:1017F00048E452E068E380E00E943A380E94C21256
:1018000000E020E048E060E072EC81E090E00E94BF
:101810007A3EE12CF12CCE0101966C0191E4492E27
:1018200092E0592E2CE2622E22E0722E3BE1832EB2
:1018300032E0932E40E3242E0E94483C882309F492
:1018400080C069E170E088E998E00E94C13DC6016E
:101850000E944F3C83E50E94423F82E49FE30E9446
:10186000A53C85E40E94423F83E00E94341284E05C
:101870000E94341285E00E94341286E00E943412E5
:101880005F924F9298E19F931F920E949A388C0129
:1018900022961FAE229723961FAE23970F900F908C
:1018A0000F900F90312C88E1A82EB12CF6010190F9
:1018B0000020E9F73197CF018C199D09232D30E0E5
:1018C0002817390708F5F601E20FF31F80812296E9
:1018D0008FAF2297CE018F5B9F4F0E94CA37800F38
:1018E000911F8038910528F088E0A80EB11C00E017
:1018F00010E0AE014F5B5F4F6A2D802F0E94E937E9
:10190000080F191F3394D2CF9F938F937F926F92BA
:1019100098E29F931F920E949A38FF92EF929F92B3
:101920008F922F921F920E949A380E94C2120E9498
:10193000D33C8FEFE81AF80A0FB6F894DEBF0FBE5B
:10194000CDBF0E94CC3A8E3431F0803309F074CF91
:101950000E94D33C71CFCE5BDF4F0FB6F894DEBF51
:101960000FBECDBFDF91CF911F910F91FF90EF90F0
:10197000DF90CF90BF90AF909F908F907F906F90AF
:101980005F904F903F902F9008956F927F928F922B
:101990009F92AF92BF92CF92DF92EF92FF920F93FE
:1019A0001F93CF93DF9300D01F92CDB7DEB719827C
:1019B0001A821B8210E0812F0E9490081F5F18304E
:1019C000D1F70E94B7124AEC52E068E380E00E942F
:1019D0003A3887E00E942012C12CD12C760108E40D
:1019E00032E5932E40E5842E56ECA52E52E0B52E1E
:1019F0000E94CC3A1FEC180F183050F4812F0E942F
:101A00005E3D61E0811160E0812F0E94453D10C084
:101A1000803359F410E0812F0E9490081F5F183026
:101A2000D1F7C12CD12C760103C08E3409F499C0B2
:101A30000E946F3EDC01CB018C199D09AE09BF09E4
:101A4000C397A105B105A0F285E00E94341286E09B
:101A50000E94341209832BE1E22E22E0F22E67016C
:101A600010E081E3810F8A83F60171906F01AE016E
:101A70004F5F5F4F68E282E0870D0E94E937812F58
:101A80000E945F3A882339F0F60140814150672D6A
:101A900085E00E9455121F5F183019F7998210E0F7
:101AA00081E3810F8A83F701D1907F01AE014F5FFF
:101AB0005F4F60E382E08D0D0E94E937812F0E9425
:101AC0005E3D882339F0F701408141506D2D86E05D
:101AD0000E9455121F5F183019F780E00E943412DF
:101AE00081E00E94341282E00E94341283E00E945E
:101AF0003412898283E1C82E82E0D82E9BE0E92E41
:101B000092E0F92E10E081E3810F8A83F601619063
:101B10006F01F70171907F01AE014F5F5F4F662D3E
:101B2000872D0E94E937812F0E9498089F938F93F9
:101B30007F936F93BF92AF926F928CE0870D8F93DC
:101B40000E949A381F5F0FB6F894DEBF0FBECDBF5C
:101B50001830C9F60E94C2120E946F3E6B017C01D0
:101B600047CF10E060E0812F0E94453D1F5F183095
:101B7000C9F70F900F900F90DF91CF911F910F91A8
:101B8000FF90EF90DF90CF90BF90AF909F908F909D
:101B90007F906F900895CF92DF92EF92FF92CF9354
:101BA0000E946F3E6B017C01C0E00E946F3EDC0131
:101BB000CB018C199D09AE09BF09843F9140A10555
:101BC000B10508F049C00E94CC3AC82F8E3469F79D
:101BD0008091370724E0829FF0011124EE5BF14FE2
:101BE00025EC3CE03183208322E032E03383228302
:101BF000E1E0E80F94E0E99FF0011124EE5BF14F82
:101C000027E73AE03183208326EF31E033832283D4
:101C1000E2E0E80F24E0E29FF0011124EE5BF14FD7
:101C20002BED3AE0318320832CEE31E033832283A5
:101C3000E3E0E80F94E0E99FF0011124EE5BF14F3F
:101C40002FEC3BE0318320832EED31E03383228380
:101C50008C5F8093370722C0C111BACFCF91FF901C
:101C6000EF90DF90CF9008950E94CC3A8133E0F35B
:101C700090E02091370730E0205D3F4F281739076B
:101C80009CF3880F991F880F991FFC01E258F24FAF
:101C90000190F081E02D80E090E009950E94210AFA
:101CA000E3CF0F931F93CF93DF936052462F50E003
:101CB0008A01065B1A4F012E000C220B330B2BBF3F
:101CC000F8019791440F551F46575B4F052E000CA6
:101CD000660B770B6BBFFA0147915691292F30E0C5
:101CE000280F311D203831051CF5A091650E20E824
:101CF000A29FD001112460E070E0282F260F691701
:101D0000A8F4ED01C20FD11DC85CD84F8B01040FA0
:101D1000151F09511D4F012E000C220B330B2BBF39
:101D2000F801079108836F5F7F4FE7CF892F01C0CC
:101D300080E0DF91CF911F910F9108957F928F9254
:101D40009F92AF92BF92CF92DF92EF92FF920F934A
:101D50001F93CF93DF936052262F30E0A901465B9B
:101D60005A4F052E000C660B770B6BBFFA0197914B
:101D7000220F331F26573B4FA901330F660B770BFA
:101D80006BBFFA0127913691492F50E0480F511D42
:101D9000403851050CF098C04091650EC091660E18
:101DA000483058F140E8C49FE00111240091680ECA
:101DB000A0E0B0E0482F4A0FA91708F083C0BE0189
:101DC000640F711DFB01E85CF84F7F01A9014A0F08
:101DD0005B1F49515D4F052E000C660B770B6BBFE7
:101DE000FA01479150E0002E02C0559547950A949C
:101DF000E2F7F70140831196DDCF50E00091670EC6
:101E00005695542F442757954795C83048F4F0E825
:101E1000CF9FE0011124C090680EE12CF12C21C06D
:101E200060E070E0E82FE60F691708F04BC0DA01B8
:101E3000AE0FB11DA85CB84FFB01E20FF31FE951D3
:101E4000FD4F6F01FF0FEE08FF08EBBEF601C790D4
:101E5000002E01C0CC0C0A94EAF7CC926F5F7F4F42
:101E6000E1CF682F6E0DE91668F570E0DA01A60F74
:101E7000B71FA85CB84FF701E20FF31FE951FD4F00
:101E80004F01FF0FAA08BB08ABBEF4017790E72D06
:101E9000002E01C0EE0F0A94EAF7EC936C0F7D1F41
:101EA000DB01A85CB84FABBEF4018790912C0C2CE1
:101EB00002C0959487940A94E2F78C926FEFE61A29
:101EC000F60ACFCF892F01C080E0DF91CF911F911B
:101ED0000F91FF90EF90DF90CF90BF90AF909F90C9
:101EE0008F907F9008958091640E982F9695969587
:101EF00096959093650E282F30E0295F3F4F43E081
:101F0000359527954A95E1F72093660E921739F09B
:101F100087708093670E98E0981B9093680E0895E1
:101F2000E8E0F1E090819064908390819F779083C6
:101F300080958F70806482B98081806880830895E5
:101F4000E8E0F1E090819064908390819F779083A6
:101F50008C70806282B980818068808380818F7775
:101F6000808362B98081806880830895E8E0F1E031
:101F700090819064908390819F77908394E692B94A
:101F800090819068908390819F77908382B98081BF
:101F90008068808380818F77808380E682B98081AA
:101FA0008068808380818F77808362B98081806838
:101FB00080830895E8E0F1E09081906490839081BF
:101FC0009F7790838C70806882B9808180688083DD
:101FD0000895A42FA695A695A69590E8A99FD0014F
:101FE0001124942F977041E050E001C0440F9A955E
:101FF000EAF7342F4095681778F0E82FF0E0EA0F01
:10200000FB1FE85CF84F9081222311F0932B01C055
:10201000942390838E5FEFCF0895A42FA695A69565
:10202000A69590E8A99FD0011124942F977041E0C4
:1020300050E001C0440F9A95EAF7342F4095681795
:1020400078F0E82FF0E0EA0FFB1FE85CF84F908192
:10205000222311F0932B01C0942390838F5FEFCF45
:102060000895CF93DF9390E0C1E0D0E04617F8F0F9
:10207000562F569556955695362F3770FC0170E8B9
:10208000579FE00DF11D1124E85CF84F5081DE01EF
:1020900001C0AA0F3A95EAF7222319F0A52BA083D5
:1020A00004C03A2F3095352330836E5FDFCFDF9148
:1020B000CF910895CF93DF9390E0C1E0D0E0461731
:1020C000F8F0562F569556955695362F3770FC01D9
:1020D00070E8579FE00DF11D1124E85CF84F508126
:1020E000DE0101C0AA0F3A95EAF7222319F0A52BC9
:1020F000A08304C03A2F3095352330836F5FDFCF44
:10210000DF91CF9108955F926F927F928F929F920D
:10211000AF92BF92CF92DF92EF92FF920F931F93F5
:10212000CF93DF93542E962F969596959695E82EFD
:10213000F12C362F3770522F569556955695722F93
:102140007770C42ED12C0023C1F110E8919FE001DB
:102150001124FE01EE0DFF1DE85CF84F9080A1E018
:10216000B0E05D01032E01C0AA0C0A94EAF7B92C75
:10217000BA28B08240E8549F300111244701860CF0
:10218000971CF401E85CF84FB080072E01C0AA0F3D
:102190000A94EAF7BB2DBA2BB083CC0DDD1DC85CC9
:1021A000D84FB881AB2AA882F301EC0DFD1DE85C85
:1021B000F84FB081AB2BA0833EC0F0E89F9FE001B9
:1021C0001124DE01AE0DBF1DA85CB84F8C906624B3
:1021D0006394712C5301032E01C0AA0C0A94EAF7F0
:1021E0009A2C9094B82CB920BC9210E8519FD00141
:1021F00011245701AA0EBB1EF501E85CF84F5F01E0
:102200008080F301072E01C0EE0F0A94EAF74E2FEB
:1022100040958422F5018082CC0DDD1DC85CD84F2D
:10222000A880A920A882AC0DBD1DA85CB84FFC9168
:10223000E42FEF23EC938F5FF0E89F9F3001112490
:10224000E1E0F0E05F0101C0AA0C3A95EAF7BA2C90
:1022500010E8519FE001112401C0EE0F7A95EAF7D2
:102260003E2FA0949E2F9095851500F5E82FF0E065
:1022700043018E0E9F1EA401485C584FDA015C9109
:10228000002349F05B295C93EC0FFD1FE85CF84FDD
:102290005081532B08C05A215C93EC0FFD1FE85C62
:1022A000F84F5081592350838F5FDECF6F5F81E0FD
:1022B00090E0621708F03FC0E62FE695E695E695B8
:1022C000462F47700023D1F0B0E8EB9FF0011124B6
:1022D000D701AE0FBF1FA85CB84F3C91EC0102C004
:1022E000CC0FDD1F4A95E2F73C2B3C93EC0DFD1D16
:1022F000E85CF84F30813C2B30831BC0D0E8ED9F69
:10230000F0011124D701AE0FBF1FA85CB84F3C915C
:10231000EC0102C0CC0FDD1F4A95E2F7AE014095FB
:1023200034233C93EC0DFD1DE85CF84F30814323D2
:1023300040836F5FBECFDF91CF911F910F91FF90D0
:10234000EF90DF90CF90BF90AF909F908F907F9055
:102350006F905F9008950F93CF93DF938F776F7394
:102360004F772F73011103C0C1E0D0E023C071E0AB
:10237000261708F43FC0A62FA695A695A69590E827
:10238000A99FD0011124962F9770572F01C0550F88
:102390009A95EAF7982F491750F0FD01E90FF11DC2
:1023A000E85CF84F3081352B30839F5FF4CF6F5F4F
:1023B000DFCF6F5F2617F0F0A62FA695A695A695FE
:1023C00090E8A99FD0011124962F9770FE0101C0BB
:1023D000EE0F9A95EAF73E2F3095982F491748F35C
:1023E000FD01E90FF11DE85CF84F50815323508344
:1023F0009F5FF4CFDF91CF910F91089571E0261781
:10240000F0F0A62FA695A695A69590E8A99FD001D5
:102410001124962F9770572F01C0550F9A95EAF700
:10242000982F491750F0FD01E90FF11DE85CF84FB6
:102430003081352730839F5FF4CF6F5FE0CF089501
:1024400090E8899FA001112420E030E0FA01E20F1A
:10245000F31FE85CF84F9081909590832F5F3F4F7A
:102460002038310599F7089520E8829FC001112492
:1024700020E030E0FC01E20FF31FE85CF84F10822F
:102480002F5F3F4F20383105A9F7089520E8829F3C
:10249000C0011124461740F0FC01E60FF11DE85C75
:1024A000F84F10826F5FF6CF089590E8899F9001F2
:1024B0001124461750F0F901E60FF11DE85CF84FC2
:1024C0009081909590836F5FF4CF08956F927F9283
:1024D0009F92AF92BF92CF92DF92EF92FF920F93B3
:1024E0001F93CF93DF93FA019080C281D381AC2EEA
:1024F000B12C20E030E070E090E0DD27B91448F521
:10250000D9017B01E21AF30A8C010B0D111DEA2F90
:10251000E21BEA15D0F4F701EA0FFB1FF695FE2F38
:10252000EE27F795E7953F01600E711EF301E85C19
:10253000F84F3F01FA01C480D580CA0EDB1EF601B8
:10254000D080F301D0821196E2CF2C0F3D1FB394BF
:10255000D5CFDF91CF911F910F91FF90EF90DF903A
:10256000CF90BF90AF909F907F906F90089580E044
:1025700094E0E8E3F7E0DF019C011D922150304038
:10258000E1F70895CF93DF9360E080E00E94B60FFB
:10259000E8E0F1E080818F7B808380818F7780838A
:1025A000A8E3B7E08C9182B98081806880838081C4
:1025B0008F77808311968C91119782B98081806882
:1025C000808380818F77808312968C91129782B955
:1025D00080818068808380818F77808313968C913F
:1025E000139782B980818068808380818F77808310
:1025F00014968C91149782B9808180688083808141
:102600008F77808315968C91159782B98081806829
:10261000808380818F77808316968C91169782B9FC
:1026200080818068808380818F77808317968C91EA
:10263000179782B980818068808380818F778083BB
:1026400018968C91189782B98081806880838081E8
:102650008F77808319968C91199782B980818068D1
:10266000808380818F7780831A968C911A9782B9A4
:1026700080818068808380818F7780831B968C9196
:102680001B9782B980818068808380818F77808367
:102690001C968C911C9782B9808180688083808190
:1026A0008F7780831D968C911D9782B98081806879
:1026B000808380818F7780831E968C911E9782B94C
:1026C00080818068808380818F7780831F968C9142
:1026D0001F9782B980818068808380818F77808313
:1026E00050968C91509782B98081806880838081D8
:1026F0008F77808351968C91519782B980818068C1
:10270000808380818F77808352968C91529782B993
:1027100080818068808380818F77808353968C91BD
:10272000539782B980818068808380818F7780838E
:1027300054968C91549782B980818068808380817F
:102740008F77808355968C91559782B98081806868
:10275000808380818F77808356968C91569782B93B
:1027600080818068808380818F77808357968C9169
:10277000579782B980818068808380818F7780833A
:1027800058968C91589782B9808180688083808127
:102790008F77808359968C91599782B98081806810
:1027A000808380818F7780835A968C915A9782B9E3
:1027B00080818068808380818F7780835B968C9115
:1027C0005B9782B980818068808380818F778083E6
:1027D0005C968C915C9782B98081806880838081CF
:1027E0008F7780835D968C915D9782B980818068B8
:1027F000808380818F7780835E968C915E9782B98B
:1028000080818068808380818F7780835F968C91C0
:102810005F9782B980818068808380818F77808391
:1028200090968C91909782B9808180688083808116
:102830008F77808391968C91919782B980818068FF
:10284000808380818F77808392968C91929782B9D2
:1028500080818068808380818F77808393968C913C
:10286000939782B980818068808380818F7780830D
:1028700094968C91949782B98081806880838081BE
:102880008F77808395968C91959782B980818068A7
:10289000808380818F77808396968C91969782B97A
:1028A00080818068808380818F77808397968C91E8
:1028B000979782B980818068808380818F778083B9
:1028C00098968C91989782B9808180688083808166
:1028D0008F77808399968C91999782B9808180684F
:1028E000808380818F7780839A968C919A9782B922
:1028F00080818068808380818F7780839B968C9194
:102900009B9782B980818068808380818F77808364
:102910009C968C919C9782B980818068808380810D
:102920008F7780839D968C919D9782B980818068F6
:10293000808380818F7780839E968C919E9782B9C9
:1029400080818068808380818F7780839F968C913F
:102950009F9782B980818068808380818F77808310
:10296000D0968C91D09782B9808180688083808155
:102970008F778083D1968C91D19782B9808180683E
:10298000808380818F778083D2968C91D29782B911
:1029900080818068808380818F778083D3968C91BB
:1029A000D39782B980818068808380818F7780838C
:1029B000D4968C91D49782B98081806880838081FD
:1029C0008F778083D5968C91D59782B980818068E6
:1029D000808380818F778083D6968C91D69782B9B9
:1029E00080818068808380818F778083D7968C9167
:1029F000D79782B980818068808380818F77808338
:102A0000D8968C91D89782B98081806880838081A4
:102A10008F778083D9968C91D99782B9808180688D
:102A2000808380818F778083DA968C91DA9782B960
:102A300080818068808380818F778083DB968C9112
:102A4000DB9782B980818068808380818F778083E3
:102A5000DC968C91DC9782B980818068808380814C
:102A60008F778083DD968C91DD9782B98081806835
:102A7000808380818F778083DE968C91DE9782B908
:102A800080818068808380818F778083DF968C91BE
:102A900082B980818068808380818F7780838091F4
:102AA000780782B980818068808380818F77808376
:102AB0008091790782B980818068808380818F7757
:102AC000808380917A0782B9808180688083808149
:102AD0008F77808380917B0782B980818068808333
:102AE00080818F77808380917C0782B98081806824
:102AF000808380818F77808380917D0782B98081F8
:102B00008068808380818F77808380917E0782B9FF
:102B1000C8E0D1E080818068808380818F77808366
:102B200080917F0782B980818068808380818F77E0
:102B300080838091800782B98081806880838081D2
:102B40008F7780838091810782B9808180688083BC
:102B500080818F7780838091820782B980818068AD
:102B6000808380818F7780838091830782B9808181
:102B70008068808380818F7780838091840782B989
:102B800080818068808380818F77808380918507B2
:102B900082B980818068808380818F7780838091F3
:102BA000860782B980818068808380818F77808367
:102BB0008091870782B980818068808380818F7748
:102BC00080838091880782B980818068808380813A
:102BD0008F7780838091890782B980818068808324
:102BE00080818F77808380918A0782B98081806815
:102BF000808380818F77808380918B0782B98081E9
:102C00008068808380818F77808380918C0782B9F0
:102C100080818068808380818F77808380918D0719
:102C200082B980818068808380818F778083809162
:102C30008E0782B980818068808380818F778083CE
:102C400080918F0782B980818068808380818F77AF
:102C500080838091900782B98081806880838081A1
:102C60008F7780838091910782B98081806880838B
:102C700080818F7780838091920782B9808180687C
:102C8000808380818F7780838091930782B9808150
:102C90008068808380818F7780838091940782B958
:102CA00080818068808380818F7780838091950781
:102CB00082B980818068808380818F7780838091D2
:102CC000960782B980818068808380818F77808336
:102CD0008091970782B980818068808380818F7717
:102CE00080838091980782B9808180688083808109
:102CF0008F7780838091990782B9808180688083F3
:102D000080818F77808380919A0782B980818068E3
:102D1000808380818F77808380919B0782B98081B7
:102D20008068808380818F77808380919C0782B9BF
:102D300080818068808380818F77808380919D07E8
:102D400082B980818068808380818F778083809141
:102D50009E0782B980818068808380818F7780839D
:102D600080919F0782B980818068808380818F777E
:102D700080838091A00782B9808180688083808170
:102D80008F7780838091A10782B98081806880835A
:102D900080818F7780838091A20782B9808180684B
:102DA000808380818F7780838091A30782B980811F
:102DB0008068808380818F7780838091A40782B927
:102DC00080818068808380818F7780838091A50750
:102DD00082B980818068808380818F7780838091B1
:102DE000A60782B980818068808380818F77808305
:102DF0008091A70782B980818068808380818F77E6
:102E000080838091A80782B98081806880838081D7
:102E10008F7780838091A90782B9808180688083C1
:102E200080818F7780838091AA0782B980818068B2
:102E3000808380818F7780838091AB0782B9808186
:102E40008068808380818F7780838091AC0782B98E
:102E500080818068808380818F7780838091AD07B7
:102E600082B988818068888388818F778883809100
:102E7000AE0782B988818068888388818F7788834C
:102E80008091AF0782B988818068888388818F7735
:102E900088838091B00782B988818068888388811F
:102EA0008F7788838091B10782B988818068888311
:102EB00088818F7788838091B20782B98881806802
:102EC000888388818F7788838091B30782B98881CE
:102ED0008068888388818F7788838091B40782B9DE
:102EE00088818068888388818F7788838091B507FF
:102EF00082B988818068888388818F778883809170
:102F0000B60782B988818068888388818F778883B3
:102F10008091B70782B988818068888361E080E00A
:102F20000E94B60F88818F7B888388818F77888302
:102F30008091B80782B988818068888388818F777B
:102F400088838091B90782B9888180688883888165
:102F50008F7788838091BA0782B988818068888357
:102F600088818F7788838091BB0782B98881806848
:102F7000888388818F7788838091BC0782B9888114
:102F80008068888388818F7788838091BD0782B924
:102F900088818068888388818F7788838091BE0745
:102FA00082B988818068888388818F7788838091BF
:102FB000BF0782B988818068888388818F778883FA
:102FC0008091C00782B9E8E0F1E080818068808369
:102FD00080818F7780838091C10782B980818068EA
:102FE000808380818F7780838091C20782B98081BE
:102FF0008068808380818F7780838091C30782B9C6
:1030000080818068808380818F7780838091C407EE
:1030100082B980818068808380818F77808380916E
:10302000C50782B980818068808380818F778083A3
:103030008091C60782B980818068808380818F7784
:1030400080838091C70782B9808180688083808176
:103050008F7780838091C80782B980818068808360
:1030600080818F7780838091C90782B98081806851
:10307000808380818F7780838091CA0782B9808125
:103080008068808380818F7780838091CB0782B92D
:1030900080818068808380818F7780838091CC0756
:1030A00082B980818068808380818F7780838091DE
:1030B000CD0782B980818068808380818F7780830B
:1030C0008091CE0782B980818068808380818F77EC
:1030D00080838091CF0782B98081806880838081DE
:1030E0008F7780838091D00782B9808180688083C8
:1030F00080818F7780838091D10782B980818068B9
:10310000808380818F7780838091D20782B980818C
:103110008068808380818F7780838091D30782B994
:1031200080818068808380818F7780838091D407BD
:1031300082B980818068808380818F77808380914D
:10314000D50782B980818068808380818F77808372
:103150008091D60782B980818068808380818F7753
:1031600080838091D70782B9808180688083808145
:103170008F7780838091D80782B98081806880832F
:1031800080818F7780838091D90782B98081806820
:10319000808380818F7780838091DA0782B98081F4
:1031A0008068808380818F7780838091DB0782B9FC
:1031B00080818068808380818F7780838091DC0725
:1031C00082B980818068808380818F7780838091BD
:1031D000DD0782B980818068808380818F778083DA
:1031E0008091DE0782B980818068808380818F77BB
:1031F00080838091DF0782B98081806880838081AD
:103200008F7780838091E00782B980818068808396
:1032100080818F7780838091E10782B98081806887
:10322000808380818F7780838091E20782B980815B
:103230008068808380818F7780838091E30782B963
:1032400080818068808380818F7780838091E4078C
:1032500082B980818068808380818F77808380912C
:10326000E50782B980818068808380818F77808341
:103270008091E60782B980818068808380818F7722
:1032800080838091E70782B9808180688083808114
:103290008F7780838091E80782B9808180688083FE
:1032A00080818F7780838091E90782B980818068EF
:1032B000808380818F7780838091EA0782B98081C3
:1032C0008068808380818F7780838091EB0782B9CB
:1032D00080818068808380818F7780838091EC07F4
:1032E00082B980818068808380818F77808380919C
:1032F000ED0782B980818068808380818F778083A9
:103300008091EE0782B980818068808380818F7789
:1033100080838091EF0782B980818068808380817B
:103320008F7780838091F00782B980818068808365
:1033300080818F7780838091F10782B98081806856
:10334000808380818F7780838091F20782B980812A
:103350008068808380818F7780838091F30782B932
:1033600080818068808380818F7780838091F4075B
:1033700082B980818068808380818F77808380910B
:10338000F50782B980818068808380818F77808310
:103390008091F60782B980818068808380818F77F1
:1033A00080838091F70782B98081806880838081E3
:1033B0008F7780838091F80782B9808180688083CD
:1033C00080818F7780838091F90782B980818068BE
:1033D000808380818F7780838091FA0782B9808192
:1033E0008068808380818F7780838091FB0782B99A
:1033F00080818068808380818F7780838091FC07C3
:1034000082B980818068808380818F77808380917A
:10341000FD0782B980818068808380818F77808377
:103420008091FE0782B980818068808380818F7758
:1034300080838091FF0782B980818068808380814A
:103440008F7780838091000882B980818068808333
:1034500080818F7780838091010882B98081806824
:10346000808380818F7780838091020882B98081F8
:103470008068808380818F7780838091030882B900
:1034800080818068808380818F7780838091040829
:1034900082B980818068808380818F7780838091EA
:1034A000050882B980818068808380818F778083DE
:1034B0008091060882B980818068808380818F77BF
:1034C00080838091070882B98081806880838081B1
:1034D0008F7780838091080882B98081806880839B
:1034E00080818F7780838091090882B9808180688C
:1034F000808380818F77808380910A0882B9808160
:103500008068808380818F77808380910B0882B967
:1035100080818068808380818F77808380910C0890
:1035200082B980818068808380818F778083809159
:103530000D0882B980818068808380818F77808345
:1035400080910E0882B980818068808380818F7726
:10355000808380910F0882B9808180688083808118
:103560008F7780838091100882B980818068808302
:1035700080818F7780838091110882B980818068F3
:10358000808380818F7780838091120882B98081C7
:103590008068808380818F7780838091130882B9CF
:1035A00080818068808380818F77808380911408F8
:1035B00082B980818068808380818F7780838091C9
:1035C000150882B980818068808380818F778083AD
:1035D0008091160882B980818068808380818F778E
:1035E00080838091170882B9808180688083808180
:1035F0008F7780838091180882B98081806880836A
:1036000080818F7780838091190882B9808180685A
:10361000808380818F77808380911A0882B980812E
:103620008068808380818F77808380911B0882B936
:1036300088818068888388818F77888380911C083F
:1036400082B988818068888388818F778883809118
:103650001D0882B988818068888388818F778883F4
:1036600080911E0882B988818068888388818F77DD
:10367000888380911F0882B98881806888838881C7
:103680008F7788838091200882B9888180688883B9
:1036900088818F7788838091210882B988818068AA
:1036A000888388818F7788838091220882B9888176
:1036B0008068888388818F7788838091230882B986
:1036C00088818068888388818F77888380912408A7
:1036D00082B988818068888388818F778883809188
:1036E000250882B988818068888388818F7788835C
:1036F0008091260882B988818068888388818F7745
:1037000088838091270882B988818068888388812E
:103710008F7788838091280882B988818068888320
:1037200088818F7788838091290882B98881806811
:10373000888388818F77888380912A0882B98881DD
:103740008068888388818F77888380912B0882B9ED
:1037500088818068888388818F77888380912C080E
:1037600082B988818068888388818F7788838091F7
:103770002D0882B988818068888388818F778883C3
:1037800080912E0882B988818068888388818F77AC
:10379000888380912F0882B9888180688883888196
:1037A0008F7788838091300882B988818068888388
:1037B00088818F7788838091310882B98881806879
:1037C000888388818F7788838091320882B9888145
:1037D0008068888388818F7788838091330882B955
:1037E00088818068888388818F7788838091340876
:1037F00082B988818068888388818F778883809167
:10380000350882B988818068888388818F7788832A
:103810008091360882B988818068888388818F7713
:1038200088838091370882B988818068888362E0C4
:1038300080E00E94B60F88818F7B888388818F7794
:1038400088838091380882B98881806888838881DC
:103850008F7788838091390882B9888180688883CE
:1038600088818F77888380913A0882B988818068BF
:10387000888388818F77888380913B0882B988818B
:103880008068888388818F77888380913C0882B99B
:1038900088818068888388818F77888380913D08BC
:1038A00082B988818068888388818F7788838091B6
:1038B0003E0882B988818068888388818F77888371
:1038C00080913F0882B988818068888388818F775A
:1038D00088838091400882B9888180688883888144
:1038E0008F7788838091410882B988818068888336
:1038F00088818F7788838091420882B98881806827
:10390000888388818F7788838091430882B98881F2
:103910008068888388818F7788838091440882B902
:1039200088818068888388818F7788838091450823
:1039300082B988818068E8E0F1E0808380818F77B8
:1039400080838091460882B98081806880838081ED
:103950008F7780838091470882B9808180688083D7
:1039600080818F7780838091480882B980818068C8
:10397000808380818F7780838091490882B980819C
:103980008068808380818F77808380914A0882B9A4
:1039900080818068808380818F77808380914B08CD
:1039A00082B980818068808380818F7780838091D5
:1039B0004C0882B980818068808380818F77808382
:1039C00080914D0882B980818068808380818F7763
:1039D000808380914E0882B9808180688083808155
:1039E0008F77808380914F0882B98081806880833F
:1039F00080818F7780838091500882B98081806830
:103A0000808380818F7780838091510882B9808103
:103A10008068808380818F7780838091520882B90B
:103A200080818068808380818F7780838091530834
:103A300082B980818068808380818F778083809144
:103A4000540882B980818068808380818F778083E9
:103A50008091550882B980818068808380818F77CA
:103A600080838091560882B98081806880838081BC
:103A70008F7780838091570882B9808180688083A6
:103A800080818F7780838091580882B98081806897
:103A9000808380818F7780838091590882B980816B
:103AA0008068808380818F77808380915A0882B973
:103AB00080818068808380818F77808380915B089C
:103AC00082B980818068808380818F7780838091B4
:103AD0005C0882B980818068808380818F77808351
:103AE00080915D0882B980818068808380818F7732
:103AF000808380915E0882B9808180688083808124
:103B00008F77808380915F0882B98081806880830D
:103B100080818F7780838091600882B980818068FE
:103B2000808380818F7780838091610882B98081D2
:103B30008068808380818F7780838091620882B9DA
:103B400080818068808380818F7780838091630803
:103B500082B980818068808380818F778083809123
:103B6000640882B980818068808380818F778083B8
:103B70008091650882B980818068808380818F7799
:103B800080838091660882B980818068808380818B
:103B90008F7780838091670882B980818068808375
:103BA00080818F7780838091680882B98081806866
:103BB000808380818F7780838091690882B980813A
:103BC0008068808380818F77808380916A0882B942
:103BD00080818068808380818F77808380916B086B
:103BE00082B980818068808380818F778083809193
:103BF0006C0882B980818068808380818F77808320
:103C000080916D0882B980818068808380818F7700
:103C1000808380916E0882B98081806880838081F2
:103C20008F77808380916F0882B9808180688083DC
:103C300080818F7780838091700882B980818068CD
:103C4000808380818F7780838091710882B98081A1
:103C50008068808380818F7780838091720882B9A9
:103C600080818068808380818F77808380917308D2
:103C700082B980818068808380818F778083809102
:103C8000740882B980818068808380818F77808387
:103C90008091750882B980818068808380818F7768
:103CA00080838091760882B980818068808380815A
:103CB0008F7780838091770882B980818068808344
:103CC00080818F7780838091780882B98081806835
:103CD000808380818F7780838091790882B9808109
:103CE0008068808380818F77808380917A0882B911
:103CF00080818068808380818F77808380917B083A
:103D000082B980818068808380818F778083809171
:103D10007C0882B980818068808380818F778083EE
:103D200080917D0882B980818068808380818F77CF
:103D3000808380917E0882B98081806880838081C1
:103D40008F77808380917F0882B9808180688083AB
:103D500080818F7780838091800882B9808180689C
:103D6000808380818F7780838091810882B9808170
:103D70008068808380818F7780838091820882B978
:103D800080818068808380818F77808380918308A1
:103D900082B980818068808380818F7780838091E1
:103DA000840882B980818068808380818F77808356
:103DB0008091850882B980818068808380818F7737
:103DC00080838091860882B9808180688083808129
:103DD0008F7780838091870882B980818068808313
:103DE00080818F7780838091880882B98081806804
:103DF000808380818F7780838091890882B98081D8
:103E00008068808380818F77888380918A0882B9D7
:103E100088818068888388818F77888380918B08E8
:103E200082B988818068888388818F778883809130
:103E30008C0882B988818068888388818F7788839D
:103E400080918D0882B988818068888388818F7786
:103E5000888380918E0882B9888180688883888170
:103E60008F77888380918F0882B988818068888362
:103E700088818F7788838091900882B98881806853
:103E8000888388818F7788838091910882B988811F
:103E90008068888388818F7788838091920882B92F
:103EA00088818068888388818F7788838091930850
:103EB00082B988818068888388818F7788838091A0
:103EC000940882B988818068888388818F77888305
:103ED0008091950882B988818068888388818F77EE
:103EE00088838091960882B98881806888838881D8
:103EF0008F7788838091970882B9888180688883CA
:103F000088818F7788838091980882B988818068BA
:103F1000888388818F7788838091990882B9888186
:103F20008068888388818F77888380919A0882B996
:103F300088818068888388818F77888380919B08B7
:103F400082B988818068888388818F77888380910F
:103F50009C0882B988818068888388818F7788836C
:103F600080919D0882B988818068888388818F7755
:103F7000888380919E0882B988818068888388813F
:103F80008F77888380919F0882B988818068888331
:103F900088818F7788838091A00882B98881806822
:103FA000888388818F7788838091A10882B98881EE
:103FB0008068888388818F7788838091A20882B9FE
:103FC00088818068888388818F7788838091A3081F
:103FD00082B988818068888388818F77888380917F
:103FE000A40882B988818068888388818F778883D4
:103FF0008091A50882B988818068888388818F77BD
:1040000088838091A60882B98881806888838881A6
:104010008F7788838091A70882B988818068888398
:1040200088818F7788838091A80882B98881806889
:10403000888388818F7788838091A90882B9888155
:104040008068888388818F7788838091AA0882B965
:1040500088818068888388818F7788838091AB0886
:1040600082B988818068888388818F7788838091EE
:10407000AC0882B988818068888388818F7788833B
:104080008091AD0882B988818068888388818F7724
:1040900088838091AE0882B988818068888388810E
:1040A0008F7788838091AF0882B988818068888300
:1040B00088818F7788838091B00882B988818068F1
:1040C000888388818F7788838091B10882B98881BD
:1040D0008068888388818F7788838091B20882B9CD
:1040E00088818068888388818F7788838091B308EE
:1040F00082B988818068888388818F77888380915E
:10410000B40882B988818068888388818F778883A2
:104110008091B50882B988818068888388818F778B
:1041200088838091B60882B9888180688883888175
:104130008F7788838091B70882B988818068888367
:1041400063E080E00E94B60F88818F7B888388813E
:104150008F7788838091B80882B988818068888346
:1041600088818F7788838091B90882B98881806837
:10417000888388818F7788838091BA0882B9888103
:104180008068888388818F7788838091BB0882B913
:1041900088818068888388818F7788838091BC0834
:1041A00082B988818068888388818F7788838091AD
:1041B000BD0882B988818068888388818F778883E9
:1041C0008091BE0882B988818068888388818F77D2
:1041D00088838091BF0882B98881806888838881BC
:1041E0008F7788838091C00882B9888180688883AE
:1041F00088818F7788838091C10882B9888180689F
:10420000888388818F7788838091C20882B988816A
:104210008068888388818F7788838091C30882B97A
:1042200088818068888388818F7788838091C4089B
:1042300082B988818068888388818F77888380911C
:10424000C50882B988818068888388818F77888350
:104250008091C60882B988818068888388818F7739
:1042600088838091C70882B9888180688883888123
:104270008F7788838091C80882B988818068888315
:1042800088818F7788838091C90882B98881806806
:10429000888388818F7788838091CA0882B98881D2
:1042A0008068E8E0F1E0808380818F77808380916F
:1042B000CB0882B980818068808380818F778083FA
:1042C0008091CC0882B980818068808380818F77DB
:1042D00080838091CD0882B98081806880838081CD
:1042E0008F7780838091CE0882B9808180688083B7
:1042F00080818F7780838091CF0882B980818068A8
:10430000808380818F7780838091D00882B980817B
:104310008068808380818F7780838091D10882B983
:1043200080818068808380818F7780838091D208AC
:1043300082B980818068808380818F77808380913B
:10434000D30882B980818068808380818F77808361
:104350008091D40882B980818068808380818F7742
:1043600080838091D50882B9808180688083808134
:104370008F7780838091D60882B98081806880831E
:1043800080818F7780838091D70882B9808180680F
:10439000808380818F7780838091D80882B98081E3
:1043A0008068808380818F7780838091D90882B9EB
:1043B00080818068808380818F7780838091DA0814
:1043C00082B980818068808380818F7780838091AB
:1043D000DB0882B980818068808380818F778083C9
:1043E0008091DC0882B980818068808380818F77AA
:1043F00080838091DD0882B980818068808380819C
:104400008F7780838091DE0882B980818068808385
:1044100080818F7780838091DF0882B98081806876
:10442000808380818F7780838091E00882B980814A
:104430008068808380818F7780838091E10882B952
:1044400080818068808380818F7780838091E2087B
:1044500082B980818068808380818F77808380911A
:10446000E30882B980818068808380818F77808330
:104470008091E40882B980818068808380818F7711
:1044800080838091E50882B9808180688083808103
:104490008F7780838091E60882B9808180688083ED
:1044A00080818F7780838091E70882B980818068DE
:1044B000808380818F7780838091E80882B98081B2
:1044C0008068808380818F7780838091E90882B9BA
:1044D00080818068808380818F7780838091EA08E3
:1044E00082B980818068808380818F77808380918A
:1044F000EB0882B980818068808380818F77808398
:104500008091EC0882B980818068808380818F7778
:1045100080838091ED0882B980818068808380816A
:104520008F7780838091EE0882B980818068808354
:1045300080818F7780838091EF0882B98081806845
:10454000808380818F7780838091F00882B9808119
:104550008068808380818F7780838091F10882B921
:1045600080818068808380818F7780838091F2084A
:1045700082B980818068808380818F7780838091F9
:10458000F30882B980818068808380818F778083FF
:104590008091F40882B980818068808380818F77E0
:1045A00080838091F50882B98081806880838081D2
:1045B0008F7780838091F60882B9808180688083BC
:1045C00080818F7780838091F70882B980818068AD
:1045D000808380818F7780838091F80882B9808181
:1045E0008068808380818F7780838091F90882B989
:1045F00080818068808380818F7780838091FA08B2
:1046000082B980818068808380818F778083809168
:10461000FB0882B980818068808380818F77808366
:104620008091FC0882B980818068808380818F7747
:1046300080838091FD0882B9808180688083808139
:104640008F7780838091FE0882B980818068808323
:1046500080818F7780838091FF0882B98081806814
:10466000808380818F7780838091000982B98081E7
:104670008068808380818F7780838091010982B9EF
:1046800080818068808380818F7780838091020918
:1046900082B980818068808380818F7780838091D8
:1046A000030982B980818068808380818F778083CD
:1046B0008091040982B980818068808380818F77AE
:1046C00080838091050982B98081806880838081A0
:1046D0008F7780838091060982B98081806880838A
:1046E00080818F7780838091070982B9808180687B
:1046F000808380818F7780838091080982B980814F
:104700008068808380818F7780838091090982B956
:1047100080818068808380818F77808380910A097F
:1047200082B980818068808380818F778083809147
:104730000B0982B980818068808380818F77808334
:1047400080910C0982B980818068808380818F7715
:10475000808380910D0982B98881806888838881EF
:104760008F77888380910E0982B9888180688883D9
:1047700088818F77888380910F0982B988818068CA
:10478000888388818F7788838091100982B9888196
:104790008068888388818F7788838091110982B9A6
:1047A00088818068888388818F77888380911209C7
:1047B00082B988818068888388818F778883809197
:1047C000130982B988818068888388818F7788837C
:1047D0008091140982B988818068888388818F7765
:1047E00088838091150982B988818068888388814F
:1047F0008F7788838091160982B988818068888341
:1048000088818F7788838091170982B98881806831
:10481000888388818F7788838091180982B98881FD
:104820008068888388818F7788838091190982B90D
:1048300088818068888388818F77888380911A092E
:1048400082B988818068888388818F778883809106
:104850001B0982B988818068888388818F778883E3
:1048600080911C0982B988818068888388818F77CC
:10487000888380911D0982B98881806888838881B6
:104880008F77888380911E0982B9888180688883A8
:1048900088818F77888380911F0982B98881806899
:1048A000888388818F7788838091200982B9888165
:1048B0008068888388818F7788838091210982B975
:1048C00088818068888388818F7788838091220996
:1048D00082B988818068888388818F778883809176
:1048E000230982B988818068888388818F7788834B
:1048F0008091240982B988818068888388818F7734
:1049000088838091250982B988818068888388811D
:104910008F7788838091260982B98881806888830F
:1049200088818F7788838091270982B98881806800
:10493000888388818F7788838091280982B98881CC
:104940008068888388818F7788838091290982B9DC
:1049500088818068888388818F77888380912A09FD
:1049600082B988818068888388818F7788838091E5
:104970002B0982B988818068888388818F778883B2
:1049800080912C0982B988818068888388818F779B
:10499000888380912D0982B9888180688883888185
:1049A0008F77888380912E0982B988818068888377
:1049B00088818F77888380912F0982B98881806868
:1049C000888388818F7788838091300982B9888134
:1049D0008068888388818F7788838091310982B944
:1049E00088818068888388818F7788838091320965
:1049F00082B988818068888388818F778883809155
:104A0000330982B988818068888388818F77888319
:104A10008091340982B988818068888388818F7702
:104A200088838091350982B98881806888838881EC
:104A30008F7788838091360982B9888180688883DE
:104A400088818F7788838091370982B988818068CF
:104A5000888364E080E00E94B60F88818F7B888322
:104A600088818F7788838091380982B988818068AE
:104A7000888388818F7788838091390982B988817A
:104A80008068888388818F77888380913A0982B98A
:104A900088818068888388818F77888380913B09AB
:104AA00082B988818068888388818F7788838091A4
:104AB0003C0982B988818068888388818F77888360
:104AC00080913D0982B988818068888388818F7749
:104AD000888380913E0982B9888180688883888133
:104AE0008F77888380913F0982B988818068888325
:104AF00088818F7788838091400982B98881806816
:104B0000888388818F7788838091410982B98881E1
:104B10008068888388818F7788838091420982B9F1
:104B200088818068888388818F7788838091430912
:104B300082B988818068888388818F778883809113
:104B4000440982B988818068888388818F778883C7
:104B50008091450982B988818068888388818F77B0
:104B600088838091460982B988818068888388819A
:104B70008F7788838091470982B98881806888838C
:104B800088818F7788838091480982B9888180687D
:104B9000888388818F7788838091490982B9888149
:104BA0008068888388818F77888380914A0982B959
:104BB00088818068888388818F77888380914B097A
:104BC00082B988818068888388818F778883809183
:104BD0004C0982B988818068888388818F7788832F
:104BE00080914D0982B988818068888388818F7718
:104BF000888380914E0982B9888180688883888102
:104C00008F77888380914F0982B9888180688883F3
:104C1000E8E0F1E088818F7788838091500982B93C
:104C200088818068888388818F7788838091510903
:104C300082B988818068888388818F778883809112
:104C4000520982B988818068888388818F778883B8
:104C50008091530982B988818068888388818F77A1
:104C600088838091540982B988818068888388818B
:104C70008F7788838091550982B98881806888837D
:104C800088818F7788838091560982B9888180686E
:104C9000888388818F7788838091570982B988813A
:104CA0008068888388818F7788838091580982B94A
:104CB00088818068888388818F778883809159096B
:104CC00082B988818068888388818F778883809182
:104CD0005A0982B988818068888388818F77888320
:104CE00080915B0982B988818068888388818F7709
:104CF000888380915C0982B98881806888838881F3
:104D00008F77888380915D0982B9888180688883E4
:104D100088818F77888380915E0982B988818068D5
:104D2000888388818F77888380915F0982B98881A1
:104D30008068888388818F7788838091600982B9B1
:104D400088818068888388818F77888380916109D2
:104D500082B988818068888388818F7788838091F1
:104D6000620982B988818068888388818F77888387
:104D70008091630982B988818068888388818F7770
:104D800088838091640982B988818068888388815A
:104D90008F7788838091650982B98881806888834C
:104DA00088818F7788838091660982B9888180683D
:104DB000888380818F7780838091670982B9808121
:104DC0008068808380818F7780838091680982B931
:104DD00080818068808380818F778083809169095A
:104DE00082B980818068808380818F778083809181
:104DF0006A0982B980818068808380818F7780830F
:104E000080916B0982B980818068808380818F77EF
:104E1000808380916C0982B98081806880838081E1
:104E20008F77808380916D0982B9808180688083CB
:104E300080818F77808380916E0982B980818068BC
:104E4000808380818F77808380916F0982B9808190
:104E50008068808380818F7780838091700982B998
:104E600080818068808380818F77808380917109C1
:104E700082B980818068808380818F7780838091F0
:104E8000720982B980818068808380818F77808376
:104E90008091730982B980818068808380818F7757
:104EA00080838091740982B9808180688083808149
:104EB0008F7780838091750982B980818068808333
:104EC00080818F7780838091760982B98081806824
:104ED000808380818F7780838091770982B98081F8
:104EE0008068808380818F7780838091780982B900
:104EF00080818068808380818F7780838091790929
:104F000082B980818068808380818F77808380915F
:104F10007A0982B980818068808380818F778083DD
:104F200080917B0982B980818068808380818F77BE
:104F3000808380917C0982B98081806880838081B0
:104F40008F77808380917D0982B98081806880839A
:104F500080818F77808380917E0982B9808180688B
:104F6000808380818F77808380917F0982B980815F
:104F70008068808380818F7780838091800982B967
:104F800080818068808380818F7780838091810990
:104F900082B980818068808380818F7780838091CF
:104FA000820982B980818068808380818F77808345
:104FB0008091830982B980818068808380818F7726
:104FC00080838091840982B9808180688083808118
:104FD0008F7780838091850982B980818068808302
:104FE00080818F7780838091860982B980818068F3
:104FF000808380818F7780838091870982B98081C7
:105000008068808380818F7780838091880982B9CE
:1050100080818068808380818F77808380918909F7
:1050200082B980818068808380818F77808380913E
:105030008A0982B980818068808380818F778083AC
:1050400080918B0982B980818068808380818F778D
:10505000808380918C0982B980818068808380817F
:105060008F77808380918D0982B980818068808369
:1050700080818F77808380918E0982B9808180685A
:10508000808380818F77808380918F0982B980812E
:105090008068808380818F7780838091900982B936
:1050A00080818068808380818F778083809191095F
:1050B00082B980818068808380818F7780838091AE
:1050C000920982B988818068888388818F778883F4
:1050D0008091930982B988818068888388818F77DD
:1050E00088838091940982B98881806888838881C7
:1050F0008F7788838091950982B9888180688883B9
:1051000088818F7788838091960982B988818068A9
:10511000888388818F7788838091970982B9888175
:105120008068888388818F7788838091980982B985
:1051300088818068888388818F77888380919909A6
:1051400082B988818068888388818F7788838091FD
:105150009A0982B988818068888388818F7788835B
:1051600080919B0982B988818068888388818F7744
:10517000888380919C0982B988818068888388812E
:105180008F77888380919D0982B988818068888320
:1051900088818F77888380919E0982B98881806811
:1051A000888388818F77888380919F0982B98881DD
:1051B0008068888388818F7788838091A00982B9ED
:1051C00088818068888388818F7788838091A1090E
:1051D00082B988818068888388818F77888380916D
:1051E000A20982B988818068888388818F778883C3
:1051F0008091A30982B988818068888388818F77AC
:1052000088838091A40982B9888180688883888195
:105210008F7788838091A50982B988818068888387
:1052200088818F7788838091A60982B98881806878
:10523000888388818F7788838091A70982B9888144
:105240008068888388818F7788838091A80982B954
:1052500088818068888388818F7788838091A90975
:1052600082B988818068888388818F7788838091DC
:10527000AA0982B988818068888388818F7788832A
:105280008091AB0982B988818068888388818F7713
:1052900088838091AC0982B98881806888838881FD
:1052A0008F7788838091AD0982B9888180688883EF
:1052B00088818F7788838091AE0982B988818068E0
:1052C000888388818F7788838091AF0982B98881AC
:1052D0008068888388818F7788838091B00982B9BC
:1052E00088818068888388818F7788838091B109DD
:1052F00082B988818068888388818F77888380914C
:10530000B20982B988818068888388818F77888391
:105310008091B30982B988818068888388818F777A
:1053200088838091B40982B9888180688883888164
:105330008F7788838091B50982B988818068888356
:1053400088818F7788838091B60982B98881806847
:10535000888388818F7788838091B70982B9888113
:105360008068888365E080E00E94B60F88818F7B2B
:10537000888388818F7788838091B80982B98881F2
:105380008068888388818F7788838091B90982B902
:1053900088818068888388818F7788838091BA0923
:1053A00082B988818068888388818F77888380919B
:1053B000BB0982B988818068888388818F778883D8
:1053C0008091BC0982B988818068888388818F77C1
:1053D00088838091BD0982B98881806888838881AB
:1053E0008F7788838091BE0982B98881806888839D
:1053F00088818F7788838091BF0982B9888180688E
:10540000888388818F7788838091C00982B9888159
:105410008068888388818F7788838091C10982B969
:1054200088818068888388818F7788838091C2098A
:1054300082B988818068888388818F77888380910A
:10544000C30982B988818068888388818F7788833F
:105450008091C40982B988818068888388818F7728
:1054600088838091C50982B9888180688883888112
:105470008F7788838091C60982B988818068888304
:1054800088818F7788838091C70982B988818068F5
:10549000888388818F7788838091C80982B98881C1
:1054A0008068888388818F7788838091C90982B9D1
:1054B00088818068888388818F7788838091CA09F2
:1054C00082B988818068888388818F77888380917A
:1054D000CB0982B988818068888388818F778883A7
:1054E0008091CC0982B988818068888388818F7790
:1054F00088838091CD0982B988818068888388817A
:105500008F7788838091CE0982B98881806888836B
:1055100088818F7788838091CF0982B9888180685C
:10552000888388818F7788838091D00982B9888128
:105530008068888388818F7788838091D10982B938
:1055400088818068888388818F7788838091D20959
:1055500082B988818068888388818F7788838091E9
:10556000D30982B988818068888388818F7788830E
:105570008091D40982B9888180688883E8E0F1E06D
:1055800088818F7788838091D50982B980818068EE
:10559000808380818F7780838091D60982B98081D2
:1055A0008068808380818F7780838091D70982B9DA
:1055B00080818068808380818F7780838091D80903
:1055C00082B980818068808380818F778083809199
:1055D000D90982B980818068808380818F778083B8
:1055E0008091DA0982B980818068808380818F7799
:1055F00080838091DB0982B980818068808380818B
:105600008F7780838091DC0982B980818068808374
:1056100080818F7780838091DD0982B98081806865
:10562000808380818F7780838091DE0982B9808139
:105630008068808380818F7780838091DF0982B941
:1056400080818068808380818F7780838091E0096A
:1056500082B980818068808380818F778083809108
:10566000E10982B980818068808380818F7780831F
:105670008091E20982B980818068808380818F7700
:1056800080838091E30982B98081806880838081F2
:105690008F7780838091E40982B9808180688083DC
:1056A00080818F7780838091E50982B980818068CD
:1056B000808380818F7780838091E60982B98081A1
:1056C0008068808380818F7780838091E70982B9A9
:1056D00080818068808380818F7780838091E809D2
:1056E00082B980818068808380818F778083809178
:1056F000E90982B980818068808380818F77808387
:105700008091EA0982B980818068808380818F7767
:1057100080838091EB0982B9808180688083808159
:105720008F7780838091EC0982B980818068808343
:1057300080818F7780838091ED0982B98081806834
:10574000808380818F7780838091EE0982B9808108
:105750008068808380818F7780838091EF0982B910
:1057600080818068808380818F7780838091F00939
:1057700082B980818068808380818F7780838091E7
:10578000F10982B980818068808380818F778083EE
:105790008091F20982B980818068808380818F77CF
:1057A00080838091F30982B98081806880838081C1
:1057B0008F7780838091F40982B9808180688083AB
:1057C00080818F7780838091F50982B9808180689C
:1057D000808380818F7780838091F60982B9808170
:1057E0008068808380818F7780838091F70982B978
:1057F00080818068808380818F7780838091F809A1
:1058000082B980818068808380818F778083809156
:10581000F90982B980818068808380818F77808355
:105820008091FA0982B980818068808380818F7736
:1058300080838091FB0982B9808180688083808128
:105840008F7780838091FC0982B980818068808312
:1058500080818F7780838091FD0982B98081806803
:10586000808380818F7780838091FE0982B98081D7
:105870008068808380818F7780838091FF0982B9DF
:1058800080818068808380818F7780838091000A07
:1058900082B980818068808380818F7780838091C6
:1058A000010A82B980818068808380818F778083BC
:1058B0008091020A82B980818068808380818F779D
:1058C00080838091030A82B980818068808380818F
:1058D0008F7780838091040A82B980818068808379
:1058E00080818F7780838091050A82B9808180686A
:1058F000808380818F7780838091060A82B980813E
:105900008068808380818F7780838091070A82B945
:1059100080818068808380818F7780838091080A6E
:1059200082B980818068808380818F778083809135
:10593000090A82B980818068808380818F77808323
:1059400080910A0A82B980818068808380818F7704
:10595000808380910B0A82B98081806880838081F6
:105960008F77808380910C0A82B9808180688083E0
:1059700080818F77808380910D0A82B980818068D1
:10598000808380818F77808380910E0A82B98081A5
:105990008068808380818F77808380910F0A82B9AD
:1059A00080818068808380818F7780838091100AD6
:1059B00082B980818068808380818F7780838091A5
:1059C000110A82B980818068808380818F7780838B
:1059D0008091120A82B980818068808380818F776C
:1059E00080838091130A82B980818068808380815E
:1059F0008F7780838091140A82B980818068808348
:105A000080818F7780838091150A82B98081806838
:105A1000808380818F7780838091160A82B980810C
:105A20008068808380818F7780838091170A82B914
:105A300080818068888388818F7788838091180A25
:105A400082B988818068888388818F7788838091F4
:105A5000190A82B988818068888388818F778883D2
:105A600080911A0A82B988818068888388818F77BB
:105A7000888380911B0A82B98881806888838881A5
:105A80008F77888380911C0A82B988818068888397
:105A900088818F77888380911D0A82B98881806888
:105AA000888388818F77888380911E0A82B9888154
:105AB0008068888388818F77888380911F0A82B964
:105AC00088818068888388818F7788838091200A85
:105AD00082B988818068888388818F778883809164
