S01C00006E65775F66625F696F5F636F6E74726F6C6C65722E73726563BD
S11300000C94E1020C94FE020C94FE020C94FE0289
S11300100C94FE020C94FE020C94FE020C94FE025C
S11300200C94FE020C94FE020C94FE020C944244C6
S11300300C94FE020C94FE020C94FE020C94FE023C
S11300400C94FE020C9409410C94FE020C94FE02E2
S11300500C94FE020C9404470C94FE020C94FE02D1
S11300600C94FE020C9438480C946D480C94FE02D7
S11300700C94FE020C94FE020C94FE020C94FE02FC
S11300800C9451460C94FE020C94FE020C94FE0255
S11300900C94FE020C94FE020C94FE020C94FE02DC
S11300A00C94FE020C94FE020C94B3440C94FE02D5
S11300B00C94FE020C94FE020C94FE020C94FE02BC
S11300C00C94FE020C94FE020C94FE020C94FE02AC
S11300D00C94FE020C94FE020C9499490C94CE49A3
S11300E00C94FE025E058605470D470D8105F40458
S11300F0470D41046F06E90BE90BE90BE90BE90B2A
S1130100E90BE506190B5309980B470DBF0AF908CB
S1130110A509F709F907AE08860BB106470D470D87
S11301202D065507A707470D470D400B630BE90B39
S1130130E90BE90BE90BE90BE90BE90BE90BE90B1B
S1130140E90B470D470DE90BE90BE90BE90BE90B4B
S1130150E90BE90BE90BE90BE90BE90BE90BE90BFB
S1130160E90B2A0424043204E90B4504AE04A9056E
S11301706804E8061A0AE90BE90BE90BE90BE90B39
S1130180E90B1C0B640A0B07D104E90BE90BB1035F
S11301903604E90BE90B8B03E90BE90BE90BE90BDB
S11301A0E90BFC03E90BD703E90BE90BE90BE90BBA
S11301B0E90BE90BE90BE90BE90BE90BE90BE90B9B
S11301C0E90BEB058B04256400494F20424F415253
S11301D04420444941474E4F5354494353004D61D1
S11301E0676E6574696320436172640044464D2000
S11301F044656275670054616E6B2047617567657D
S1130200730052656C6179732C2050756C73657240
S1130210732C2048616E646C65730043617264736F
S113022020726561643A202564202000282564201A
S113023063686172616374657273207265616429B5
S113024000446174613A20004E4F206B657920723E
S1130250657475726E732E00285465737420646F10
S11302606573206E6F7420636865636B20706172C0
S113027069747929004D61676E657469632043610F
S1130280726420546573740050453A20256C7500DF
S1130290424F3A20256C750046453A20256C75007E
S11302A0256C752062797465730044464D2053654E
S11302B07269616C2054657374002564004761752C
S11302C0676520256400256C7500312D383A526528
S11302D06C6179732020303A526573657420204E26
S11302E04F3A45786974000000002E0006000600AD
S11302F0143E143E1400282C761400241008240004
S1130300142A12280006001C2200221C000A040AD7
S113031000081C08004020000808080020002010E5
S1130320080402001C22221C00023E00322A2A2455
S113033000222A2A140018143E10002E2A2A1A0019
S11303401C2A2A100002320A0600142A2A14000465
S11303502A2A1C0014003400081422001414140067
S113036022140800022A0A04001C223A2A1C3C1205
S1130370123C003E2A2A14001C2222003E22221C87
S1130380003E2A2A003E0A0A001C222A3A003E089D
S1130390083E00223E22001020221E003E081422A5
S11303A0003E2020003E0408043E003E04083E00B7
S11303B01C22221C003E12120C001C22225C003E55
S11303C012122C00242A2A1200023E02001E2020AF
S11303D01E001E201806001E201C201E00360808C1
S11303E036000628281E00322A26003E2200020477
S11303F008102000223E00040204002020202000D7
S11304000204001824243C003E2424180018242448
S1130410001824243E0018342C0800083C0A001854
S1130420A4A47C003E040438003A00807A003E1004
S11304301824003E003C043C0438003C040438000A
S11304401824241800FC24241800182424FC003C3C
S1130450080400282C341400041E24001C20203C12
S1130460001C20100C001C201C201C00241824003C
S11304701CA0A07C0024342C2400083622003E005A
S113048022360800040204020000000003000500F4
S113049009000F00140019001E002000230026008C
S11304A02A002E003100350037003D00420045008F
S11304B04A004F00540059005E00630068006D005C
S11304C06F007100750079007D00820087008C0048
S11304D0910095009A009E00A200A700AC00B00015
S11304E0B500BA00BE00C400C900CE00D300D800D5
S11304F0DD00E200E600EB00F000F600FB00000186
S1130500040107010D011001140119011C0121014D
S113051026012A012F01340138013D014201440121
S113052047014C014E01540159015E016301680108
S11305306C01710175017A017F01850189018E01C8
S11305409301970199019D01A20103020406050587
S11305500502030304040304020605030505050557
S11305600505050502020404040505050504050442
S1130570040505040505040605050505050504052A
S1130580050605050403060304050305050405051E
S11305900405050203050206050505050405040511
S11305A00506040505040204050153797374656D99
S11305B020697320626F6F74696E672075702E2EC8
S11305C02E0011241FBECFEFD1E2DEBFCDBF12E05B
S11305D0A0E0B2E0E6E0FBE902C005900D92AC3386
S11305E0B107D9F72EE0ACE3B2E001C01D92A13708
S11305F0B207E1F70E94B8450C94814D0C940000B9
S11306000E9479490895CF93DF93EC010E944549F4
S1130610892B29F00E945A49888381E01AC01092DC
S1130620ED061092EC060E944549892B29F00E94A0
S11306305A49888381E00DC08091EC069091ED06C3
S113064001969093ED068093EC06803D97405CF311
S113065080E0DF91CF910895CF93DF93EC010E9466
S11306604549892B19F00E945A491BC01092ED0686
S11306701092EC060E944549892B19F00E945A49B0
S113068010C08091EC069091ED0601969093ED06D2
S11306908093EC06803D97406CF380E006C081E0D7
S11306A004C089938111DBCFFACFDF91CF910895F4
S11306B00F9300E020E048E060E076E980E090E01D
S11306C00E94A8480E942F3D90933F0280933E02CF
S11306D09C5F90933D0280933C020F910895FF929A
S11306E00F931F93CF93DF9300D0CDB7DEB70E9453
S11306F04549892B11F40C94470D0E945A4990E006
S1130700FC013197E137F10510F00C94E90BEE5838
S1130710FF4F0C943F4A0E944549892B31F00E94B7
S11307205A498093DA060C94F30B1092ED0610925A
S1130730EC060E944549892B31F00E945A49809366
S1130740DA060C94F30B8091EC069091ED06019679
S11307509093ED068093EC06803D974054F30C94FF
S1130760E90B0E944549892B31F00E945A49809334
S1130770DA060C94F90B1092ED061092EC060E9426
S11307804549892B31F00E945A498093DA060C942A
S1130790F90B8091EC069091ED0601969093ED068D
S11307A08093EC06803D974054F30C94E90B0E942F
S11307B04549892B31F00E945A498093DA060C94FA
S11307C0FE0B1092ED061092EC060E944549892B0F
S11307D031F00E945A498093DA060C94FE0B809102
S11307E0EC069091ED0601969093ED068093EC064D
S11307F0803D974054F3EDC70E944549892B31F061
S11308000E945A498093DA060C94090C1092ED0662
S11308101092EC060E944549892B29F00E945A49FE
S11308208093DA06F6C78091EC069091ED06019666
S11308309093ED068093EC06803D97405CF3C9C726
S11308400E94F10F0C94470D80E093E00E9445450F
S11308500C94470D0E94DD44811189E50E94794979
S11308600C94470D0E948B450C94470D1091EB0698
S11308708091EA060E947949812F0E9479490C945B
S1130880470D0E94F1460C94470D0E944549892B5F
S113089029F00E945A498093DA06C1C71092ED06E6
S11308A01092EC060E944549892B29F00E945A496E
S11308B08093DA06B4C78091EC069091ED06019618
S11308C09093ED068093EC06803D97405CF381C7DE
S11308D00E944549892B29F00E945A498093DA06DF
S11308E0A3C71092ED061092EC060E944549892B8D
S11308F029F00E945A498093DA0696C78091EC0643
S11309009091ED0601969093ED068093EC06803D60
S113091097405CF35EC70E944549892B29F00E94E9
S11309205A498093DA0687C71092ED061092EC06B6
S11309300E944549892B29F00E945A498093DA067E
S11309407AC78091EC069091ED0601969093ED069E
S11309508093EC06803D97405CF33BC70E94454979
S1130960892B29F00E945A498093DA066BC71092AA
S1130970ED061092EC060E944549892B29F00E944D
S11309805A498093DA065EC78091EC069091ED0691
S113099001969093ED068093EC06803D97405CF3BE
S11309A018C70E944549892B29F00E945A4980930F
S11309B0DA064FC71092ED061092EC060E944549E4
S11309C0892B29F00E945A498093DA0642C7809104
S11309D0EC069091ED0601969093ED068093EC065B
S11309E0803D97405CF3F5C60E944549892B21F070
S11309F00E945A49182F34C71092ED061092EC0643
S1130A000E944549892B21F00E945A49182F28C772
S1130A108091EC069091ED0601969093ED068093FB
S1130A20EC06803D974064F3D4C60E945A491EC721
S1130A301092ED061092EC060E944549892B19F09C
S1130A400E945A4913C78091EC069091ED060196D5
S1130A509093ED068093EC06803D97406CF3B9C605
S1130A600E944549892B21F00E945A49898301C774
S1130A701092ED061092EC060E944549892B21F054
S1130A800E945A498983F5C68091EC069091ED063F
S1130A9001969093ED068093EC06803D974064F3B5
S1130AA098C68981882309F494C6E2EDF6E0628150
S1130AB07381808191810E948646E9C70E944549DD
S1130AC0892B29F00E945A498093DA06D9C61092DC
S1130AD0ED061092EC060E944549892B29F00E94EC
S1130AE05A498093DA06CCC68091EC069091ED06C3
S1130AF001969093ED068093EC06803D97405CF35D
S1130B0068C60E941C430E947949C1C70E94454996
S1130B10892B29F00E945A498093DA06B8C61092AC
S1130B20ED061092EC060E944549892B29F00E949B
S1130B305A498093DA06ABC68091EC069091ED0693
S1130B4001969093ED068093EC06803D97405CF30C
S1130B5040C60E944549892B29F00E945A49809336
S1130B60DA06A9C61092ED061092EC060E944549D9
S1130B70892B29F00E945A498093DA069CC68091F9
S1130B80EC069091ED0601969093ED068093EC06A9
S1130B90803D97405CF31DC60E945A498093DB0652
S1130BA090C61092ED061092EC060E944549892BDE
S1130BB029F00E945A498093DB0683C68091EC0693
S1130BC09091ED0601969093ED068093EC06803D9E
S1130BD097405CF3FEC50E944549892B29F00E9489
S1130BE05A498093DA0674C61092ED061092EC0608
S1130BF00E944549892B29F00E945A498093DA06BC
S1130C0067C68091EC069091ED0601969093ED06EF
S1130C108093EC06803D97405CF3DBC50E945A4903
S1130C208093DD065BC61092ED061092EC060E94DE
S1130C304549892B29F00E945A498093DD064EC606
S1130C408091EC069091ED0601969093ED068093C9
S1130C50EC06803D97405CF3BCC50E944549892B56
S1130C6029F00E945A498093DC063FC61092ED0693
S1130C701092EC060E944549892B29F00E945A499A
S1130C808093DC0632C68091EC069091ED060196C5
S1130C909093ED068093EC06803D97405CF399C5F4
S1130CA00E945A498093DD06F2C61092ED06109216
S1130CB0EC060E944549892B29F00E945A498093E9
S1130CC0DD06E5C68091EC069091ED0601969093C1
S1130CD0ED068093EC06803D97405CF37AC50E9454
S1130CE04549892B29F00E945A498093DA0603C6A4
S1130CF01092ED061092EC060E944549892B29F0CA
S1130D000E945A498093DA06F6C58091EC069091C8
S1130D10ED0601969093ED068093EC06803D974096
S1130D205CF357C50E945A498093DB06EAC51092CA
S1130D30ED061092EC060E944549892B29F00E9489
S1130D405A498093DB06DDC58091EC069091ED064F
S1130D5001969093ED068093EC06803D97405CF3FA
S1130D6038C50E944549892B29F00E945A4980932D
S1130D70DD06CEC51092ED061092EC060E944549A0
S1130D80892B29F00E945A498093DD06C1C58091C0
S1130D90EC069091ED0601969093ED068093EC0697
S1130DA0803D97405CF315C582E596E00E94323D94
S1130DB0EAEDF6E08783869542E556E0638190E4A8
S1130DC0981B892F0E945A3D62C60E9437185FC63D
S1130DD00E944549892B29F00E945A498093DD06D7
S1130DE09FC51092ED061092EC060E944549892B8E
S1130DF029F00E945A498093DD0692C58091EC0641
S1130E009091ED0601969093ED068093EC06803D5B
S1130E1097405CF3DEC40E944549892B29F00E9467
S1130E205A498093DD0681C51092ED061092EC06B6
S1130E300E944549892B29F00E945A498093DD0676
S1130E4074C58091EC069091ED0601969093ED06A1
S1130E508093EC06803D97405CF3BBC40E945A49E2
S1130E608093DC0668C51092ED061092EC060E9491
S1130E704549892B29F00E945A498093DC065BC5B9
S1130E808091EC069091ED0601969093ED06809387
S1130E90EC06803D97405CF39CC4EAEDF6E04481A7
S1130EA0628183810E94C217F2C50E944549892B41
S1130EB029F00E945A498093DC0645C51092ED063C
S1130EC01092EC060E944549892B29F00E945A4948
S1130ED08093DC0638C58091EC069091ED0601966E
S1130EE09093ED068093EC06803D97405CF371C4CB
S1130EF00E945A498093DE062CC51092ED0610928A
S1130F00EC060E944549892B29F00E945A49809396
S1130F10DE061FC58091EC069091ED060196909334
S1130F20ED068093EC06803D97405CF352C480EE5E
S1130F3096E00E940303882309F44BC4EAEDF6E02B
S1130F4026814381648182810E94F014A0C50E949D
S1130F504549892B29F00E945A498093DC0601C532
S1130F601092ED061092EC060E944549892B29F057
S1130F700E945A498093DC06F4C48091EC06909157
S1130F80ED0601969093ED068093EC06803D974024
S1130F905CF31FC40E945A498093DD06E8C4109292
S1130FA0ED061092EC060E944549892B29F00E9417
S1130FB05A498093DD06DBC48091EC069091ED06DE
S1130FC001969093ED068093EC06803D97405CF388
S1130FD000C480EE96E00E940303882309F4F9C359
S1130FE0EAEDF6E026814581638182810E944815FD
S1130FF04EC50E944549892B29F00E945A49809385
S1131000DC06BDC41092ED061092EC060E94454920
S1131010892B29F00E945A498093DC06B0C4809140
S1131020EC069091ED0601969093ED068093EC0604
S1131030803D97405CF3CDC30E945A498093DD06FE
S1131040A4C41092ED061092EC060E944549892B27
S113105029F00E945A498093DD0697C48091EC06DA
S11310609091ED0601969093ED068093EC06803DF9
S113107097405CF3AEC382EE96E00E94030388239C
S113108009F4A7C384E492E0909341028093400260
S1131090EAEDF6E087819085899FC00111248C5B7D
S11310A09D4F90934302809342020E943C47609379
S11310B04E0670934F06809350069093510628C0B5
S11310C00E943C4700914E0610914F062091500615
S11310D030915106DC01CB01801B910BA20BB30BA9
S11310E08D3D9540A105B10508F073C30E944549A3
S11310F0892B71F00091400210914102C8010196C0
S113110090934102809340020E945A49F8018083DF
S11311102091400230914102809142029091430219
S11311202817390769F6A8E4B6E0EAEDF6E0878106
S113113090E011969C938E93808590E013969C93F7
S11311408E93129784E492E015969C938E93149751
S1131150AD01638182810E94E41799C40E944549CC
S1131160892B29F00E945A498093DC0616C41092F8
S1131170ED061092EC060E944549892B29F00E9445
S11311805A498093DC0609C48091EC069091ED06DF
S113119001969093ED068093EC06803D97405CF3B6
S11311A018C30E945A498093DD06FDC31092ED06D0
S11311B01092EC060E944549892B29F00E945A4955
S11311C08093DD06F0C38091EC069091ED060196C4
S11311D09093ED068093EC06803D97405CF3F9C252
S11311E0EAEDF6E042E556E0638182810E945A3DD1
S11311F04EC40E944549892B29F00E945A49809384
S1131200DC06D9C31092ED061092EC060E94454903
S1131210892B29F00E945A498093DC06CCC3809123
S1131220EC069091ED0601969093ED068093EC0602
S1131230803D97405CF3CDC20E945A498093DD06FD
S1131240C0C31092ED061092EC060E944549892B0A
S113125029F00E945A498093DD06B3C38091EC06BD
S11312609091ED0601969093ED068093EC06803DF7
S113127097405CF3AEC28FED96E00E94030388238F
S113128009F4A7C280EE96E00E940303882309F4C0
S1131290A0C2EAEDF6E00681258144816381828162
S11312A00E942017F4C30E944549892B29F00E940B
S11312B05A498093DC068DC31092ED061092EC0619
S11312C00E944549892B29F00E945A498093DC06E3
S11312D080C38091EC069091ED0601969093ED0603
S11312E08093EC06803D97405CF373C20E945A4998
S11312F08093DE0674C31092ED061092EC060E94F1
S11313004549892B29F00E945A498093DE0667C318
S11313108091EC069091ED0601969093ED068093F2
S1131320EC06803D97405CF354C280EE96E00E9448
S11313300303882309F44DC2EAEDF6E026814381D4
S1131340648182810E941C15A2C30E944549892B95
S113135029F00E945A498093DC0649C31092ED0695
S11313601092EC060E944549892B29F00E945A49A3
S11313708093DC063CC38091EC069091ED060196C7
S11313809093ED068093EC06803D97405CF321C278
S11313900E945A498093DD0630C31092ED061092E4
S11313A0EC060E944549892B29F00E945A498093F2
S11313B0DD0623C38091EC069091ED06019690938F
S11313C0ED068093EC06803D97405CF302C28FEDFE
S11313D096E00E940303882309F4FBC1EAEDF6E0DA
S11313E025814481638182810E947D1750C30E94BC
S11313F04549892B29F00E945A498093DD0605C38B
S11314001092ED061092EC060E944549892B29F0B2
S11314100E945A498093DD06F8C28091EC069091AF
S1131420ED0601969093ED068093EC06803D97407F
S11314305CF3CFC10E944549892B29F00E945A4987
S11314408093DD06E7C21092ED061092EC060E942E
S11314504549892B29F00E945A498093DD06DAC256
S11314608091EC069091ED0601969093ED068093A1
S1131470EC06803D97405CF3ACC10E945A498093CE
S1131480DC06CEC21092ED061092EC060E9445498D
S1131490892B29F00E945A498093DC06C1C28091AD
S11314A0EC069091ED0601969093ED068093EC0680
S11314B0803D97405CF38DC1EAEDF6E044816281A2
S11314C083810E94D217E3C20E943C4760934E0678
S11314D070934F0680935006909351060E942F3DBF
S11314E090933F0280933E023DC00E943C4700918E
S11314F04E0610914F062091500630915106DC01A2
S1131500CB01801B910BA20BB30B8D3D9540A10524
S1131510B105B0F0E0913E02F0913F0220913C020F
S113152030913D02E217F30709F4B1C2C9011192E7
S11315308E179F07E1F730933F0220933E02A7C224
S11315400E944549892B71F000913E0210913F029F
S1131550C801019690933F0280933E020E945A492B
S1131560F801808320913E0230913F0280913C0239
S113157090913D022817390709F0B7CF88C20E941D
S11315804549892B29F00E945A498093DC0650C2B0
S11315901092ED061092EC060E944549892B29F021
S11315A00E945A498093DC0643C28091EC069091D4
S11315B0ED0601969093ED068093EC06803D9740EE
S11315C05CF307C10E945A498093DD0637C210922A
S11315D0ED061092EC060E944549892B29F00E94E1
S11315E05A498093DD062AC28091EC069091ED065B
S11315F001969093ED068093EC06803D97405CF352
S1131600E8C08FED96E00E940303882309F4E1C04B
S113161080EE96E00E940303882309F4DAC0EAED21
S1131620F6E0068125814481638182810E94D4157C
S11316302EC20E9442182BC20E942F3DFC0190939F
S11316403F0280933E0280913C0290913D02E81754
S1131650F90709F41CC2CF01019690933F028093CD
S11316603E0280810E947949E0913E02F0913F025E
S113167080913C0290913D02E817F90761F707C297
S11316800E944549892B29F00E945A498093DA0621
S1131690DDC11092ED061092EC060E944549892B9B
S11316A029F00E945A498093DA06D0C18091EC0651
S11316B09091ED0601969093ED068093EC06803DA3
S11316C097405CF386C00E944549892B29F00E940B
S11316D05A498093DA06C8C11092ED061092EC06BE
S11316E00E944549892B29F00E945A498093DA06C1
S11316F0BBC18091EC069091ED0601969093ED06A6
S11317008093EC06803D97405CF363C082E596E0ED
S11317100E942C03882309F45CC082E596E00E94B1
S1131720323D192F0E947949812F0E947949AFC116
S11317300E944549892B29F00E945A498093DC066E
S113174098C11092ED061092EC060E944549892B2F
S113175029F00E945A498093DC068BC18091EC06E3
S11317609091ED0601969093ED068093EC06803DF2
S113177097405CF32EC00E945A498093DD067FC1D6
S11317801092ED061092EC060E944549892B29F02F
S11317900E945A498093DD0672C18091EC069091B3
S11317A0ED0601969093ED068093EC06803D9740FC
S11317B05CF30FC080EE96E00E940303882349F097
S11317C0EAEDF6E026814581638182810E948E15CF
S11317D05EC18091EA069091EB0601969093EB0628
S11317E08093EA0654C18091DA0680950E94794973
S11317F04EC10E94B6450E94794949C18091DA06DA
S11318000E94590F192F0E947949812F0E9479490A
S11318103EC18091DA06853509F039C111C880913D
S1131820DA060E940D0E33C18091DA060E94454605
S11318300E9479492CC18091DA060E94E40D0E942D
S1131840794925C18091DA060E941B460E94794994
S11318501EC18091DA060E9495420E94794917C1FF
S11318600E944549892B09F4E3C8DFC81111F8C85F
S1131870B0CFCE0102960E940303811112C9A9CFF1
S11318808091DA060E94A3420E94794900C18091A6
S1131890DA060E94160EF72E082F192F862F0E94A3
S11318A079498F2D0E947949802F0E947949812F8F
S11318B00E947949ECC00E944549892B09F471C9F9
S11318C06BC9EAEDF6E0618180810E942646DFC0A3
S11318D00E944549892B09F4A6C9A0C9EAEDF6E09E
S11318E0638180810E94CB0DD2C00E944549892B1F
S11318F009F4DBC9D5C90E944549892B09F417CAE3
S113190011CAEAEDF6E0618180810E94FE45BFC004
S113191082E596E00E942C03882309F45ACF44CA36
S11319208091DD060E94B417B2C00E944549892BFC
S113193009F499CA93CA8EED96E00E9403038823A2
S113194009F447CFAACA0E944549892B09F4D5CA8C
S1131950CFCA8DED96E00E940303882309F439CFA2
S1131960E6CA0E944549892B09F419CB13CB8FEDA4
S113197096E00E940303882309F42BCF2ACB0E940C
S11319804549892B09F45DCB57CB81EE96E00E9443
S11319900303882309F41DCF6ECB0E944549892B8C
S11319A009F404CCFECB82E596E00E942C03882344
S11319B009F40FCF15CC0E944549892B09F441CC79
S11319C03BCC8EED96E00E940303882309F401CFFB
S11319D052CC0E944549892B09F48DCC87CC8DEDDE
S11319E096E00E940303882309F4F3CE9ECC0E9460
S11319F04549892B09F4D1CCCBCC8EED96E00E94DD
S1131A000303882309F4E5CEE2CC8091DD060E942D
S1131A10A3173DC00E944549892B09F433CD2DCD30
S1131A208EED96E00E940303882309F4D2CE44CDC0
S1131A300E944549892B09F4CACDC4CD8EED96E0A8
S1131A400E940303882309F4C4CEDBCD8091DA0617
S1131A50FFE08F9FC001112464E670E00E94094AF0
S1131A60862F0E94971413C08091DA060E9497145F
S1131A700EC00E944549892B09F482CE7CCE8FED9D
S1131A8096E00E940303882309F4A3CE93CE0F901B
S1131A900F90DF91CF911F910F91FF9008950F93B5
S1131AA01F93CF93DF93CDB7DEB72B970FB6F89480
S1131AB0DEBF0FBECDBFE8ECF0E0808185FFFDCF37
S1131AC080E48093CE0087E893E10197F1F700C0AA
S1131AD000008BE0E0E0F2E0DE01119601900D924F
S1131AE08A95E1F760E0E8ECF0E00EEC10E070E5D8
S1131AF03BC0808185FFFDCFD8017C93808185FF29
S1131B00FDCF81E090E08C0F9D1F840F951FDC01B9
S1131B108C91D8018C931092EF061092EE0680817E
S1131B2088233CF40FC00196853FB1E09B0719F46C
S1131B3027C081E090E09093EF068093EE06208129
S1131B4022238CF7D8018C912C9130E081E090E035
S1131B508C0F9D1F480F591FDA018C918F5F90E005
S1131B602817390709F46F5F462F50E081E090E0B1
S1131B708C0F9D1F840F951FDC018C918111B9CFAF
S1131B802B960FB6F894DEBF0FBECDBFDF91CF9179
S1131B901F910F910895E8ECF0E0908195FFFDCF3F
S1131BA0982F90639093CE0095E89A95F1F70000F2
S1131BB0E8ECF0E0908195FFFDCF6093CE0090E0DB
S1131BC040960E94384D089590E040960E94304D12
S1131BD00895CF93F89482E08093C80088E18093BD
S1131BE0C90086E08093CA0089E190E09093CD001B
S1131BF08093CC0078940E944F0DC0E08C2F0E94FB
S1131C00E40D682F8F3F09F460E28C2F0E94CB0D06
S1131C10CF5FC83099F7CF910895E8ECF0E0908158
S1131C2095FFFDCF80628093CE000895E8ECF0E04C
S1131C30908195FFFDCF80618093CE001092EF06D6
S1131C401092EE068091C80088233CF411C00196DE
S1131C50853F21E0920729F463C081E090E0E8EC3D
S1131C60F0E09093EF068093EE06208122237CF728
S1131C706091CE001092EF061092EE068091C8009B
S1131C8088233CF411C00196853F21E0920729F492
S1131C904CC081E090E0E8ECF0E09093EF06809394
S1131CA0EE06208122237CF77091CE001092EF067D
S1131CB01092EE068091C80088233CF411C001966E
S1131CC0853F21E0920729F435C081E090E0E8ECFB
S1131CD0F0E09093EF068093EE06208122237CF7B8
S1131CE08091CE001092EF061092EE069091C800FB
S1131CF0992344F412C02F5F3F4F253F91E03907E9
S1131D0029F41DC021E030E0E8ECF0E03093EF0668
S1131D102093EE069081992374F79091CE00089554
S1131D2060E070E080E090E0089560E070E080E0C2
S1131D3090E0089560E070E080E090E0089560E055
S1131D4070E080E090E008954F925F926F927F92EE
S1131D508F929F92AF92BF92CF92DF92EF92FF92B7
S1131D600F931F93CF93DF930E943C476B017C0139
S1131D700F2EF9E0AF2EF7E0BF2EF02D07E117E0AC
S1131D800F2EFFEE4F2EFEEB5F2EFDEA6F2EFEEDC3
S1131D907F2EF02D99249394CEE3D7E00E943C4704
S1131DA0DC01CB018C199D09AE09BF09883C910562
S1131DB0A105B10508F069C080910807882321F0C6
S1131DC0813009F457C05AC08091060781115FC061
S1131DD00E94E447892B09F451C0F5018181808375
S1131DE082818183838182830E94F947F501838301
S1131DF08091090790910A07A0910B07B0910C07F5
S1131E008F3E9E4BAD4ABE4DC9F5F80140825182CA
S1131E106282738210920707909208072FC0809005
S1131E20070781E0880D809307070E94F947E82D92
S1131E30F0E0E55EF84F8083809107078432D1F4A7
S1131E4010920807EBE1F7E080E09191890FEC171D
S1131E50FD07D9F7F80197A1891751F0809104077C
S1131E60909105070196909305078093040706C097
S1131E70909206070E94E447892B89F68091060711
S1131E80882309F48BCF81E003C080E001C081E0A6
S1131E90DF91CF911F910F91FF90EF90DF90CF9042
S1131EA0BF90AF909F908F907F906F905F904F9076
S1131EB00895FF920F931F93CF93DF93F82E809191
S1131EC0000790910107A0910207B0910307892BA5
S1131ED08A2B8B2BA9F00E943C470091000710919C
S1131EE001072091020730910307DC01CB01801B1D
S1131EF0910BA20BB30B853F9140A105B105E0F115
S1131F00EDE0F7E08FEE9EEBADEABEED80839183CA
S1131F10A283B3838BE78483858317821682118619
S1131F201086EF0107E117E089910E941848C01755
S1131F30D107D1F70E94A40E8823A1F0E7E1F7E0CE
S1131F40A0EFB6E047E257E0808590E0982F88271D
S1131F502781822B8D939D933296E417F507A1F781
S1131F60109206070E943C47609300077093010794
S1131F708093020790930307EF2DF0E0EE0FFF1F0D
S1131F80E051F94F80819181DF91CF911F910F91A1
S1131F90FF9008950F931F93CF93DF93EDE0F7E045
S1131FA08FEE9EEBADEABEED80839183A283B38373
S1131FB08CEA848385831782168211861086EF014A
S1131FC007E117E089910E941848C017D107D1F79B
S1131FD0DF91CF911F910F9108958BEF0E941848C4
S1131FE008950F931F93CF93DF93EDE0F7E08FEE07
S1131FF09EEBADEABEED80839183A283B3838CEA2A
S1132000848385831782168211861086EF0107E187
S113201017E089910E941848C017D107D1F7C0E092
S11320200E944549892BC1F00E945A498B3F910572
S113203099F48BEF0E94184814C00E94F9470E943B
S11320407949CF5FC03241F443E46CE385E00E94F8
S1132050D2170E944218C0E00E94E447892B69F716
S1132060DFCFDF91CF911F910F9108950F9300E07F
S113207020E048E060E076E980E090E00E94474795
S11320800F910895CF92DF92EF92FF920F931F93D7
S1132090CF93DF930E94371849EC51E060E080E071
S11320A00E940B3F80913F07882309F440C010E051
S11320B00F2EF6ECEF2EF1E0FF2EF02D6894CC24D9
S11320C0C2F80F2EFCE0DF2EF02DC12FD0E0CE01A0
S11320D00296082F000F000F000F01979F938F9314
S11320E0FF92EF920F93CF920E94D14049E063E0B8
S11320F082E0810F0E94D217CC0FDD1FCC0FDD1FB1
S1132100C65BD14F8B818F938A818F930F93DF921C
S11321100E94D1401F5F8DB79EB70A960FB6F89400
S11321209EBF0FBE8DBF80913F07181770F20E94AB
S11321304218DF91CF911F910F91FF90EF90DF90A4
S1132140CF9008952F923F924F925F926F927F9219
S11321508F929F92AF92BF92CF92DF92EF92FF92B3
S11321600F931F93CF93DF9300D000D0CDB7DEB78A
S113217019821A821B8210E0812F0E940D0E1F5FAC
S11321801830D1F70E9437184AEC52E068E380E037
S11321900E940B3F87E00E94A317412C512C32016F
S11321A0812C912CA12CBB24B3941C820F2EF6EC11
S11321B0CF2EF2E0DF2EF02D0E941C431FEC180FEF
S11321C0183050F4812F0E941B466B2D81116C81B5
S11321D0812F0E94FE4511C0803361F410E0812FED
S11321E00E940D0E1F5F1830D1F7412C582C692C1A
S11321F07A2C03C08E3409F49DC00E943C47DC0154
S1132200CB0184199509A609B709C397A105B1059E
S113221098F285E00E94B41786E00E94B41788E41F
S113222089830BE112E07801412C81E3840D8A83D8
S1132230F70131907F01AE014F5F5F4F68E282E0AA
S1132240830D0E945A3D842D0E94A342882339F0B5
S1132250F70140814150632D85E00E94D2174394D9
S1132260F8E04F12E2CF82E58983F12C81E38F0DF0
S11322708A83F801E1908F01AE014F5F5F4F60E305
S113228082E08E0D0E945A3D8F2D0E941B468823AA
S113229039F0F801408141506E2D86E00E94D2173A
S11322A0F394F8E0FF12E2CF80E00E94B41781E0DB
S11322B00E94B41782E00E94B41783E00E94B4170E
S11322C080E589830F2EF3E1EF2EF2E0FF2EF02D4F
S11322D00BE012E0412C81E3840D8A83F701219005
S11322E07F01F80131908F01AE014F5F5F4F622D86
S11322F0832D0E945A3D842D0E94160E9F938F9326
S11323007F936F93DF92CF922F928CE0830D8F9304
S11323100E94D14043940FB6F894DEBF0FBECDBFE8
S113232098E04912D8CF0E9442180E943C472B01E2
S11323303C0142CF10E060E0812F0E94FE451F5F08
S11323401830C9F70F900F900F900F90DF91CF9135
S11323501F910F91FF90EF90DF90CF90BF90AF90BF
S11323609F908F907F906F905F904F903F902F90B1
S113237008958F929F92BF92CF92DF92EF92FF9235
S11323800F931F93CF930E943718C12CD12C760141
S11323900DEB12E00F2EFAEB8F2EF2E09F2EF02DB4
S11323A00F2EF8E2BF2EF02D0E941C438E34D1F183
S11323B00E943C47DC01CB018C199D09AE09BF0981
S11323C085369105A105B10578F30E943718C0E060
S11323D0E12CF12CFF92EF921F930F93CF931F9256
S11323E00E94D1408E2D0E94590F9F938F939F92EC
S11323F08F92CF93BF920E94D1408FEFE81AF80AD0
S1132400C85F8DB79EB70C960FB6F8949EBF0FBEEB
S11324108DBFC034F9F60E9442180E943C476B01FC
S11324207C01C2CFCF911F910F91FF90EF90DF906D
S1132430CF90BF909F908F9008952F923F924F928C
S11324405F926F927F928F929F92AF92BF92CF9240
S1132450DF92EF92FF920F931F93CF93DF93CDB749
S1132460DEB728970FB6F894DEBF0FBECDBF0E942B
S113247037184AEA52E060E080E00E940B3F0E9475
S113248042180E94CA0F412C512C3201812C912CEC
S11324905401C12CD12C76011D821E821F82188604
S11324A019821A821B821C8210E208E20F2EF8E8BD
S11324B02F2EF2E03F2EF02D0E94E447892B71F07D
S11324C00E94F9472D813E814F8158852F5F3F4FF0
S11324D04F4F5F4F2D833E834F835887A0ECB0E06E
S11324E08C9184FF05C0BFEFCB1ADB0AEB0AFB0A11
S11324F083FF05C0EFEF4E1A5E0A6E0A7E0A82FF62
S113250005C0FFEF8F1A9F0AAF0ABF0A0E941C433F
S11325108E3409F46DC0893589F4412C512C320173
S1132520812C912C5401C12CD12C76011D821E8248
S11325301F82188619821A821B821C820E943C47C1
S1132540DC01CB0129813A814B815C81821B930B95
S1132550A40BB50B85369105A105B10508F4ACCFE4
S113256083E00E94B41784E00E94B41738853F9337
S11325704F814F935E815F938D818F93A0EAB2E088
S1132580BF93AF93F8E1FF931F920E94D140FF9253
S1132590EF92DF92CF9228E932E03F932F931F937B
S11325A01F920E94D1407F926F925F924F9280E976
S11325B092E09F938F931F930F930E94D140BF92F9
S11325C0AF929F928F923F922F921F93B0E5BF9349
S11325D00E94D1400FB6F894DEBF0FBECDBF0E945B
S11325E042180E943C4769837A838B839C8364CF1F
S11325F00E94ED0F28960FB6F894DEBF0FBECDBF34
S1132600DF91CF911F910F91FF90EF90DF90CF90CA
S1132610BF90AF909F908F907F906F905F904F90FE
S11326203F902F9008952F923F924F925F926F9216
S11326307F928F929F92AF92BF92CF92DF92EF924E
S1132640FF920F931F93CF93DF93CDB7DEB7C2549E
S1132650D1090FB6F894DEBF0FBECDBF0E94371864
S113266045E752E060E080E00E940B3F48E552E01D
S113267068E080E00E940B3F48E452E068E380E0B9
S11326800E940B3F0E94421800E020E048E060E016
S113269072EC81E090E00E944747812C912CCE019E
S11326A001967C010F2EF1E46F2EF2E07F2EF02DC7
S11326B00F2EF8E12F2EF02D5E0191E4A90EB11C2E
S11326C03A2C4B2C0E94DD44882309F47FC069E135
S11326D070E088E998E00E948646C7010E94E444BD
S11326E083E50E94184888E198E40E94454585E402
S11326F00E94184883E00E94B41784E00E94B41733
S113270085E00E94B41786E00E94B4177F926F920E
S11327102F921F920E94D1408C01F50110821182E8
S11327200F900F900F900F90512C0F2EF8E1CF2E99
S1132730D12CF02D1DC0F701E50DF11D8081F501AF
S11327408083832D942D0E94323D800F911F803809
S1132750910528F0F8E0CF0ED11C00E010E0432DE5
S1132760542D6C2D802F0E945A3D080F191F53942D
S1132770F70101900020E9F73197EE19FF09852D43
S113278090E08E179F07B8F2FF93EF938CE292E0EC
S11327909F938F93F8E2FF931F920E94D1409F92E0
S11327A08F928BE192E09F938F93F0E3FF931F92BC
S11327B00E94D1400E9442180E948B452FEF821A3A
S11327C0920A0FB6F894DEBF0FBECDBF0E941C4321
S11327D08E3431F0803309F075CF0E948B4572CF6F
S11327E0CE5BDF4F0FB6F894DEBF0FBECDBFDF91D7
S11327F0CF911F910F91FF90EF90DF90CF90BF90FA
S1132800AF909F908F907F906F905F904F903F908C
S11328102F900895CF92DF92EF92FF92CF930E9470
S11328203C476B017C01C0E005C00E941C43C82FDB
S11328308E3481F00E943C47DC01CB018C199D0948
S1132840AE09BF09843F9140A105B10570F3CC23C3
S113285009F467C080913F07E82FF0E0EE0FFF1FF7
S1132860EE0FFF1FE65BF14F22EA30E13183208354
S113287022E032E033832283E1E0E80FF0E0EE0F60
S1132880FF1FEE0FFF1FE65BF14F29EB31E13183B0
S1132890208326EF31E033832283E2E0E80FF0E087
S11328A0EE0FFF1FEE0FFF1FE65BF14F2DE132E14C
S11328B0318320832CEE31E033832283E3E0E80F7D
S11328C0F0E0EE0FFF1FEE0FFF1FE65BF14F23E179
S11328D033E1318320832EED31E0338322838C5F17
S11328E080933F070E9442100E941C438133E0F30F
S11328F090E020913F0730E0205D3F4F28173907D3
S11329009CF3880F991F880F991FFC01EA57F24F17
S11329100190F081E02D80E090E009950E94421042
S1132920E3CFCF91FF90EF90DF90CF900895E8E050
S1132930F1E090819064908390819F77908380955B
S11329408F70806482B98081806880830895E8E014
S1132950F1E090819064908390819F7790838C7054
S1132960806282B980818068808380818F77808350
S113297062B98081806880830895E8E0F1E0908105
S11329809064908390819F77908394E692B990812C
S11329909068908390819F77908382B980818068CA
S11329A0808380818F77808380E682B9808180688C
S11329B0808380818F77808362B9808180688083FF
S11329C00895E8E0F1E090819064908390819F778E
S11329D090838C70806882B9808180688083089538
S11329E0681748F1A42FA695A695A69590E8A99FE7
S11329F0D0011124942F977041E050E002C0440F9D
S1132A00551F9A95E2F7342F4095222349F0FD0192
S1132A10E80FF11DE05CF84F9081932B908308C080
S1132A20FD01E80FF11DE05CF84F90819423908341
S1132A308E5F681750F70895681748F1A42FA6957C
S1132A40A695A69590E8A99FD0011124942F97707C
S1132A5041E050E002C0440F551F9A95E2F7342F2D
S1132A604095222349F0FD01E80FF11DE05CF84F89
S1132A709081932B908308C0FD01E80FF11DE05C69
S1132A80F84F9081942390838F5F681750F70895CF
S1132A900F931F93CF93DF934617D8F1C82FD0E03D
S1132AA001E010E02223C9F0862F8695869586954D
S1132AB0FE0190E8899FE00DF11D1124E05CF84FC0
S1132AC03081862F8770D80102C0AA0FBB1F8A9558
S1132AD0E2F7CD01832B808319C0862F86958695D6
S1132AE08695FE01B0E88B9FE00DF11D1124E05C9A
S1132AF0F84F3081862F8770D80102C0AA0FBB1F00
S1132B008A95E2F79A2F9095932390836E5F4617E8
S1132B1048F6DF91CF911F910F9108950F931F9362
S1132B20CF93DF934617D8F1C82FD0E001E010E02F
S1132B302223C9F0862F869586958695FE0190E816
S1132B40899FE00DF11D1124E05CF84F3081862F40
S1132B508770D80102C0AA0FBB1F8A95E2F7CD0186
S1132B60832B808319C0862F869586958695FE01D2
S1132B70B0E88B9FE00DF11D1124E05CF84F30812B
S1132B80862F8770D80102C0AA0FBB1F8A95E2F76F
S1132B909A2F9095932390836F5F461748F6DF91A1
S1132BA0CF911F910F910895AF92BF92CF92DF9270
S1132BB0EF92FF920F931F93CF93DF93002309F4B7
S1132BC044C0A62FA695A695A69530E8A39FD0014C
S1132BD01124E82EF12CFD01EE0DFF1DE05CF84FF1
S1132BE09081362F3770C1E0D0E05E0102C0AA0C9C
S1132BF0BB1C3A95E2F79A299083E22FE695E69575
S1132C00E69570E8E79F60011124F701EC0DFD1DC6
S1132C10E05CF84F9081322F377002C0CC0FDD1F7B
S1132C203A95E2F79C2B9083E42FF0E0AE0FBF1FA0
S1132C30A05CB84F9C91A92AAC92EC0DFD1DE05C00
S1132C40F84F9081C92BC08348C0C62FC695C6953E
S1132C50C69570E8C79FE0011124A82FB0E07E015B
S1132C60EA0EFB1EF701E05CF84F3081962F977057
S1132C70AA24A394B12C650102C0CC0CDD1C9A9546
S1132C80E2F79C2D909539233083E22EE694E69466
S1132C90E694F0E8EF9E70011124AE0DBF1DA05C18
S1132CA0B84F3C91522F5770F50102C0EE0FFF1F31
S1132CB05A95E2F7E0953E233C93A42FB0E0CA0F67
S1132CC0DB1FC05CD84F388193239883AE0DBF1DA2
S1132CD0A05CB84F9C91E923EC9391E0980F941772
S1132CE008F04FC0E62EE694E694E69430E8E39EBE
S1132CF070011124362F3770E1E0F0E0DF0102C0EB
S1132D00AA0FBB1F3A95E2F71A2FC22FC695C69594
S1132D10C69570E8C79FE0011124322F377002C0B6
S1132D20EE0FFF1F3A95E2F77E2F5A2F50953E2F54
S1132D303095002391F0E92FF0E0D701AE0FBF1FCB
S1132D40A05CB84FDC90D12ADC92EC0FFD1FE05C54
S1132D50F84FA081A72BA08311C0E92FF0E0D70181
S1132D60AE0FBF1FA05CB84FDC90D522DC92EC0FF5
S1132D70FD1FE05CF84FA081A323A0839F5F49134C
S1132D80D8CF6F5F621708F050C090E0A1E0B0E0C8
S1132D9050E0002311F1E62FE695E695E695C0E8AC
S1132DA0EC9FF00111247C01EE0EFF1EE701C05CD4
S1132DB0D84F3881762F77706D0102C0CC0CDD1CA2
S1132DC07A95E2F73C293883E40FF51FE05CF84F6D
S1132DD03081CC2DC32BC08325C0E62FE695E69524
S1132DE0E695D0E8ED9FF00111247C01EE0EFF1E64
S1132DF0E701C05CD84F7E013881762F7770ED01F2
S1132E0002C0CC0FDD1F7A95E2F77C2F7095372333
S1132E10E7013883E40FF51FE05CF84F3081C72FDA
S1132E20C323C0836F5F2613B4CFDF91CF911F916B
S1132E300F91FF90EF90DF90CF90BF90AF900895E7
S1132E400F93CF93DF938F776F734F772F730111A6
S1132E5003C02617B0F54DC0261780F44AC0FD0103
S1132E60E90FF11DE05CF84F3081352B30839F5F13
S1132E704917A8F76F5F261710F43BC071E0481795
S1132E80C8F3A62FA695A695A69590E8A99FD0016C
S1132E901124962F9770572F01C0550F9A95EAF772
S1132EA0982FDDCFFD01E90FF11DE05CF84F308173
S1132EB0352330839F5F4917A8F76F5F261718F4EF
S1132EC018C0C1E0D0E04817C0F3A62FA695A69578
S1132ED0A69590E8A99FD0011124962F9770FE0122
S1132EE002C0EE0FFF1F9A95E2F75E2F5095982FC0
S1132EF0D9CFDF91CF910F910895261780F40895CB
S1132F00FD01E90FF11DE05CF84F30813527308376
S1132F109F5F4917A8F76F5F261710F4089571E0B3
S1132F204817C8F3A62FA695A695A69590E8A99F3D
S1132F30D0011124962F9770572F01C0550F9A95E1
S1132F40EAF7982FDDCF20E8829FC0011124FC010D
S1132F50E05CF84F9C012054384F908190959193F8
S1132F60E217F307D1F7089520E8829FC0011124E6
S1132F70FC01E05CF84F8054984F1192E817F90770
S1132F80E1F70895461768F020E8829FC0011124F4
S1132F90FC01E60FF11DE05CF84F10826F5F4617ED
S1132FA0B8F70895461778F090E8899F90011124A6
S1132FB0F901E60FF11DE05CF84F90819095908344
S1132FC06F5F4617A8F708958F929F92AF92BF92B2
S1132FD0CF92DF92EF92FF920F931F93CF93DF93E1
S1132FE04A01EA01A8809A81AA20A1F1A82FB0E0A1
S1132FF0B12C40E050E0E62EF12C0FEF090F10E069
S11330000F5F1F4F24C09A0180E0B701641B750B4A
S1133010FB01E20FF31FF695FE2FEE27F795E795D8
S1133020EA0FFB1FE05CF84FE401CC80DD80C20EA8
S1133030D31EE601D880D0828F5F2F5F3F4F981355
S1133040E7CF400F511FB3941196AB1419F09111AF
S1133050DACFF9CFDF91CF911F910F91FF90EF90CD
S1133060DF90CF90BF90AF909F908F90089580E0B5
S113307094E0E0E4F7E0DF019C011D922150304030
S1133080E1F70895CF93DF9360E080E00E94BD14E0
S1133090E8E0F1E080818F7B808380818F7780837B
S11330A0A0E4B7E08C9182B98081806880838081BC
S11330B08F77808311968C91119782B98081806873
S11330C0808380818F77808312968C91129782B946
S11330D080818068808380818F77808313968C9130
S11330E0139782B980818068808380818F77808301
S11330F014968C91149782B9808180688083808132
S11331008F77808315968C91159782B9808180681A
S1133110808380818F77808316968C91169782B9ED
S113312080818068808380818F77808317968C91DB
S1133130179782B980818068808380818F778083AC
S113314018968C91189782B98081806880838081D9
S11331508F77808319968C91199782B980818068C2
S1133160808380818F7780831A968C911A9782B995
S113317080818068808380818F7780831B968C9187
S11331801B9782B980818068808380818F77808358
S11331901C968C911C9782B9808180688083808181
S11331A08F7780831D968C911D9782B9808180686A
S11331B0808380818F7780831E968C911E9782B93D
S11331C080818068808380818F7780831F968C9133
S11331D01F9782B980818068808380818F77808304
S11331E050968C91509782B98081806880838081C9
S11331F08F77808351968C91519782B980818068B2
S1133200808380818F77808352968C91529782B984
S113321080818068808380818F77808353968C91AE
S1133220539782B980818068808380818F7780837F
S113323054968C91549782B9808180688083808170
S11332408F77808355968C91559782B98081806859
S1133250808380818F77808356968C91569782B92C
S113326080818068808380818F77808357968C915A
S1133270579782B980818068808380818F7780832B
S113328058968C91589782B9808180688083808118
S11332908F77808359968C91599782B98081806801
S11332A0808380818F7780835A968C915A9782B9D4
S11332B080818068808380818F7780835B968C9106
S11332C05B9782B980818068808380818F778083D7
S11332D05C968C915C9782B98081806880838081C0
S11332E08F7780835D968C915D9782B980818068A9
S11332F0808380818F7780835E968C915E9782B97C
S113330080818068808380818F7780835F968C91B1
S11333105F9782B980818068808380818F77808382
S113332090968C91909782B9808180688083808107
S11333308F77808391968C91919782B980818068F0
S1133340808380818F77808392968C91929782B9C3
S113335080818068808380818F77808393968C912D
S1133360939782B980818068808380818F778083FE
S113337094968C91949782B98081806880838081AF
S11333808F77808395968C91959782B98081806898
S1133390808380818F77808396968C91969782B96B
S11333A080818068808380818F77808397968C91D9
S11333B0979782B980818068808380818F778083AA
S11333C098968C91989782B9808180688083808157
S11333D08F77808399968C91999782B98081806840
S11333E0808380818F7780839A968C919A9782B913
S11333F080818068808380818F7780839B968C9185
S11334009B9782B980818068808380818F77808355
S11334109C968C919C9782B98081806880838081FE
S11334208F7780839D968C919D9782B980818068E7
S1133430808380818F7780839E968C919E9782B9BA
S113344080818068808380818F7780839F968C9130
S11334509F9782B980818068808380818F77808301
S1133460D0968C91D09782B9808180688083808146
S11334708F778083D1968C91D19782B9808180682F
S1133480808380818F778083D2968C91D29782B902
S113349080818068808380818F778083D3968C91AC
S11334A0D39782B980818068808380818F7780837D
S11334B0D4968C91D49782B98081806880838081EE
S11334C08F778083D5968C91D59782B980818068D7
S11334D0808380818F778083D6968C91D69782B9AA
S11334E080818068808380818F778083D7968C9158
S11334F0D79782B980818068808380818F77808329
S1133500D8968C91D89782B9808180688083808195
S11335108F778083D9968C91D99782B9808180687E
S1133520808380818F778083DA968C91DA9782B951
S113353080818068808380818F778083DB968C9103
S1133540DB9782B980818068808380818F778083D4
S1133550DC968C91DC9782B980818068808380813D
S11335608F778083DD968C91DD9782B98081806826
S1133570808380818F778083DE968C91DE9782B9F9
S113358080818068808380818F778083DF968C91AF
S113359082B980818068808380818F7780838091E5
S11335A0800782B980818068808380818F7780835F
S11335B08091810782B980818068808380818F7740
S11335C080838091820782B9808180688083808132
S11335D08F7780838091830782B98081806880831C
S11335E080818F7780838091840782B9808180680D
S11335F0808380818F7780838091850782B98081E1
S11336008068808380818F7780838091860782B9E8
S1133610C8E0D1E088818068888388818F77888337
S11336208091870782B988818068888388818F77B1
S113363088838091880782B988818068888388819B
S11336408F7788838091890782B98881806888838D
S113365088818F77888380918A0782B9888180687E
S1133660888388818F77888380918B0782B988814A
S11336708068888388818F77888380918C0782B95A
S113368088818068888388818F77888380918D077B
S113369082B988818068888388818F7788838091C4
S11336A08E0782B988818068888388818F77888330
S11336B080918F0782B988818068888388818F7719
S11336C088838091900782B9888180688883888103
S11336D08F7788838091910782B9888180688883F5
S11336E088818F7788838091920782B988818068E6
S11336F0888388818F7788838091930782B98881B2
S11337008068888388818F7788838091940782B9C1
S113371088818068888388818F77888380919507E2
S113372082B988818068888388818F778883809133
S1133730960782B988818068888388818F77888397
S11337408091970782B988818068888388818F7780
S113375088838091980782B988818068888388816A
S11337608F7788838091990782B98881806888835C
S113377088818F77888380919A0782B9888180684D
S1133780888388818F77888380919B0782B9888119
S11337908068888388818F77888380919C0782B929
S11337A088818068888388818F77888380919D074A
S11337B082B988818068888388818F7788838091A3
S11337C09E0782B988818068888388818F778883FF
S11337D080919F0782B988818068888388818F77E8
S11337E088838091A00782B98881806888838881D2
S11337F08F7788838091A10782B9888180688883C4
S113380088818F7788838091A20782B988818068B4
S1133810888388818F7788838091A30782B9888180
S11338208068888388818F7788838091A40782B990
S113383088818068888388818F7788838091A507B1
S113384082B988818068888388818F778883809112
S1133850A60782B988818068888388818F77888366
S11338608091A70782B988818068888388818F774F
S113387088838091A80782B9888180688883888139
S11338808F7788838091A90782B98881806888832B
S113389088818F7788838091AA0782B9888180681C
S11338A0888388818F7788838091AB0782B98881E8
S11338B08068888388818F7788838091AC0782B9F8
S11338C088818068888388818F7788838091AD0719
S11338D082B988818068888388818F778883809182
S11338E0AE0782B988818068888388818F778883CE
S11338F08091AF0782B988818068888388818F77B7
S113390088838091B00782B98881806888838881A0
S11339108F7788838091B10782B988818068888392
S113392088818F7788838091B20782B98881806883
S1133930888388818F7788838091B30782B988814F
S11339408068888388818F7788838091B40782B95F
S113395088818068888388818F7788838091B50780
S113396082B988818068888388818F7788838091F1
S1133970B60782B988818068888388818F77888335
S11339808091B70782B988818068888388818F771E
S113399088838091B80782B9888180688883888108
S11339A08F7788838091B90782B9888180688883FA
S11339B088818F7788838091BA0782B988818068EB
S11339C0888388818F7788838091BB0782B98881B7
S11339D08068888388818F7788838091BC0782B9C7
S11339E088818068888388818F7788838091BD07E8
S11339F082B988818068888388818F778883809161
S1133A00BE0782B988818068888388818F7788839C
S1133A108091BF0782B988818068888361E080E0F3
S1133A200E94BD1488818F7B888388818F778883E7
S1133A308091C00782B988818068888388818F7764
S1133A4088838091C10782B988818068888388814E
S1133A508F7788838091C20782B988818068888340
S1133A6088818F7788838091C30782B98881806831
S1133A70888388818F7788838091C40782B98881FD
S1133A808068888388818F7788838091C50782B90D
S1133A9088818068888388818F7788838091C6072E
S1133AA082B988818068888388818F7788838091B0
S1133AB0C70782B988818068888388818F778883E3
S1133AC08091C80782B9809108018068E8E0F1E03C
S1133AD0808380818F7780838091C90782B98081B8
S1133AE08068808380818F7780838091CA0782B9C0
S1133AF080818068808380818F7780838091CB07E9
S1133B0082B980818068808380818F77808380916F
S1133B10CC0782B980818068808380818F7780839D
S1133B208091CD0782B980818068808380818F777E
S1133B3080838091CE0782B9808180688083808170
S1133B408F7780838091CF0782B98081806880835A
S1133B5080818F7780838091D00782B9808180684B
S1133B60808380818F7780838091D10782B980811F
S1133B708068808380818F7780838091D20782B927
S1133B8080818068808380818F7780838091D30750
S1133B9082B980818068808380818F7780838091DF
S1133BA0D40782B980818068808380818F77808305
S1133BB08091D50782B980818068808380818F77E6
S1133BC080838091D60782B98081806880838081D8
S1133BD08F7780838091D70782B9808180688083C2
S1133BE080818F7780838091D80782B980818068B3
S1133BF0808380818F7780838091D90782B9808187
S1133C008068808380818F7780838091DA0782B98E
S1133C1080818068808380818F7780838091DB07B7
S1133C2082B980818068808380818F77808380914E
S1133C30DC0782B980818068808380818F7780836C
S1133C408091DD0782B980818068808380818F774D
S1133C5080838091DE0782B980818068808380813F
S1133C608F7780838091DF0782B980818068808329
S1133C7080818F7780838091E00782B9808180681A
S1133C80808380818F7780838091E10782B98081EE
S1133C908068808380818F7780838091E20782B9F6
S1133CA080818068808380818F7780838091E3071F
S1133CB082B980818068808380818F7780838091BE
S1133CC0E40782B980818068808380818F778083D4
S1133CD08091E50782B980818068808380818F77B5
S1133CE080838091E60782B98081806880838081A7
S1133CF08F7780838091E70782B980818068808391
S1133D0080818F7780838091E80782B98081806881
S1133D10808380818F7780838091E90782B9808155
S1133D208068808380818F7780838091EA0782B95D
S1133D3080818068808380818F7780838091EB0786
S1133D4082B980818068808380818F77808380912D
S1133D50EC0782B980818068808380818F7780833B
S1133D608091ED0782B980818068808380818F771C
S1133D7080838091EE0782B980818068808380810E
S1133D808F7780838091EF0782B9808180688083F8
S1133D9080818F7780838091F00782B980818068E9
S1133DA0808380818F7780838091F10782B98081BD
S1133DB08068808380818F7780838091F20782B9C5
S1133DC080818068808380818F7780838091F307EE
S1133DD082B980818068808380818F77808380919D
S1133DE0F40782B980818068808380818F778083A3
S1133DF08091F50782B980818068808380818F7784
S1133E0080838091F60782B9808180688083808175
S1133E108F7780838091F70782B98081806880835F
S1133E2080818F7780838091F80782B98081806850
S1133E30808380818F7780838091F90782B9808124
S1133E408068808380818F7780838091FA0782B92C
S1133E5080818068808380818F7780838091FB0755
S1133E6082B980818068808380818F77808380910C
S1133E70FC0782B980818068808380818F7780830A
S1133E808091FD0782B980818068808380818F77EB
S1133E9080838091FE0782B98081806880838081DD
S1133EA08F7780838091FF0782B9808180688083C7
S1133EB080818F7780838091000882B980818068B7
S1133EC0808380818F7780838091010882B980818B
S1133ED08068808380818F7780838091020882B993
S1133EE080818068808380818F77808380910308BC
S1133EF082B980818068808380818F77808380917C
S1133F00040882B980818068808380818F77808370
S1133F108091050882B980818068808380818F7751
S1133F2080838091060882B9808180688083808143
S1133F308F7780838091070882B98081806880832D
S1133F4080818F7780838091080882B9808180681E
S1133F50808380818F7780838091090882B98081F2
S1133F608068808380818F77808380910A0882B9FA
S1133F7080818068808380818F77808380910B0823
S1133F8082B988818068888388818F7788838091CB
S1133F900C0882B988818068888388818F778883B8
S1133FA080910D0882B988818068888388818F77A1
S1133FB0888380910E0882B988818068888388818B
S1133FC08F77888380910F0882B98881806888837D
S1133FD088818F7788838091100882B9888180686E
S1133FE0888388818F7788838091110882B988813A
S1133FF08068888388818F7788838091120882B94A
S113400088818068888388818F778883809113086A
S113401082B988818068888388818F77888380913A
S1134020140882B988818068888388818F7788831F
S11340308091150882B988818068888388818F7708
S113404088838091160882B98881806888838881F2
S11340508F7788838091170882B9888180688883E4
S113406088818F7788838091180882B988818068D5
S1134070888388818F7788838091190882B98881A1
S11340808068888388818F77888380911A0882B9B1
S113409088818068888388818F77888380911B08D2
S11340A082B988818068888388818F7788838091AA
S11340B01C0882B988818068888388818F77888387
S11340C080911D0882B988818068888388818F7770
S11340D0888380911E0882B988818068888388815A
S11340E08F77888380911F0882B98881806888834C
S11340F088818F7788838091200882B9888180683D
S1134100888388818F7788838091210882B9888108
S11341108068888388818F7788838091220882B918
S113412088818068888388818F7788838091230839
S113413082B988818068888388818F778883809119
S1134140240882B988818068888388818F778883EE
S11341508091250882B988818068888388818F77D7
S113416088838091260882B98881806888838881C1
S11341708F7788838091270882B9888180688883B3
S113418088818F7788838091280882B988818068A4
S1134190888388818F7788838091290882B9888170
S11341A08068888388818F77888380912A0882B980
S11341B088818068888388818F77888380912B08A1
S11341C082B988818068888388818F778883809189
S11341D02C0882B988818068888388818F77888356
S11341E080912D0882B988818068888388818F773F
S11341F0888380912E0882B9888180688883888129
S11342008F77888380912F0882B98881806888831A
S113421088818F7788838091300882B9888180680B
S1134220888388818F7788838091310882B98881D7
S11342308068888388818F7788838091320882B9E7
S113424088818068888388818F7788838091330808
S113425082B988818068888388818F7788838091F8
S1134260340882B988818068888388818F778883BD
S11342708091350882B988818068888388818F77A6
S113428088838091360882B9888180688883888190
S11342908F7788838091370882B988818068888382
S11342A088818F7788838091380882B98881806873
S11342B0888388818F7788838091390882B988813F
S11342C08068888388818F77888380913A0882B94F
S11342D088818068888388818F77888380913B0870
S11342E082B988818068888388818F778883809168
S11342F03C0882B988818068888388818F77888325
S113430080913D0882B988818068888388818F770D
S1134310888380913E0882B98881806888838881F7
S11343208F77888380913F0882B9888180688883E9
S113433062E080E00E94BD1488818F7B888388813D
S11343408F7788838091400882B9888180688883C8
S113435088818F7788838091410882B988818068B9
S1134360888388818F7788838091420882B9888185
S11343708068888388818F7788838091430882B995
S113438088818068888388818F77888380914408B6
S113439082B988818068888388818F7788838091B7
S11343A0450882B988818068888388818F7788836B
S11343B08091460882B988818068888388818F7754
S11343C088838091470882B988818068888388813E
S11343D08F7788838091480882B988818068888330
S11343E088818F7788838091490882B98881806821
S11343F0888388818F77888380914A0882B98881ED
S11344008068888388818F77888380914B0882B9FC
S113441088818068888388818F77888380914C081D
S113442082B988818068888388818F778883809126
S11344304D0882B988818068E8E0F1E0808380815A
S11344408F77808380914E0882B9808180688083D1
S113445080818F77808380914F0882B980818068C2
S1134460808380818F7780838091500882B9808196
S11344708068808380818F7780838091510882B99E
S113448080818068808380818F77808380915208C7
S113449082B980818068808380818F7780838091D6
S11344A0530882B980818068808380818F7780837C
S11344B08091540882B980818068808380818F775D
S11344C080838091550882B980818068808380814F
S11344D08F7780838091560882B980818068808339
S11344E080818F7780838091570882B9808180682A
S11344F0808380818F7780838091580882B98081FE
S11345008068808380818F7780838091590882B905
S113451080818068808380818F77808380915A082E
S113452082B980818068808380818F778083809145
S11345305B0882B980818068808380818F778083E3
S113454080915C0882B980818068808380818F77C4
S1134550808380915D0882B98081806880838081B6
S11345608F77808380915E0882B9808180688083A0
S113457080818F77808380915F0882B98081806891
S1134580808380818F7780838091600882B9808165
S11345908068808380818F7780838091610882B96D
S11345A080818068808380818F7780838091620896
S11345B082B980818068808380818F7780838091B5
S11345C0630882B980818068808380818F7780834B
S11345D08091640882B980818068808380818F772C
S11345E080838091650882B980818068808380811E
S11345F08F7780838091660882B980818068808308
S113460080818F7780838091670882B980818068F8
S1134610808380818F7780838091680882B98081CC
S11346208068808380818F7780838091690882B9D4
S113463080818068808380818F77808380916A08FD
S113464082B980818068808380818F778083809124
S11346506B0882B980818068808380818F778083B2
S113466080916C0882B980818068808380818F7793
S1134670808380916D0882B9808180688083808185
S11346808F77808380916E0882B98081806880836F
S113469080818F77808380916F0882B98081806860
S11346A0808380818F7780838091700882B9808134
S11346B08068808380818F7780838091710882B93C
S11346C080818068808380818F7780838091720865
S11346D082B980818068808380818F778083809194
S11346E0730882B980818068808380818F7780831A
S11346F08091740882B980818068808380818F77FB
S113470080838091750882B98081806880838081EC
S11347108F7780838091760882B9808180688083D6
S113472080818F7780838091770882B980818068C7
S1134730808380818F7780838091780882B980819B
S11347408068808380818F7780838091790882B9A3
S113475080818068808380818F77808380917A08CC
S113476082B980818068808380818F778083809103
S11347707B0882B980818068808380818F77808381
S113478080917C0882B980818068808380818F7762
S1134790808380917D0882B9808180688083808154
S11347A08F77808380917E0882B98081806880833E
S11347B080818F77808380917F0882B9808180682F
S11347C0808380818F7780838091800882B9808103
S11347D08068808380818F7780838091810882B90B
S11347E080818068808380818F7780838091820834
S11347F082B980818068808380818F778083809173
S1134800830882B980818068808380818F778083E8
S11348108091840882B980818068808380818F77C9
S113482080838091850882B98081806880838081BB
S11348308F7780838091860882B9808180688083A5
S113484080818F7780838091870882B98081806896
S1134850808380818F7780838091880882B980816A
S11348608068808380818F7780838091890882B972
S113487080818068808380818F77808380918A089B
S113488082B980818068808380818F7780838091E2
S11348908B0882B980818068808380818F77808350
S11348A080918C0882B980818068808380818F7731
S11348B0808380918D0882B9808180688083808123
S11348C08F77808380918E0882B98081806880830D
S11348D080818F77808380918F0882B980818068FE
S11348E0808380818F7780838091900882B98881CA
S11348F08068888388818F7788838091910882B9C2
S113490088818068888388818F77888380919208E2
S113491082B988818068888388818F778883809131
S1134920930882B988818068888388818F77888397
S11349308091940882B988818068888388818F7780
S113494088838091950882B988818068888388816A
S11349508F7788838091960882B98881806888835C
S113496088818F7788838091970882B9888180684D
S1134970888388818F7788838091980882B9888119
S11349808068888388818F7788838091990882B929
S113499088818068888388818F77888380919A084A
S11349A082B988818068888388818F7788838091A1
S11349B09B0882B988818068888388818F778883FF
S11349C080919C0882B988818068888388818F77E8
S11349D0888380919D0882B98881806888838881D2
S11349E08F77888380919E0882B9888180688883C4
S11349F088818F77888380919F0882B988818068B5
S1134A00888388818F7788838091A00882B9888180
S1134A108068888388818F7788838091A10882B990
S1134A2088818068888388818F7788838091A208B1
S1134A3082B988818068888388818F778883809110
S1134A40A30882B988818068888388818F77888366
S1134A508091A40882B988818068888388818F774F
S1134A6088838091A50882B9888180688883888139
S1134A708F7788838091A60882B98881806888832B
S1134A8088818F7788838091A70882B9888180681C
S1134A90888388818F7788838091A80882B98881E8
S1134AA08068888388818F7788838091A90882B9F8
S1134AB088818068888388818F7788838091AA0819
S1134AC082B988818068888388818F778883809180
S1134AD0AB0882B988818068888388818F778883CE
S1134AE08091AC0882B988818068888388818F77B7
S1134AF088838091AD0882B98881806888838881A1
S1134B008F7788838091AE0882B988818068888392
S1134B1088818F7788838091AF0882B98881806883
S1134B20888388818F7788838091B00882B988814F
S1134B308068888388818F7788838091B10882B95F
S1134B4088818068888388818F7788838091B20880
S1134B5082B988818068888388818F7788838091EF
S1134B60B30882B988818068888388818F77888335
S1134B708091B40882B988818068888388818F771E
S1134B8088838091B50882B9888180688883888108
S1134B908F7788838091B60882B9888180688883FA
S1134BA088818F7788838091B70882B988818068EB
S1134BB0888388818F7788838091B80882B98881B7
S1134BC08068888388818F7788838091B90882B9C7
S1134BD088818068888388818F7788838091BA08E8
S1134BE082B988818068888388818F77888380915F
S1134BF0BB0882B988818068888388818F7788839D
S1134C008091BC0882B988818068888388818F7785
S1134C1088838091BD0882B988818068888388816F
S1134C208F7788838091BE0882B988818068888361
S1134C3088818F7788838091BF0882B98881806852
S1134C40888363E080E00E94BD1488818F7B888321
S1134C5088818F7788838091C00882B98881806831
S1134C60888388818F7788838091C10882B98881FD
S1134C708068888388818F7788838091C20882B90D
S1134C8088818068888388818F7788838091C3082E
S1134C9082B988818068888388818F7788838091AE
S1134CA0C40882B988818068888388818F778883E3
S1134CB08091C50882B988818068888388818F77CC
S1134CC088838091C60882B98881806888838881B6
S1134CD08F7788838091C70882B9888180688883A8
S1134CE088818F7788838091C80882B98881806899
S1134CF0888388818F7788838091C90882B9888165
S1134D008068888388818F7788838091CA0882B974
S1134D1088818068888388818F7788838091CB0895
S1134D2082B988818068888388818F77888380911D
S1134D30CC0882B988818068888388818F7788834A
S1134D408091CD0882B988818068888388818F7733
S1134D5088838091CE0882B988818068888388811D
S1134D608F7788838091CF0882B98881806888830F
S1134D7088818F7788838091D00882B98881806800
S1134D80888388818F7788838091D10882B98881CC
S1134D908068888388818F7788838091D20882B9DC
S1134DA088818068E8E0F1E0808380818F77808368
S1134DB08091D30882B980818068808380818F77D5
S1134DC080838091D40882B98081806880838081C7
S1134DD08F7780838091D50882B9808180688083B1
S1134DE080818F7780838091D60882B980818068A2
S1134DF0808380818F7780838091D70882B9808176
S1134E008068808380818F7780838091D80882B97D
S1134E1080818068808380818F7780838091D908A6
S1134E2082B980818068808380818F77808380913C
S1134E30DA0882B980818068808380818F7780835B
S1134E408091DB0882B980818068808380818F773C
S1134E5080838091DC0882B980818068808380812E
S1134E608F7780838091DD0882B980818068808318
S1134E7080818F7780838091DE0882B98081806809
S1134E80808380818F7780838091DF0882B98081DD
S1134E908068808380818F7780838091E00882B9E5
S1134EA080818068808380818F7780838091E1080E
S1134EB082B980818068808380818F7780838091AC
S1134EC0E20882B980818068808380818F778083C3
S1134ED08091E30882B980818068808380818F77A4
S1134EE080838091E40882B9808180688083808196
S1134EF08F7780838091E50882B980818068808380
S1134F0080818F7780838091E60882B98081806870
S1134F10808380818F7780838091E70882B9808144
S1134F208068808380818F7780838091E80882B94C
S1134F3080818068808380818F7780838091E90875
S1134F4082B980818068808380818F77808380911B
S1134F50EA0882B980818068808380818F7780832A
S1134F608091EB0882B980818068808380818F770B
S1134F7080838091EC0882B98081806880838081FD
S1134F808F7780838091ED0882B9808180688083E7
S1134F9080818F7780838091EE0882B980818068D8
S1134FA0808380818F7780838091EF0882B98081AC
S1134FB08068808380818F7780838091F00882B9B4
S1134FC080818068808380818F7780838091F108DD
S1134FD082B980818068808380818F77808380918B
S1134FE0F20882B980818068808380818F77808392
S1134FF08091F30882B980818068808380818F7773
S113500080838091F40882B9808180688083808164
S11350108F7780838091F50882B98081806880834E
S113502080818F7780838091F60882B9808180683F
S1135030808380818F7780838091F70882B9808113
S11350408068808380818F7780838091F80882B91B
S113505080818068808380818F7780838091F90844
S113506082B980818068808380818F7780838091FA
S1135070FA0882B980818068808380818F778083F9
S11350808091FB0882B980818068808380818F77DA
S113509080838091FC0882B98081806880838081CC
S11350A08F7780838091FD0882B9808180688083B6
S11350B080818F7780838091FE0882B980818068A7
S11350C0808380818F7780838091FF0882B980817B
S11350D08068808380818F7780838091000982B982
S11350E080818068808380818F77808380910109AB
S11350F082B980818068808380818F77808380916A
S1135100020982B980818068808380818F7780835F
S11351108091030982B980818068808380818F7740
S113512080838091040982B9808180688083808132
S11351308F7780838091050982B98081806880831C
S113514080818F7780838091060982B9808180680D
S1135150808380818F7780838091070982B98081E1
S11351608068808380818F7780838091080982B9E9
S113517080818068808380818F7780838091090912
S113518082B980818068808380818F7780838091D9
S11351900A0982B980818068808380818F778083C7
S11351A080910B0982B980818068808380818F77A8
S11351B0808380910C0982B980818068808380819A
S11351C08F77808380910D0982B980818068808384
S11351D080818F77808380910E0982B98081806875
S11351E0808380818F77808380910F0982B9808149
S11351F08068808380818F7780838091100982B951
S113520080818068808380818F7780838091110979
S113521082B980818068808380818F778083809148
S1135220120982B980818068808380818F7780832E
S11352308091130982B980818068808380818F770F
S113524080838091140982B9808180688083808101
S11352508F7780838091150982B9888180688883DB
S113526088818F7788838091160982B988818068C4
S1135270888388818F7788838091170982B9888190
S11352808068888388818F7788838091180982B9A0
S113529088818068888388818F77888380911909C1
S11352A082B988818068888388818F778883809198
S11352B01A0982B988818068888388818F77888376
S11352C080911B0982B988818068888388818F775F
S11352D0888380911C0982B9888180688883888149
S11352E08F77888380911D0982B98881806888833B
S11352F088818F77888380911E0982B9888180682C
S1135300888388818F77888380911F0982B98881F7
S11353108068888388818F7788838091200982B907
S113532088818068888388818F7788838091210928
S113533082B988818068888388818F778883809107
S1135340220982B988818068888388818F778883DD
S11353508091230982B988818068888388818F77C6
S113536088838091240982B98881806888838881B0
S11353708F7788838091250982B9888180688883A2
S113538088818F7788838091260982B98881806893
S1135390888388818F7788838091270982B988815F
S11353A08068888388818F7788838091280982B96F
S11353B088818068888388818F7788838091290990
S11353C082B988818068888388818F778883809177
S11353D02A0982B988818068888388818F77888345
S11353E080912B0982B988818068888388818F772E
S11353F0888380912C0982B9888180688883888118
S11354008F77888380912D0982B988818068888309
S113541088818F77888380912E0982B988818068FA
S1135420888388818F77888380912F0982B98881C6
S11354308068888388818F7788838091300982B9D6
S113544088818068888388818F77888380913109F7
S113545082B988818068888388818F7788838091E6
S1135460320982B988818068888388818F778883AC
S11354708091330982B988818068888388818F7795
S113548088838091340982B988818068888388817F
S11354908F7788838091350982B988818068888371
S11354A088818F7788838091360982B98881806862
S11354B0888388818F7788838091370982B988812E
S11354C08068888388818F7788838091380982B93E
S11354D088818068888388818F778883809139095F
S11354E082B988818068888388818F778883809156
S11354F03A0982B988818068888388818F77888314
S113550080913B0982B988818068888388818F77FC
S1135510888380913C0982B98881806888838881E6
S11355208F77888380913D0982B9888180688883D8
S113553088818F77888380913E0982B988818068C9
S1135540888388818F77888380913F0982B9888195
S11355508068888364E080E00E94BD1488818F7B2A
S1135560888388818F7788838091400982B9888174
S11355708068888388818F7788838091410982B984
S113558088818068888388818F77888380914209A5
S113559082B988818068888388818F7788838091A5
S11355A0430982B988818068888388818F7788835A
S11355B08091440982B988818068888388818F7743
S11355C088838091450982B988818068888388812D
S11355D08F7788838091460982B98881806888831F
S11355E088818F7788838091470982B98881806810
S11355F0888388818F7788838091480982B98881DC
S11356008068888388818F7788838091490982B9EB
S113561088818068888388818F77888380914A090C
S113562082B988818068888388818F778883809114
S11356304B0982B988818068888388818F778883C1
S113564080914C0982B988818068888388818F77AA
S1135650888380914D0982B9888180688883888194
S11356608F77888380914E0982B988818068888386
S113567088818F77888380914F0982B98881806877
S1135680888388818F7788838091500982B9888143
S11356908068888388818F7788838091510982B953
S11356A088818068888388818F7788838091520974
S11356B082B988818068888388818F778883809184
S11356C0530982B988818068888388818F77888329
S11356D08091540982B988818068888388818F7712
S11356E088838091550982B98881806888838881FC
S11356F08F7788838091560982B9888180688883EE
S113570088818F7788838091570982B988818068DE
S113571080930801E8E0F1E080818F7780838091B5
S1135720580982B980818068808380818F778083E3
S11357308091590982B980818068808380818F77C4
S1135740808380915A0982B98081806880838081B6
S11357508F77808380915B0982B9808180688083A0
S113576080818F77808380915C0982B98081806891
S1135770808380818F77808380915D0982B9808165
S11357808068808380818F77808380915E0982B96D
S113579080818068808380818F77808380915F0996
S11357A082B980818068808380818F7780838091B3
S11357B0600982B980818068808380818F7780834B
S11357C08091610982B980818068808380818F772C
S11357D080838091620982B980818068808380811E
S11357E08F7780838091630982B980818068808308
S11357F080818F7780838091640982B980818068F9
S1135800808380818F7780838091650982B98081CC
S11358108068808380818F7780838091660982B9D4
S113582080818068808380818F77808380916709FD
S113583082B980818068808380818F778083809122
S1135840680982B980818068808380818F778083B2
S11358508091690982B980818068808380818F7793
S1135860808380916A0982B9808180688083808185
S11358708F77808380916B0982B98081806880836F
S113588080818F77808380916C0982B98081806860
S1135890808380818F77808380916D0982B9808134
S11358A08068808380818F77808380916E0982B93C
S11358B080818068808380818F77808380916F0965
S11358C082B980818068808380818F778083809192
S11358D0700982B980818068808380818F7780831A
S11358E08091710982B980818068808380818F77FB
S11358F080838091720982B98081806880838081ED
S11359008F7780838091730982B9808180688083D6
S113591080818F7780838091740982B980818068C7
S1135920808380818F7780838091750982B980819B
S11359308068808380818F7780838091760982B9A3
S113594080818068808380818F77808380917709CC
S113595082B980818068808380818F778083809101
S1135960780982B980818068808380818F77808381
S11359708091790982B980818068808380818F7762
S1135980808380917A0982B9808180688083808154
S11359908F77808380917B0982B98081806880833E
S11359A080818F77808380917C0982B9808180682F
S11359B0808380818F77808380917D0982B9808103
S11359C08068808380818F77808380917E0982B90B
S11359D080818068808380818F77808380917F0934
S11359E082B980818068808380818F778083809171
S11359F0800982B980818068808380818F778083E9
S1135A008091810982B980818068808380818F77C9
S1135A1080838091820982B98081806880838081BB
S1135A208F7780838091830982B9808180688083A5
S1135A3080818F7780838091840982B98081806896
S1135A40808380818F7780838091850982B980816A
S1135A508068808380818F7780838091860982B972
S1135A6080818068808380818F778083809187099B
S1135A7082B980818068808380818F7780838091E0
S1135A80880982B980818068808380818F77808350
S1135A908091890982B980818068808380818F7731
S1135AA0808380918A0982B9808180688083808123
S1135AB08F77808380918B0982B98081806880830D
S1135AC080818F77808380918C0982B980818068FE
S1135AD0808380818F77808380918D0982B98081D2
S1135AE08068808380818F77808380918E0982B9DA
S1135AF080818068808380818F77808380918F0903
S1135B0082B980818068808380818F77808380914F
S1135B10900982B980818068808380818F778083B7
S1135B208091910982B980818068808380818F7798
S1135B3080838091920982B980818068808380818A
S1135B408F7780838091930982B980818068808374
S1135B5080818F7780838091940982B98081806865
S1135B60808380818F7780838091950982B9808139
S1135B708068808380818F7780838091960982B941
S1135B8080818068808380818F778083809197096A
S1135B9082B980818068808380818F7780838091BF
S1135BA0980982B980818068808380818F7780831F
S1135BB08091990982B980818068808380818F7700
S1135BC0808380919A0982B98091080180688883D2
S1135BD088818F77888380919B0982B988818068C6
S1135BE0888388818F77888380919C0982B9888192
S1135BF08068888388818F77888380919D0982B9A2
S1135C0088818068888388818F77888380919E09C2
S1135C1082B988818068888388818F77888380911E
S1135C209F0982B988818068888388818F77888377
S1135C308091A00982B988818068888388818F7760
S1135C4088838091A10982B988818068888388814A
S1135C508F7788838091A20982B98881806888833C
S1135C6088818F7788838091A30982B9888180682D
S1135C70888388818F7788838091A40982B98881F9
S1135C808068888388818F7788838091A50982B909
S1135C9088818068888388818F7788838091A6092A
S1135CA082B988818068888388818F77888380918E
S1135CB0A70982B988818068888388818F778883DF
S1135CC08091A80982B988818068888388818F77C8
S1135CD088838091A90982B98881806888838881B2
