:10000000E0C20000FAC20000F8C20000F6C2000020
:10001000F4C20000F2C20000F0C20000EEC2000014
:10002000ECC20000EAC20000E8C200001FC30000EA
:10003000E4C20000E2C20000E0C20000DEC2000034
:10004000DCC200000C94D039D8C20000D6C2000037
:10005000D4C200000C949E3DD0C20000CEC200006D
:10006000CCC200000C94C53E0C94F63EC6C2000003
:10007000C4C20000C2C20000C0C20000BEC2000074
:100080000C94FB3CBAC20000B8C20000B6C200002B
:10009000B4C20000B2C20000B0C20000AEC2000094
:1000A000ACC20000AAC2000052C30000A6C20000F9
:1000B000A4C20000A2C20000A0C200009EC20000B4
:1000C0009CC200009AC2000098C2000096C20000C4
:1000D00094C2000092C200000C9415400C9446405B
:1000E0008CC20000B205C005F608F608BD05A005E3
:1000F000F60862050F06ED08ED08ED08ED08ED08BD
:10010000ED083E0683088B07CB08F6085808600701
:10011000B107D707BC064407C3082506F608F6084A
:10012000020670069606F608F608A508B708ED0858
:10013000ED08ED08ED08ED08ED08ED08ED08ED0817
:10014000ED08F608F608ED08ED08ED08ED08ED08F5
:10015000ED08ED08ED08ED08ED08ED08ED08ED08F7
:10016000ED084F0548055405ED0868058A05D705D3
:1001700075054406E507ED08ED08ED08ED08ED0806
:10018000ED088908030852069505ED08ED082105DC
:100190005905ED08ED081705ED08ED08ED08ED0827
:1001A000ED083805ED082E05ED08ED08ED08ED0821
:1001B000ED08ED08ED08ED08ED08ED08ED08ED0897
:1001C000ED08ED05800553797374656D2069732022
:1001D000626F6F74696E672075702E2E2E00256415
:1001E00000494F20424F41524420444941474E4F1D
:1001F0005354494353004D61676E657469632043EE
:100200006172640044464D20446562756700546124
:100210006E6B204761756765730052656C61797319
:100220002C2050756C736572732C2048616E646C61
:10023000657300436172647320726561643A2025BE
:1002400064202000282564206368617261637465FE
:10025000727320726561642900446174613A200000
:100260004E4F206B65792072657475726E732E0027
:10027000285465737420646F6573206E6F742063F7
:100280006865636B2070617269747929004D6167DC
:100290006E657469632043617264205465737400F1
:1002A00050453A20256C7500424F3A20256C750068
:1002B00046453A20256C7500256C75206279746579
:1002C000730044464D2053657269616C2054657318
:1002D0007400256400476175676520256400256CFE
:1002E0007500312D383A52656C6179732020303AAF
:1002F000526573657420204E4F3A4578697400004A
:1003000000002E0006000600143E143E1400282CA7
:100310007614002410082400142A12280006001C59
:100320002200221C000A040A00081C0800402000C9
:100330000808080020002010080402001C22221CCB
:1003400000023E00322A2A2400222A2A140018140D
:100350003E10002E2A2A1A001C2A2A100002320AF5
:100360000600142A2A1400042A2A1C00140034004F
:10037000081422001414140022140800022A0A048B
:10038000001C223A2A1C3C12123C003E2A2A14006D
:100390001C2222003E22221C003E2A2A003E0A0A7B
:1003A000001C222A3A003E08083E00223E2200108D
:1003B00020221E003E081422003E2020003E040899
:1003C000043E003E04083E001C22221C003E121285
:1003D0000C001C22225C003E12122C00242A2A123D
:1003E00000023E02001E20201E001E201806001ED5
:1003F000201C201E0036080836000628281E003261
:100400002A26003E2200020408102000223E00049A
:1004100002040020202020000204001824243C00B4
:100420003E24241800182424001824243E001834E4
:100430002C0800083C0A0018A4A47C003E040438E0
:10044000003A00807A003E101824003E003C043C34
:100450000438003C040438001824241800FC242428
:100460001800182424FC003C080400282C34140034
:10047000041E24001C20203C001C20100C001C200A
:100480001C201C00241824001CA0A07C0024342C58
:100490002400083622003E0022360800040204022E
:1004A000000000000300050009000F0014001900FF
:1004B0001E002000230026002A002E0031003500F7
:1004C00037003D00420045004A004F0054005900EB
:1004D0005E00630068006D006F00710075007900B8
:1004E0007D00820087008C00910095009A009E009C
:1004F000A200A700AC00B000B500BA00BE00C40066
:10050000C900CE00D300D800DD00E200E600EB0019
:10051000F000F600FB000001040107010D011001CD
:10052000140119011C01210126012A012F013401A6
:1005300038013D014201440147014C014E01540183
:1005400059015E01630168016C01710175017A0155
:100550007F01850189018E019301970199019D0118
:10056000A2010302040605050502030304040304B3
:100570000206050305050505050505050202040437
:100580000405050505040504040505040505040620
:10059000050505050505040505060505040306030F
:1005A0000405030505040505040505020305020607
:1005B00005050505040504050506040505040204F2
:1005C000050111241FBECFEFD1E2DEBFCDBF12E087
:1005D000A0E0B2E0EAEBF7E802C005900D92AC3380
:1005E000B107D9F72EE0ACE3B2E001C01D92A93605
:1005F000B207E1F705D00C94DB4302CD85E1089505
:100600009A9880910401837880930401A298809144
:1006100005018378809305010E94C33D8BD60E941B
:10062000923D0E9450380E94973B0E94633B0E947B
:10063000A43CD0D157D10E94380B2FEF84E39CE02B
:10064000215080409040E1F700C000000E948D3DA5
:100650000E94B91346EC51E064E084E00E943A390C
:100660000E94C4130E94CE0ECCD1FECF1F920F92D7
:100670000FB60F9211248F939F93EF93FF93809166
:100680003C02813041F120F0833009F447C056C06C
:100690008091060183FD52C082E080936D0081E06D
:1006A00090E09093A5008093A4008DE89BE5909343
:1006B000A9008093A8001092A0008CE08093A10074
:1006C0008091720082608093720010923E0281E0FD
:1006D00080933C0233C09091060191FF2FC0E091BE
:1006E0003E0291E09E0F90933E02F0E09091060151
:1006F00091708927E15CFD4F808380913E02883CA8
:10070000E9F488E080936D0083E080933C0281E00F
:1007100090E09093A5008093A40010C08091060102
:1007200083FF0CC010926D0082E080933C02109217
:10073000A100809172008D7F80937200FF91EF91F4
:100740009F918F910F900FBE0F901F9018951F9241
:100750000F920FB60F9211248F939F93EF93FF93F5
:1007600083E080933C0281E080933D02F89488E02E
:1007700080936D0081E090E09093A5008093A400A9
:100780001092A100E2E7F0E080818D7F8083789471
:10079000FF91EF919F918F910F900FBE0F901F903F
:1007A000189590913C0281E0923009F080E0089524
:1007B0001F93CF93DF93FC011082F894A0913E0227
:1007C00020E030E080E0422F2A1708F042C0E90123
:1007D000C15CDD4F9881880F892B2F5F3F4F982F89
:1007E0009F779A3181F744504A1798F5642F70E04B
:1007F000EB01CD5BDD4F8881EB01CE5BDD4F588196
:10080000EB01CF5BDD4F3881EB01C05CDD4FB88180
:10081000EB01C15CDD4F28813196EF01219710E19A
:10082000819FB001112418E0519FC0011124862B33
:10083000822B94E0399F90011124982F922B2B2F1B
:10084000220F292B2F70205D28834B5F4A1770F2EF
:1008500010827894DF91CF911F910895EF92FF92CB
:100860000F931F93CF93DF937C0100913E02C0E072
:10087000D0E0C01740F4FE01E15CFD4F8081F7013C
:1008800009952196F6CF8FEFF701099510E0CFEE8D
:10089000D0E0C01BD109812F90E08C179D072CF46C
:1008A00080E0F70109951F5FF6CFDF91CF911F918F
:1008B0000F91FF90EF90089510923E0210923C022B
:1008C00010923D02F894E2E7F0E080818D7F808312
:1008D000E8E6F0E080818460808388E080936D00AA
:1008E00078940895E7E0F1E08081807F8083E8E0FC
:1008F000F1E08081807F8083F89410926D001092E7
:10090000A0001092A1007894D7CF0C94F53FCF931C
:10091000C92F0E94F53F8C2FCF910C94F53FCF93B8
:10092000DF93EC010E94C33F892B29F41092B0079A
:100930001092AF0712C00E94D23F888381E015C099
:100940000E94C33F892BB9F78091AF079091B00700
:1009500001969093B0078093AF078091AF07909175
:10096000B007803D974064F380E0DF91CF91089518
:10097000CF93DF9300D0CDB7DEB7CE010196CFDFA6
:10098000811102C080E006C0CE010296C8DF882334
:10099000C9F389810F900F90DF91CF9108950F9344
:1009A0001F93CF93DF931F92CDB7DEB70DE117E012
:1009B000CE010196B4DF882339F08981F801819353
:1009C0008F018111F5CF81E00F90DF91CF911F91C1
:1009D0000F9108950F9300E020E048E060E076E991
:1009E00080E090E00E94313F0E94C73890930A0354
:1009F000809309039C5F90930803809307030F91F2
:100A000008950F931F93CF93DF930E94C33F892BC9
:100A100009F4ECC30E94D23F90E0FC013197E1372A
:100A2000F10508F0DAC3EE58FF4F0C94B6408DE99B
:100A300097E075DF882309F4D0C380919D078095E6
:100A400007C08DE997E06BDF882309F4C6C3D6DDC4
:100A5000DF91CF911F910F910C94F53F8DE997E0B5
:100A60005EDF882309F4B9C380919D077BD525C03B
:100A70008DE997E054DF882309F4AFC380919D0787
:100A8000853509F0B3C3DF91CF911F910F91C9C58F
:100A900085E894E0DF91CF911F910F91DFCE81DE49
:100AA0008823B1F289E5D4CFDF91CF911F910F91C7
:100AB00003CF8091AD079091AE07DF91CF911F9149
:100AC0000F9125CFDF91CF911F910F910C948D3D08
:100AD0008DE997E024DF882309F47FC380919D0787
:100AE000DF91CF911F910F9146C48DE997E017DFF9
:100AF000882309F472C380919D070E94EF3CA8CF20
:100B00008DE997E00CDF882309F467C380919D0786
:100B10000DD49ECF8DE997E002DF882309F45DC3F1
:100B200080919D070E94C93C93CF8DE997E0F7DE45
:100B3000882309F452C380919D070E944F3B88CFC0
:100B400017DF882309F449C313DF882309F445C359
:100B500060E070E080E090E0DF91CF911F910F9115
:100B60000C942C3D8DE997E0DADE882309F435C337
:100B700080919D070E945D3B6BCF0E94CA3B68CF6E
:100B80008DE997E0CCDE882309F427C380919D0787
:100B9000FAD3172FD82FC92F862F0E94F53F812F08
:100BA0000E94F53F8D2F0E94F53F8C2F51CF8DE98C
:100BB00097E0B5DE882309F410C38EE997E0AFDE35
:100BC000882309F40AC360919E0780919D07DF91F5
:100BD000CF911F910F910C94D43C8DE997E09FDE4B
:100BE000882309F4FAC280EA97E099DE882309F4A1
:100BF000F4C26091A00780919D07DF91CF911F9172
:100C00000F917EC38FE997E08ADE882309F4E5C25D
:100C100080EA97E084DE882309F4DFC2E7C28DE929
:100C200097E07DDE882309F4D8C28EE997E077DE6D
:100C3000882309F4D2C260919E0780919D07DF91BD
:100C4000CF911F910F910C94B03C80EA97E067DE42
:100C5000882309F4C2C2A3DE882309F4BEC28DE151
:100C600097E00E94CA388093A40786954DE157E02B
:100C70006091A00790E4981B892F1CC1DF91CF9150
:100C80001F910F910C94B91380EA97E048DE8823F6
:100C900009F4A3C28091A007DF91CF911F910F911A
:100CA0000C94361380EA97E03ADE882309F495C263
:100CB0008FE997E034DE882309F48FC281EA97E058
:100CC0002EDE882309F489C24091A10760919F0715
:100CD0008091A007DF91CF911F910F910C94481341
:100CE0008FE997E01CDE882309F477C281EA97E058
:100CF00016DE882309F471C280EA97E010DE8823AB
:100D000009F46BC283EA97E00ADE882309F465C21E
:100D10002091A3074091A0076091A10780919F07B0
:100D2000DF91CF911F910F910C94EB108FE997E019
:100D3000F6DD882309F451C280EA97E0F0DD8823CC
:100D400009F44BC282EA97E0EADD882309F445C240
:100D500083EA97E0E4DD882309F43FC22091A307EA
:100D60004091A2076091A00780919F07DF91CF91EA
:100D70001F910F910C9433118FE997E0D0DD8823F8
:100D800009F42BC280EA97E0CADD882309F425C262
:100D900084EA97E0C4DD882309F41FC285EA97E05E
:100DA000BEDD882309F419C28FE093E090930C0311
:100DB00080930B038091A4079091A507899FC001A0
:100DC0001124815F9C4F90930E0380930D030E942A
:100DD000D63D6093190770931A0780931B07909371
:100DE0001C0720910B0330910C0380910D0390910F
:100DF0000E032817390741F10E94D63D00911907CB
:100E000010911A0720911B0730911C07DC01CB01C0
:100E1000801B910BA20BB30B8D3D9540A105B10535
:100E200008F0DBC10E94C33F892BD9F2C0910B03AC
:100E3000D0910C03CE01019690930C0380930B0389
:100E40000E94D23F8883CDCF8091A40790E09093F9
:100E50001407809313078091A50790E090931607DD
:100E6000809315078FE093E09093180780931707FE
:100E700043E157E06091A00780919F07DF91CF91F8
:100E80001F910F910C9468138FE997E048DD882338
:100E900009F4A3C180EA97E042DD882309F49DC1EB
:100EA0007EDD882309F499C14DE157E06091A007E8
:100EB00080919F07DF91CF911F910F910C94E9389A
:100EC0008FE997E02CDD882309F487C180EA97E059
:100ED00026DD882309F481C181EA97E020DD88239B
:100EE00009F47BC182EA97E01ADD882309F475C111
:100EF00083EA97E014DD882309F46FC10091A3070A
:100F00002091A2074091A1076091A00780919F07BF
:100F10000E94AD126BC18FE997E001DD882309F4CF
:100F20005CC181EA97E0FBDC882309F456C180EAC2
:100F300097E0F5DC882309F450C183EA97E0EFDC01
:100F4000882309F44AC12091A3074091A00760912A
:100F5000A10780919F07DF91CF911F910F910C9472
:100F60000F118FE997E0DBDC882309F436C180EAB2
:100F700097E0D5DC882309F430C181EA97E0CFDC23
:100F8000882309F42AC182EA97E0C9DC882309F49E
:100F900024C12091A2074091A1076091A0078091F0
:100FA0009F07DF91CF911F910F910C94001380EA5E
:100FB00097E0B5DC882309F410C18091A007DF9188
:100FC000CF911F910F910C94221380EA97E0A7DC38
:100FD000882309F402C18FE997E0A1DC882309F492
:100FE000FCC081EA97E09BDC882309F4F6C04091BD
:100FF000A10760919F078091A007DF91CF911F917A
:101000000F910C9457130E94D63D6093190770936B
:101010001A0780931B0790931C070E94C738909370
:101020000A03809309032091090330910A038091F8
:101030000703909108032817390709F4D7C00E94C5
:10104000D63D0091190710911A0720911B07309186
:101050001C07DC01CB01801B910BA20BB30B8D3D58
:101060009540A105B10590F0809107039091080388
:10107000E0910903F0910A038E179F0711F0119276
:10108000FBCF90930A0380930903B0C00E94C33F33
:10109000892B49F2C0910903D0910A03CE01019630
:1010A00090930A03809309030E94D23F8883BBCFA9
:1010B0008FE997E034DC882309F48FC080EA97E059
:1010C0002EDC882309F489C081EA97E028DC882394
:1010D00009F483C082EA97E022DC882309F47DC00A
:1010E00083EA97E01CDC882309F477C00091A3070A
:1010F0002091A2074091A1076091A00780919F07CE
:101100000E94851173C0DF91CF911F910F910C94B4
:10111000C4130E94C73890930A0380930903E09197
:101120000903F0910A038091070390910803E817DF
:10113000F90709F45BC0CF01019690930A038093ED
:10114000090380810E94F53FEACF8DE997E0E7DB54
:10115000882309F442C080919D072FE0829FC0013F
:10116000112464E670E00E948140862F07C08DE95B
:1011700097E0D5DB882389F180919D07DF91CF919E
:101180001F910F91CFC70BDC882339F18DE197E0D8
:101190000E94CA3892CC8FE997E0C1DB8823E9F03E
:1011A00080EA97E0BCDB8823C1F082EA97E0B7DBF6
:1011B000882399F083EA97E0B2DB882371F02091CD
:1011C000A3074091A2076091A00780919F07DF913C
:1011D000CF911F910F910C945C118091AD0790916C
:1011E000AE0701969093AE078093AD07DF91CF9144
:1011F0001F910F9108951092B2071092B10720919C
:10120000C80027FD0FC02091B1073091B207243FDD
:1012100041E0340769F02F5F3F4F3093B2072093CE
:10122000B107EDCF2091CE00FC01208381E008952D
:1012300080E00895EF92FF920F931F93CF93DF9377
:10124000CDB7DEB72C970FB6F894DEBF0FBECDBF7B
:101250008091C80085FFFCCF80E48093CE0087E8B2
:1012600093E10197F1F700C000008BE0E0E0F2E0CD
:10127000DE01119601900D928A95E1F71C86F12C02
:1012800080E5E82E0F2D10E0E1E0F0E0EC0FFD1F0F
:10129000E00FF11F8081882331F18091C80085FF24
:1012A000FCCFE092CE008091C80085FFFCCFE1E04A
:1012B000F0E0EC0FFD1F0E0F1F1FF80180818093DF
:1012C000CE00CE010C9697DF882369F02091CE00E6
:1012D0002C8730E0F80180818F5F90E02817390774
:1012E00089F6F394CFCF2C960FB6F894DEBF0FBEDD
:1012F000CDBFDF91CF911F910F91FF90EF90089597
:101300009091C80095FFFCCF982F90639093CE00EA
:1013100095E89A95F1F700009091C80095FFFCCFF1
:101320006093CE0090E040960C94924390E04096FB
:101330000C948A43CF93F89482E08093C80088E1AC
:101340008093C90086E08093CA0089E190E0909381
:10135000CD008093CC0078946DDFC0E08C2FE6DF69
:101360008F3F09F480E2682F8C2FCADFCF5FC8302F
:10137000A9F7CF9108959091C80095FFFCCF8062A6
:101380008093CE000895CF93DF9300D000D0CDB7E7
:10139000DEB79091C80095FFFCCF80618093CE00AE
:1013A000CE01019628DF811104C060E070E0CB011E
:1013B00013C0CE0102961FDF8823B9F3CE01039636
:1013C0001ADF882391F3CE01049615DF882369F391
:1013D00069817A818B819C810F900F900F900F9083
:1013E000DF91CF9108950F931F93CF93DF930FEE6B
:1013F0001EEB2DEA3EED0093D0071093D10720930A
:10140000D2073093D3078093D4078093D507709386
:10141000D7076093D6077093D9076093D807C0EDBC
:10142000D7E089910E94A53E87E0CA3DD807C9F759
:10143000DF91CF911F910F910895CF92DF92EF929C
:10144000FF92CF93DF930E94D63D6B017C01D1E0E8
:101450000E94D63DDC01CB018C199D09AE09BF0964
:10146000883C9105A105B10508F072C08091CB07B9
:10147000882319F08130C9F165C08091C9078111B5
:1014800069C00E94733E892B09F45CC08091CD072E
:101490008093CC078091CE078093CD078091CF07B2
:1014A0008093CE070E94823E8093CF078091CC0725
:1014B0009091CD07A091CE07B091CF078F3E2EEB34
:1014C00092072DEAA2072EEDB207E1F58093DA0725
:1014D0009093DB07A093DC07B093DD071092CA0757
:1014E000D093CB072FC0D093C9070E94733E892B9E
:1014F00049F1C091CA0781E08C0F8093CA070E940E
:10150000823EEC2FF0E0E252F84F80838091CA07D0
:10151000843259F71092CB07EEEDF7E080E091911D
:10152000890F98E0E130F907D1F7909101089817F9
:10153000D1F28091C7079091C80701969093C80790
:101540008093C7078091C907882309F481CF02C01F
:1015500080E001C081E0DF91CF91FF90EF90DF90BC
:10156000CF9008950F931F93CF93C82F8091C307F7
:101570009091C407A091C507B091C607892B8A2B0B
:101580008B2B71F460E070E08BE72DDF56DF882352
:1015900059F1EAEDF7E0A3EBB7E02AEE37E016C029
:1015A0000E94D63D0091C3071091C4072091C50742
:1015B0003091C607DC01CB01801B910BA20BB30B52
:1015C000853F9140A105B105E8F618C0808590E0FF
:1015D000982F88274781842B8D939D9332962E17C1
:1015E0003F07A1F71092C9070E94D63D6093C30739
:1015F0007093C4078093C5079093C607EC2FF0E063
:10160000EE0FFF1FED54F84F80819181CF911F9114
:101610000F91089560E070E08CEAE5CE8BEF0C94BA
:10162000A53ECF9360E070E08CEADDDEC0E00E9472
:10163000C33F892BC1F00E94D23F8B3F910599F4A3
:101640008BEFCF910C94A53E0E94823E0E94F53F05
:10165000CF5FC03241F443E46CE385E00E9457134E
:101660000E94C413C0E00E94733E892B69F7DFCF4C
:101670000F9300E020E048E060E076E980E090E051
:101680000E94E13D0F910895CF92DF92EF92FF9279
:101690000F931F93CF93DF930E94B91341EE51E054
:1016A00060E080E00E943A3910E09EEDE92E91E082
:1016B000F92E24E0D22E3CE0C32E809102081817A8
:1016C00070F5C12FD0E0CE010296082F000F000F59
:1016D000000F01979F938F93FF92EF920F93DF92EA
:1016E0000E949A3949E063E082E0810FE0D7CC0F95
:1016F000DD1FCC0FDD1FCE5BD14F8B818F938A8195
:101700008F930F93CF920E949A391F5F8DB79EB728
:101710000A960FB6F8949EBF0FBE8DBFCECFDF9155
:10172000CF911F910F91FF90EF90DF90CF900C948D
:10173000C4138F929F92AF92BF92CF92DF92EF929B
:10174000FF920F931F93CF93DF930E94B913812CC5
:10175000912C540185EDE82E82E0F82E92EDC92EF1
:1017600092E0D92ED8E20E94CA3B8E34B1F10E9499
:10177000D63DDC01CB0188199909AA09BB09853638
:101780009105A105B10578F3F4D7C0E000E010E0C1
:101790001F930F93FF92EF92CF931F920E949A395B
:1017A000802FE0DE9F938F93DF92CF92CF93DF93D2
:1017B0000E949A390F5F1F4FC85F8DB79EB70C9676
:1017C0000FB6F8949EBF0FBE8DBFC03409F7DCD7AB
:1017D0000E94D63D4B015C01C6CFDF91CF911F9196
:1017E0000F91FF90EF90DF90CF90BF90AF909F90C0
:1017F0008F9008952F923F924F925F926F927F92B7
:101800008F929F92AF92BF92CF92DF92EF92FF9210
:101810000F931F93CF93DF93CDB7DEB728970FB603
:10182000F894DEBF0FBECDBFA4D742EC52E060E01B
:1018300080E00E943A39A8D7EDDE19821A821B8215
:101840001C82412C512C3201C12CD12C7601812CCF
:10185000912C54011D821E821F82188688EB282E2F
:1018600082E0382E08E118E20E94733E892B39F09D
:101870000E94823E2FEF821A920AA20AB20A809137
:10188000C00084FF05C03FEFC31AD30AE30AF30A7E
:1018900083FF0CC029813A814B815C812F5F3F4FD0
:1018A0004F4F5F4F29833A834B835C8382FF05C090
:1018B0003FEF431A530A630A730A0E94CA3B8E34ED
:1018C00009F46CC0893589F419821A821B821C8242
:1018D000412C512C3201C12CD12C7601812C912C20
:1018E00054011D821E821F8218860E94D63DDC0193
:1018F000CB012D813E814F815885821B930BA40B18
:10190000B50B85369105A105B10508F4ADCF83E08F
:10191000ADD684E0ABD6BF92AF929F928F923F92AA
:101920002F920F931F920E949A39FF92EF92DF92AB
:10193000CF9240EB52E05F934F9390E29F931F92C0
:101940000E949A392C812F933B813F934A814F9378
:1019500059815F9388EA92E09F938F9330E23F939F
:101960001F930E949A397F926F925F924F9240EA42
:1019700052E05F934F9390E29F9320E52F930E9454
:101980009A390FB6F894DEBF0FBECDBFFDD60E94C8
:10199000D63D6D837E838F83988766CF28960FB65A
:1019A000F894DEBF0FBECDBFDF91CF911F910F9195
:1019B000FF90EF90DF90CF90BF90AF909F908F906F
:1019C0007F906F905F904F903F902F9027CE2F92F7
:1019D0003F924F925F926F927F928F929F92AF92BF
:1019E000BF92CF92DF92EF92FF920F931F93CF930C
:1019F000DF93CDB7DEB7C254D1090FB6F894DEBF7E
:101A00000FBECDBFB6D64DE852E060E080E00E9448
:101A10003A3940E752E068E080E00E943A3940E617
:101A200052E068E380E00E943A39AED600E020E060
:101A300048E060E072EC81E090E00E94E13DE12C42
:101A4000F12CCE0101966C0199E5492E92E0592EB8
:101A500024E4622E22E0722E33E3832E32E0932EB2
:101A600040E3242E0E94D103882309F47BC069E15E
:101A700070E088E998E00E942C3DC6010E94D803DE
:101A800083E50E94A53E85EA9EE30E942E0485E43C
:101A90000E94A53E83E0EAD584E0E8D585E0E6D55E
:101AA00086E0E4D55F924F9298E19F931F920E9447
:101AB0009A398C0122961FAE229723961FAE239748
:101AC0000F900F900F900F90312C88E1A82EB12C21
:101AD000F60101900020E9F73197CF018C199D099B
:101AE000232D30E02817390708F5F601E20FF31F20
:101AF000808122968FAF2297CE018F5B9F4F0E94ED
:101B0000CA38800F911F8038910528F088E0A80E10
:101B1000B11C00E010E0AE014F5B5F4F6A2D802FDB
:101B20000E94E938080F191F3394D2CF9F938F93E7
:101B30007F926F9298E29F931F920E949A39FF9230
:101B4000EF929F928F922F921F920E949A391CD6E9
:101B50000E945C048FEFE81AF80A0FB6F894DEBF13
:101B60000FBECDBF0E94CA3B8E3431F0803309F0E6
:101B700079CF0E945C0476CFCE5BDF4F0FB6F8942E
:101B8000DEBF0FBECDBFDF91CF911F910F91FF90B0
:101B9000EF90DF90CF90BF90AF909F908F907F900D
:101BA0006F905F904F903F902F9008956F927F922B
:101BB0008F929F92AF92BF92CF92DF92EF92FF925D
:101BC0000F931F93CF93DF9300D01F92CDB7DEB753
:101BD00019821A821B8210E0812FCDDB1F5F183023
:101BE000D9F7C7D542EE52E068E380E00E943A3967
:101BF00087E028D5C12CD12C760108E432E5932E5C
:101C000040E5842E5EEDA52E52E0B52E0E94CA3B23
:101C10001FEC180F183050F4812F0E94C93C61E06E
:101C2000811160E0812F0E94B03C0FC0803351F4DD
:101C300010E0812FA0DB1F5F1830D9F7C12CD12C09
:101C4000760103C08E3409F48FC00E94D63DDC01BA
:101C5000CB018C199D09AE09BF09C397A105B10538
:101C6000A8F285E003D586E001D509832BE1E22EB9
:101C700022E0F22E670110E081E3810F8A83F601F2
:101C800071906F01AE014F5F5F4F68E282E0870D98
:101C90000E94E938812F0E945D3B882331F0F601D4
:101CA00040814150672D85E002D51F5F183021F734
:101CB000998210E081E3810F8A83F701D1907F013F
:101CC000AE014F5F5F4F60E382E08D0D0E94E93807
:101CD000812F0E94C93C882331F0F7014081415097
:101CE0006D2D86E0E4D41F5F183021F780E0BED46C
:101CF00081E0BCD482E0BAD483E0B8D4898283E1A5
:101D0000C82E82E0D82E9BE0E92E92E0F92E10E05A
:101D100081E3810F8A83F60161906F01F701719071
:101D20007F01AE014F5F5F4F662D872D0E94E9381E
:101D3000812F29DB9F938F937F936F93BF92AF92F5
:101D40006F928CE0870D8F930E949A391F5F0FB6B8
:101D5000F894DEBF0FBECDBF1830D1F615D50E9466
:101D6000D63D6B017C0152CF10E060E0812F0E94D4
:101D7000B03C1F5F1830C9F70F900F900F90DF91A4
:101D8000CF911F910F91FF90EF90DF90CF90BF9078
:101D9000AF909F908F907F906F900895CF92DF9239
:101DA000EF92FF92CF930E94D63D6B017C01C0E081
:101DB0000E94D63DDC01CB018C199D09AE09BF09FB
:101DC000843F9140A105B10508F049C00E94CA3B7B
:101DD000C82F8E3469F78091020824E0829FF001B9
:101DE0001124EE5BF14F26ED3DE0318320832AE1A3
:101DF00032E033832283E1E0E80F94E0E99FF001D1
:101E00001124EE5BF14F29E93BE0318320832EE082
:101E100032E033832283E2E0E80F24E0E29FF00126
:101E20001124EE5BF14F2AEF3BE03183208324E065
:101E300032E033832283E3E0E80F94E0E99FF0018E
:101E40001124EE5BF14F27EE3CE03183208326EF37
:101E500031E0338322838C5F8093020822C0C1115A
:101E6000BACFCF91FF90EF90DF90CF9008950E946E
:101E7000CA3B8133E0F390E02091020830E0205D1E
:101E80003F4F281739079CF3880F991F880F991F18
:101E9000FC01E258F24F0190F081E02D80E090E0EB
:101EA0000995F2DBE4CF0F931F93CF93DF9360523A
:101EB000462F50E08A010E591A4F012E000C220BBA
:101EC000330B2BBFF8019791440F551F4E555B4FB5
:101ED000052E000C660B770B6BBFFA0147915691EC
:101EE000292F30E0280F311D203831051CF5A09135
:101EF000650E20E8A29FD001112460E070E0282F39
:101F0000260F6917A8F4ED01C20FD11DCD5FD74F81
:101F10008B01040F151F01501D4F012E000C220BC9
:101F2000330B2BBFF801079108836F5F7F4FE7CF1B
:101F3000892F01C080E0DF91CF911F910F9108950B
:101F40007F928F929F92AF92BF92CF92DF92EF9249
:101F5000FF920F931F93CF93DF936052262F30E0B1
:101F6000A9014E595A4F052E000C660B770B6BBF1B
:101F7000FA019791220F331F2E553B4FA901330FC2
:101F8000660B770B6BBFFA0127913691492F50E012
:101F9000480F511D403851050CF098C04091650E16
:101FA000C091660E483058F140E8C49FE00111240A
:101FB0000091680EA0E0B0E0482F4A0FA91708F082
:101FC00083C0BE01640F711DFB01ED5FF74F7F0100
:101FD000A9014A0F5B1F41505D4F052E000C660B97
:101FE000770B6BBFFA01479150E0002E02C0559568
:101FF00047950A94E2F7F70140831196DDCF50E050
:102000000091670E5695542F442757954795C83031
:1020100048F4F0E8CF9FE0011124C090680EE12C55
:10202000F12C21C060E070E0E82FE60F691708F09E
:102030004BC0DA01AE0FB11DAD5FB74FFB01E20F30
:10204000F31FE150FD4F6F01FF0FEE08FF08EBBEDD
:10205000F601C790002E01C0CC0C0A94EAF7CC928E
:102060006F5F7F4FE1CF682F6E0DE91668F570E066
:10207000DA01A60FB71FAD5FB74FF701E20FF31FED
:10208000E150FD4F4F01FF0FAA08BB08ABBEF401A2
:102090007790E72D002E01C0EE0F0A94EAF7EC933B
:1020A0006C0F7D1FDB01AD5FB74FABBEF4018790B6
:1020B000912C0C2C02C0959487940A94E2F78C9290
:1020C0006FEFE61AF60ACFCF892F01C080E0DF91CB
:1020D000CF911F910F91FF90EF90DF90CF90BF9025
:1020E000AF909F908F907F9008958091640E982F6D
:1020F0009695969596959093650E282F30E0295FDA
:102100003F4F43E0359527954A95E1F72093660EBA
:10211000921739F087708093670E98E0981B909320
:10212000680E0895E8E0F1E09081906490839081DA
:102130009F77908380958F70806482B9808180685A
:1021400080830895E8E0F1E090819064908390812D
:102150009F7790838C70806282B980818068808351
:1021600080818F77808362B98081806880830895C1
:10217000E8E0F1E090819064908390819F77908374
:1021800094E692B990819068908390819F77908334
:1021900082B980818068808380818F77808380E6A8
:1021A00082B980818068808380818F77808362B9E3
:1021B0008081806880830895E8E0F1E090819064F8
:1021C000908390819F7790838C70806882B98081A2
:1021D000806880830895A42FA695A695A69590E87B
:1021E000A99FD0011124942F977041E050E001C0C5
:1021F000440F9A95EAF7342F4095681778F0E82F46
:10220000F0E0EA0FFB1FED5FF74F9081222311F002
:10221000932B01C0942390838E5FEFCF0895A42F5A
:10222000A695A695A69590E8A99FD0011124942F74
:10223000977041E050E001C0440F9A95EAF7342FBF
:102240004095681778F0E82FF0E0EA0FFB1FED5F8C
:10225000F74F9081222311F0932B01C09423908398
:102260008F5FEFCF0895CF93DF9390E0C1E0D0E090
:102270004617F8F0562F569556955695362F3770C7
:10228000FC0170E8579FE00DF11D1124ED5FF74F41
:102290005081DE0101C0AA0F3A95EAF7222319F016
:1022A000A52BA08304C03A2F3095352330836E5F71
:1022B000DFCFDF91CF910895CF93DF9390E0C1E01E
:1022C000D0E04617F8F0562F569556955695362F6E
:1022D0003770FC0170E8579FE00DF11D1124ED5F90
:1022E000F74F5081DE0101C0AA0F3A95EAF7222389
:1022F00019F0A52BA08304C03A2F309535233083E5
:102300006F5FDFCFDF91CF9108955F926F927F92E1
:102310008F929F92AF92BF92CF92DF92EF92FF92F5
:102320000F931F93CF93DF93542E962F96959695E8
:102330009695E82EF12C362F3770522F56955695DC
:102340005695722F7770C42ED12C0023C1F110E85E
:10235000919FE0011124FE01EE0DFF1DED5FF74F8F
:102360009080A1E0B0E05D01032E01C0AA0C0A94A8
:10237000EAF7B92CBA28B08240E8549F3001112402
:102380004701860C971CF401ED5FF74FB080072ED4
:1023900001C0AA0F0A94EAF7BB2DBA2BB083CC0D6B
:1023A000DD1DCD5FD74FB881AB2AA882F301EC0DBC
:1023B000FD1DED5FF74FB081AB2BA0833EC0F0E871
:1023C0009F9FE0011124DE01AE0DBF1DAD5FB74F31
:1023D0008C9066246394712C5301032E01C0AA0CC7
:1023E0000A94EAF79A2C9094B82CB920BC9210E881
:1023F000519FD00111245701AA0EBB1EF501ED5FBC
:10240000F74F5F018080F301072E01C0EE0F0A94A1
:10241000EAF74E2F40958422F5018082CC0DDD1D18
:10242000CD5FD74FA880A920A882AC0DBD1DAD5FA0
:10243000B74FFC91E42FEF23EC938F5FF0E89F9F61
:1024400030011124E1E0F0E05F0101C0AA0C3A95EF
:10245000EAF7BA2C10E8519FE001112401C0EE0FF9
:102460007A95EAF73E2FA0949E2F9095851500F55A
:10247000E82FF0E043018E0E9F1EA4014D5F574FE1
:10248000DA015C91002349F05B295C93EC0FFD1F9E
:10249000ED5FF74F5081532B08C05A215C93EC0F2E
:1024A000FD1FED5FF74F5081592350838F5FDECFC3
:1024B0006F5F81E090E0621708F03FC0E62FE6957D
:1024C000E695E695462F47700023D1F0B0E8EB9FE4
:1024D000F0011124D701AE0FBF1FAD5FB74F3C9184
:1024E000EC0102C0CC0FDD1F4A95E2F73C2B3C9378
:1024F000EC0DFD1DED5FF74F30813C2B30831BC091
:10250000D0E8ED9FF0011124D701AE0FBF1FAD5FE2
:10251000B74F3C91EC0102C0CC0FDD1F4A95E2F7AA
:10252000AE01409534233C93EC0DFD1DED5FF74F5C
:102530003081432340836F5FBECFDF91CF911F91E6
:102540000F91FF90EF90DF90CF90BF90AF909F9052
:102550008F907F906F905F9008950F93CF93DF934C
:102560008F776F734F772F73011103C0C1E0D0E0F5
:1025700023C071E0261708F43FC0A62FA695A695A4
:10258000A69590E8A99FD0011124962F9770572FF8
:1025900001C0550F9A95EAF7982F491750F0FD01A1
:1025A000E90FF11DED5FF74F3081352B30839F5FD1
:1025B000F4CF6F5FDFCF6F5F2617F0F0A62FA695E1
:1025C000A695A69590E8A99FD0011124962F977003
:1025D000FE0101C0EE0F9A95EAF73E2F3095982F35
:1025E000491748F3FD01E90FF11DED5FF74F5081E9
:1025F000532350839F5FF4CFDF91CF910F910895C4
:1026000071E02617F0F0A62FA695A695A69590E85E
:10261000A99FD0011124962F9770572F01C0550FF5
:102620009A95EAF7982F491750F0FD01E90FF11D2F
:10263000ED5FF74F3081352730839F5FF4CF6F5FB9
:10264000E0CF089590E8899FA001112420E030E0B8
:10265000FA01E20FF31FED5FF74F908190959083A1
:102660002F5F3F4F2038310599F7089520E8829F6A
:10267000C001112420E030E0FC01E20FF31FED5F08
:10268000F74F10822F5F3F4F20383105A9F708958B
:1026900020E8829FC0011124461740F0FC01E60F9C
:1026A000F11DED5FF74F10826F5FF6CF089590E850
:1026B000899F90011124461750F0F901E60FF11D92
:1026C000ED5FF74F9081909590836F5FF4CF089501
:1026D0006F927F929F92AF92BF92CF92DF92EF92D2
:1026E000FF920F931F93CF93DF93FA019080C281E3
:1026F000D381AC2EB12C20E030E070E090E0DD27FB
:10270000B91448F5D9017B01E21AF30A8C010B0DCB
:10271000111DEA2FE21BEA15D0F4F701EA0FFB1FA7
:10272000F695FE2FEE27F795E7953F01600E711E97
:10273000F301ED5FF74F3F01FA01C480D580CA0E67
:10274000DB1EF601D080F301D0821196E2CF2C0F70
:102750003D1FB394D5CFDF91CF911F910F91FF9083
:10276000EF90DF90CF90BF90AF909F907F906F9051
:10277000089580E094E0E3E0F8E0DF019C011D9221
:1027800021503040E1F70895CF93DF9360E080E07F
:10279000EFDCE8E0F1E080818F7B808380818F77C0
:1027A0008083A3E0B8E08C9182B9808180688083C7
:1027B00080818F77808311968C91119782B9808167
:1027C0008068808380818F77808312968C911297A6
:1027D00082B980818068808380818F77808313961F
:1027E0008C91139782B980818068808380818F77F4
:1027F000808314968C91149782B98081806880833D
:1028000080818F77808315968C91159782B980810E
:102810008068808380818F77808316968C9116974D
:1028200082B980818068808380818F7780831796CA
:102830008C91179782B980818068808380818F779F
:10284000808318968C91189782B9808180688083E4
:1028500080818F77808319968C91199782B98081B6
:102860008068808380818F7780831A968C911A97F5
:1028700082B980818068808380818F7780831B9676
:102880008C911B9782B980818068808380818F774B
:1028900080831C968C911C9782B98081806880838C
:1028A00080818F7780831D968C911D9782B980815E
:1028B0008068808380818F7780831E968C911E979D
:1028C00082B980818068808380818F7780831F9622
:1028D0008C911F9782B980818068808380818F77F7
:1028E000808350968C91509782B9808180688083D4
:1028F00080818F77808351968C91519782B98081A6
:102900008068808380818F77808352968C915297E4
:1029100082B980818068808380818F77808353969D
:102920008C91539782B980818068808380818F7772
:10293000808354968C91549782B98081806880837B
:1029400080818F77808355968C91559782B980814D
:102950008068808380818F77808356968C9156978C
:1029600082B980818068808380818F778083579649
:102970008C91579782B980818068808380818F771E
:10298000808358968C91589782B980818068808323
:1029900080818F77808359968C91599782B98081F5
:1029A0008068808380818F7780835A968C915A9734
:1029B00082B980818068808380818F7780835B96F5
:1029C0008C915B9782B980818068808380818F77CA
:1029D00080835C968C915C9782B9808180688083CB
:1029E00080818F7780835D968C915D9782B980819D
:1029F0008068808380818F7780835E968C915E97DC
:102A000082B980818068808380818F7780835F96A0
:102A10008C915F9782B980818068808380818F7775
:102A2000808390968C91909782B980818068808312
:102A300080818F77808391968C91919782B98081E4
:102A40008068808380818F77808392968C91929723
:102A500082B980818068808380818F77808393961C
:102A60008C91939782B980818068808380818F77F1
:102A7000808394968C91949782B9808180688083BA
:102A800080818F77808395968C91959782B980818C
:102A90008068808380818F77808396968C919697CB
:102AA00082B980818068808380818F7780839796C8
:102AB0008C91979782B980818068808380818F779D
:102AC000808398968C91989782B980818068808362
:102AD00080818F77808399968C91999782B9808134
:102AE0008068808380818F7780839A968C919A9773
:102AF00082B980818068808380818F7780839B9674
:102B00008C919B9782B980818068808380818F7748
:102B100080839C968C919C9782B980818068808309
:102B200080818F7780839D968C919D9782B98081DB
:102B30008068808380818F7780839E968C919E971A
:102B400082B980818068808380818F7780839F961F
:102B50008C919F9782B980818068808380818F77F4
:102B60008083D0968C91D09782B980818068808351
:102B700080818F778083D1968C91D19782B9808123
:102B80008068808380818F778083D2968C91D29762
:102B900082B980818068808380818F778083D3969B
:102BA0008C91D39782B980818068808380818F7770
:102BB0008083D4968C91D49782B9808180688083F9
:102BC00080818F778083D5968C91D59782B98081CB
:102BD0008068808380818F778083D6968C91D6970A
:102BE00082B980818068808380818F778083D79647
:102BF0008C91D79782B980818068808380818F771C
:102C00008083D8968C91D89782B9808180688083A0
:102C100080818F778083D9968C91D99782B9808172
:102C20008068808380818F778083DA968C91DA97B1
:102C300082B980818068808380818F778083DB96F2
:102C40008C91DB9782B980818068808380818F77C7
:102C50008083DC968C91DC9782B980818068808348
:102C600080818F778083DD968C91DD9782B980811A
:102C70008068808380818F778083DE968C91DE9759
:102C800082B980818068808380818F778083DF969E
:102C90008C9182B980818068808380818F778083E6
:102CA0008091430882B980818068808380818F779A
:102CB00080838091440882B980818068808380818C
:102CC0008F7780838091450882B980818068808376
:102CD00080818F7780838091460882B98081806867
:102CE000808380818F7780838091470882B980813B
:102CF0008068808380818F7780838091480882B943
:102D000080818068808380818F778083809149086B
:102D100082B9C8E0D1E080818068808380818F772C
:102D2000808380914A0882B9808180688083808115
:102D30008F77808380914B0882B9808180688083FF
:102D400080818F77808380914C0882B980818068F0
:102D5000808380818F77808380914D0882B98081C4
:102D60008068808380818F77808380914E0882B9CC
:102D700080818068808380818F77808380914F08F5
:102D800082B980818068808380818F778083809101
:102D9000500882B980818068808380818F778083AA
:102DA0008091510882B980818068808380818F778B
:102DB00080838091520882B980818068808380817D
:102DC0008F7780838091530882B980818068808367
:102DD00080818F7780838091540882B98081806858
:102DE000808380818F7780838091550882B980812C
:102DF0008068808380818F7780838091560882B934
:102E000080818068808380818F778083809157085C
:102E100082B980818068808380818F778083809170
:102E2000580882B980818068808380818F77808311
:102E30008091590882B980818068808380818F77F2
:102E4000808380915A0882B98081806880838081E4
:102E50008F77808380915B0882B9808180688083CE
:102E600080818F77808380915C0882B980818068BF
:102E7000808380818F77808380915D0882B9808193
:102E80008068808380818F77808380915E0882B99B
:102E900080818068808380818F77808380915F08C4
:102EA00082B980818068808380818F7780838091E0
:102EB000600882B980818068808380818F77808379
:102EC0008091610882B980818068808380818F775A
:102ED00080838091620882B980818068808380814C
:102EE0008F7780838091630882B980818068808336
:102EF00080818F7780838091640882B98081806827
:102F0000808380818F7780838091650882B98081FA
:102F10008068808380818F7780838091660882B902
:102F200080818068808380818F778083809167082B
:102F300082B980818068808380818F77808380914F
:102F4000680882B980818068808380818F778083E0
:102F50008091690882B980818068808380818F77C1
:102F6000808380916A0882B98081806880838081B3
:102F70008F77808380916B0882B98081806880839D
:102F800080818F77808380916C0882B9808180688E
:102F9000808380818F77808380916D0882B9808162
:102FA0008068808380818F77808380916E0882B96A
:102FB00080818068808380818F77808380916F0893
:102FC00082B980818068808380818F7780838091BF
:102FD000700882B980818068808380818F77808348
:102FE0008091710882B980818068808380818F7729
:102FF00080838091720882B980818068808380811B
:103000008F7780838091730882B980818068808304
:1030100080818F7780838091740882B980818068F5
:10302000808380818F7780838091750882B98081C9
:103030008068808380818F7780838091760882B9D1
:1030400080818068808380818F77808380917708FA
:1030500082B980818068808380818F77808380912E
:10306000780882B988818068888388818F7788838F
:103070008091790882B988818068888388818F7778
:10308000888380917A0882B9888180688883888162
:103090008F77888380917B0882B988818068888354
:1030A00088818F77888380917C0882B98881806845
:1030B000888388818F77888380917D0882B9888111
:1030C0008068888388818F77888380917E0882B921
:1030D00088818068888388818F77888380917F0842
:1030E00082B988818068888388818F77888380917E
:1030F000800882B988818068888388818F778883F7
:103100008091810882B988818068888388818F77DF
:1031100088838091820882B988818068888361E091
:1031200080E026D888818F7B888388818F77888309
:103130008091830882B988818068888388818F77AD
:1031400088838091840882B9888180688883888197
:103150008F7788838091850882B988818068888389
:1031600088818F7788838091860882B9888180687A
:10317000888388818F7788838091870882B9888146
:103180008068888388818F7788838091880882B956
:1031900088818068888388818F7788838091890877
:1031A00082B988818068888388818F7788838091BD
:1031B0008A0882B988818068888388818F7788832C
:1031C00080918B0882B9E8E0F1E08081806880839B
:1031D00080818F77808380918C0882B9808180681C
:1031E000808380818F77808380918D0882B98081F0
:1031F0008068808380818F77808380918E0882B9F8
:1032000080818068808380818F77808380918F0820
:1032100082B980818068808380818F77808380916C
:10322000900882B980818068808380818F778083D5
:103230008091910882B980818068808380818F77B6
:1032400080838091920882B98081806880838081A8
:103250008F7780838091930882B980818068808392
:1032600080818F7780838091940882B98081806883
:10327000808380818F7780838091950882B9808157
:103280008068808380818F7780838091960882B95F
:1032900080818068808380818F7780838091970888
:1032A00082B980818068808380818F7780838091DC
:1032B000980882B980818068808380818F7780833D
:1032C0008091990882B980818068808380818F771E
:1032D000808380919A0882B9808180688083808110
:1032E0008F77808380919B0882B9808180688083FA
:1032F00080818F77808380919C0882B980818068EB
:10330000808380818F77808380919D0882B98081BE
:103310008068808380818F77808380919E0882B9C6
:1033200080818068808380818F77808380919F08EF
:1033300082B980818068808380818F77808380914B
:10334000A00882B980818068808380818F778083A4
:103350008091A10882B980818068808380818F7785
:1033600080838091A20882B9808180688083808177
:103370008F7780838091A30882B980818068808361
:1033800080818F7780838091A40882B98081806852
:10339000808380818F7780838091A50882B9808126
:1033A0008068808380818F7780838091A60882B92E
:1033B00080818068808380818F7780838091A70857
:1033C00082B980818068808380818F7780838091BB
:1033D000A80882B980818068808380818F7780830C
:1033E0008091A90882B980818068808380818F77ED
:1033F00080838091AA0882B98081806880838081DF
:103400008F7780838091AB0882B9808180688083C8
:1034100080818F7780838091AC0882B980818068B9
:10342000808380818F7780838091AD0882B980818D
:103430008068808380818F7780838091AE0882B995
:1034400080818068808380818F7780838091AF08BE
:1034500082B980818068808380818F77808380912A
:10346000B00882B980818068808380818F77808373
:103470008091B10882B980818068808380818F7754
:1034800080838091B20882B9808180688083808146
:103490008F7780838091B30882B980818068808330
:1034A00080818F7780838091B40882B98081806821
:1034B000808380818F7780838091B50882B98081F5
:1034C0008068808380818F7780838091B60882B9FD
:1034D00080818068808380818F7780838091B70826
:1034E00082B980818068808380818F77808380919A
:1034F000B80882B980818068808380818F778083DB
:103500008091B90882B980818068808380818F77BB
:1035100080838091BA0882B98081806880838081AD
:103520008F7780838091BB0882B980818068808397
:1035300080818F7780838091BC0882B98081806888
:10354000808380818F7780838091BD0882B980815C
:103550008068808380818F7780838091BE0882B964
:1035600080818068808380818F7780838091BF088D
:1035700082B980818068808380818F778083809109
:10358000C00882B980818068808380818F77808342
:103590008091C10882B980818068808380818F7723
:1035A00080838091C20882B9808180688083808115
:1035B0008F7780838091C30882B9808180688083FF
:1035C00080818F7780838091C40882B980818068F0
:1035D000808380818F7780838091C50882B98081C4
:1035E0008068808380818F7780838091C60882B9CC
:1035F00080818068808380818F7780838091C708F5
:1036000082B980818068808380818F778083809178
:10361000C80882B980818068808380818F778083A9
:103620008091C90882B980818068808380818F778A
:1036300080838091CA0882B980818068808380817C
:103640008F7780838091CB0882B980818068808366
:1036500080818F7780838091CC0882B98081806857
:10366000808380818F7780838091CD0882B980812B
:103670008068808380818F7780838091CE0882B933
:1036800080818068808380818F7780838091CF085C
:1036900082B980818068808380818F7780838091E8
:1036A000D00882B980818068808380818F77808311
:1036B0008091D10882B980818068808380818F77F2
:1036C00080838091D20882B98081806880838081E4
:1036D0008F7780838091D30882B9808180688083CE
:1036E00080818F7780838091D40882B980818068BF
:1036F000808380818F7780838091D50882B9808193
:103700008068808380818F7780838091D60882B99A
:1037100080818068808380818F7780838091D708C3
:1037200082B980818068808380818F778083809157
:10373000D80882B980818068808380818F77808378
:103740008091D90882B980818068808380818F7759
:1037500080838091DA0882B980818068808380814B
:103760008F7780838091DB0882B980818068808335
:1037700080818F7780838091DC0882B98081806826
:10378000808380818F7780838091DD0882B98081FA
:103790008068808380818F7780838091DE0882B902
:1037A00080818068808380818F7780838091DF082B
:1037B00082B980818068808380818F7780838091C7
:1037C000E00882B980818068808380818F778083E0
:1037D0008091E10882B980818068808380818F77C1
:1037E00080838091E20882B98081806880838081B3
:1037F0008F7780838091E30882B98081806880839D
:1038000080818F7780838091E40882B9808180688D
:10381000808380818F7780838091E50882B9808161
:103820008068808380818F7780838091E60882B969
:1038300088818068888388818F7788838091E70872
:1038400082B988818068888388818F778883809116
:10385000E80882B988818068888388818F77888327
:103860008091E90882B988818068888388818F7710
:1038700088838091EA0882B98881806888838881FA
:103880008F7788838091EB0882B9888180688883EC
:1038900088818F7788838091EC0882B988818068DD
:1038A000888388818F7788838091ED0882B98881A9
:1038B0008068888388818F7788838091EE0882B9B9
:1038C00088818068888388818F7788838091EF08DA
:1038D00082B988818068888388818F778883809186
:1038E000F00882B988818068888388818F7788838F
:1038F0008091F10882B988818068888388818F7778
:1039000088838091F20882B9888180688883888161
:103910008F7788838091F30882B988818068888353
:1039200088818F7788838091F40882B98881806844
:10393000888388818F7788838091F50882B9888110
:103940008068888388818F7788838091F60882B920
:1039500088818068888388818F7788838091F70841
:1039600082B988818068888388818F7788838091F5
:10397000F80882B988818068888388818F778883F6
:103980008091F90882B988818068888388818F77DF
:1039900088838091FA0882B98881806888838881C9
:1039A0008F7788838091FB0882B9888180688883BB
:1039B00088818F7788838091FC0882B988818068AC
:1039C000888388818F7788838091FD0882B9888178
:1039D0008068888388818F7788838091FE0882B988
:1039E00088818068888388818F7788838091FF08A9
:1039F00082B988818068888388818F778883809165
:103A0000000982B988818068888388818F7788835C
:103A10008091010982B988818068888388818F7745
:103A200088838091020982B988818068888362E0F6
:103A300080E00E94B81088818F7B888388818F778F
:103A400088838091030982B988818068888388810E
:103A50008F7788838091040982B988818068888300
:103A600088818F7788838091050982B988818068F1
:103A7000888388818F7788838091060982B98881BD
:103A80008068888388818F7788838091070982B9CD
:103A900088818068888388818F77888380910809EE
:103AA00082B988818068888388818F7788838091B4
:103AB000090982B988818068888388818F778883A3
:103AC00080910A0982B988818068888388818F778C
:103AD000888380910B0982B9888180688883888176
:103AE0008F77888380910C0982B988818068888368
:103AF00088818F77888380910D0982B98881806859
:103B0000888388818F77888380910E0982B9888124
:103B10008068888388818F77888380910F0982B934
:103B200088818068888388818F7788838091100955
:103B300082B988818068E8E0F1E0808380818F77B6
:103B400080838091110982B980818068808380811F
:103B50008F7780838091120982B980818068808309
:103B600080818F7780838091130982B980818068FA
:103B7000808380818F7780838091140982B98081CE
:103B80008068808380818F7780838091150982B9D6
:103B900080818068808380818F77808380911609FF
:103BA00082B980818068808380818F7780838091D3
:103BB000170982B980818068808380818F778083B4
:103BC0008091180982B980818068808380818F7795
:103BD00080838091190982B9808180688083808187
:103BE0008F77808380911A0982B980818068808371
:103BF00080818F77808380911B0982B98081806862
:103C0000808380818F77808380911C0982B9808135
:103C10008068808380818F77808380911D0982B93D
:103C200080818068808380818F77808380911E0966
:103C300082B980818068808380818F778083809142
:103C40001F0982B980818068808380818F7780831B
:103C50008091200982B980818068808380818F77FC
:103C600080838091210982B98081806880838081EE
:103C70008F7780838091220982B9808180688083D8
:103C800080818F7780838091230982B980818068C9
:103C9000808380818F7780838091240982B980819D
:103CA0008068808380818F7780838091250982B9A5
:103CB00080818068808380818F77808380912609CE
:103CC00082B980818068808380818F7780838091B2
:103CD000270982B980818068808380818F77808383
:103CE0008091280982B980818068808380818F7764
:103CF00080838091290982B9808180688083808156
:103D00008F77808380912A0982B98081806880833F
:103D100080818F77808380912B0982B98081806830
:103D2000808380818F77808380912C0982B9808104
:103D30008068808380818F77808380912D0982B90C
:103D400080818068808380818F77808380912E0935
:103D500082B980818068808380818F778083809121
:103D60002F0982B980818068808380818F778083EA
:103D70008091300982B980818068808380818F77CB
:103D800080838091310982B98081806880838081BD
:103D90008F7780838091320982B9808180688083A7
:103DA00080818F7780838091330982B98081806898
:103DB000808380818F7780838091340982B980816C
:103DC0008068808380818F7780838091350982B974
:103DD00080818068808380818F778083809136099D
:103DE00082B980818068808380818F778083809191
:103DF000370982B980818068808380818F77808352
:103E00008091380982B980818068808380818F7732
:103E100080838091390982B9808180688083808124
:103E20008F77808380913A0982B98081806880830E
:103E300080818F77808380913B0982B980818068FF
:103E4000808380818F77808380913C0982B98081D3
:103E50008068808380818F77808380913D0982B9DB
:103E600080818068808380818F77808380913E0904
:103E700082B980818068808380818F778083809100
:103E80003F0982B980818068808380818F778083B9
:103E90008091400982B980818068808380818F779A
:103EA00080838091410982B980818068808380818C
:103EB0008F7780838091420982B980818068808376
:103EC00080818F7780838091430982B98081806867
:103ED000808380818F7780838091440982B980813B
:103EE0008068808380818F7780838091450982B943
:103EF00080818068808380818F778083809146096C
:103F000082B980818068808380818F77808380916F
:103F1000470982B980818068808380818F77808320
:103F20008091480982B980818068808380818F7701
:103F300080838091490982B98081806880838081F3
:103F40008F77808380914A0982B9808180688083DD
:103F500080818F77808380914B0982B980818068CE
:103F6000808380818F77808380914C0982B98081A2
:103F70008068808380818F77808380914D0982B9AA
:103F800080818068808380818F77808380914E09D3
:103F900082B980818068808380818F7780838091DF
:103FA0004F0982B980818068808380818F77808388
:103FB0008091500982B980818068808380818F7769
:103FC00080838091510982B980818068808380815B
:103FD0008F7780838091520982B980818068808345
:103FE00080818F7780838091530982B98081806836
:103FF000808380818F7780838091540982B980810A
:104000008068808380818F7788838091550982B909
:1040100088818068888388818F778883809156091A
:1040200082B988818068888388818F77888380912E
:10403000570982B988818068888388818F778883CF
:104040008091580982B988818068888388818F77B8
:1040500088838091590982B98881806888838881A2
:104060008F77888380915A0982B988818068888394
:1040700088818F77888380915B0982B98881806885
:10408000888388818F77888380915C0982B9888151
:104090008068888388818F77888380915D0982B961
:1040A00088818068888388818F77888380915E0982
:1040B00082B988818068888388818F77888380919E
:1040C0005F0982B988818068888388818F77888337
:1040D0008091600982B988818068888388818F7720
:1040E00088838091610982B988818068888388810A
:1040F0008F7788838091620982B9888180688883FC
:1041000088818F7788838091630982B988818068EC
:10411000888388818F7788838091640982B98881B8
:104120008068888388818F7788838091650982B9C8
:1041300088818068888388818F77888380916609E9
:1041400082B988818068888388818F77888380910D
:10415000670982B988818068888388818F7788839E
:104160008091680982B988818068888388818F7787
:1041700088838091690982B9888180688883888171
:104180008F77888380916A0982B988818068888363
:1041900088818F77888380916B0982B98881806854
:1041A000888388818F77888380916C0982B9888120
:1041B0008068888388818F77888380916D0982B930
:1041C00088818068888388818F77888380916E0951
:1041D00082B988818068888388818F77888380917D
:1041E0006F0982B988818068888388818F77888306
:1041F0008091700982B988818068888388818F77EF
:1042000088838091710982B98881806888838881D8
:104210008F7788838091720982B9888180688883CA
:1042200088818F7788838091730982B988818068BB
:10423000888388818F7788838091740982B9888187
:104240008068888388818F7788838091750982B997
:1042500088818068888388818F77888380917609B8
:1042600082B988818068888388818F7788838091EC
:10427000770982B988818068888388818F7788836D
:104280008091780982B988818068888388818F7756
:1042900088838091790982B9888180688883888140
:1042A0008F77888380917A0982B988818068888332
:1042B00088818F77888380917B0982B98881806823
:1042C000888388818F77888380917C0982B98881EF
:1042D0008068888388818F77888380917D0982B9FF
:1042E00088818068888388818F77888380917E0920
:1042F00082B988818068888388818F77888380915C
:104300007F0982B988818068888388818F778883D4
:104310008091800982B988818068888388818F77BD
:1043200088838091810982B98881806888838881A7
:104330008F7788838091820982B988818068888399
:1043400063E080E00E94B81088818F7B8883888139
:104350008F7788838091830982B988818068888378
:1043600088818F7788838091840982B98881806869
:10437000888388818F7788838091850982B9888135
:104380008068888388818F7788838091860982B945
:1043900088818068888388818F7788838091870966
:1043A00082B988818068888388818F7788838091AB
:1043B000880982B988818068888388818F7788831B
:1043C0008091890982B988818068888388818F7704
:1043D000888380918A0982B98881806888838881EE
:1043E0008F77888380918B0982B9888180688883E0
:1043F00088818F77888380918C0982B988818068D1
:10440000888388818F77888380918D0982B988819C
:104410008068888388818F77888380918E0982B9AC
:1044200088818068888388818F77888380918F09CD
:1044300082B988818068888388818F77888380911A
:10444000900982B988818068888388818F77888382
:104450008091910982B988818068888388818F776B
:1044600088838091920982B9888180688883888155
:104470008F7788838091930982B988818068888347
:1044800088818F7788838091940982B98881806838
:10449000888388818F7788838091950982B9888104
:1044A0008068E8E0F1E0808380818F77808380916D
:1044B000960982B980818068808380818F7780832C
:1044C0008091970982B980818068808380818F770D
:1044D00080838091980982B98081806880838081FF
:1044E0008F7780838091990982B9808180688083E9
:1044F00080818F77808380919A0982B980818068DA
:10450000808380818F77808380919B0982B98081AD
:104510008068808380818F77808380919C0982B9B5
:1045200080818068808380818F77808380919D09DE
:1045300082B980818068808380818F778083809139
:104540009E0982B980818068808380818F77808393
:1045500080919F0982B980818068808380818F7774
:1045600080838091A00982B9808180688083808166
:104570008F7780838091A10982B980818068808350
:1045800080818F7780838091A20982B98081806841
:10459000808380818F7780838091A30982B9808115
:1045A0008068808380818F7780838091A40982B91D
:1045B00080818068808380818F7780838091A50946
:1045C00082B980818068808380818F7780838091A9
:1045D000A60982B980818068808380818F778083FB
:1045E0008091A70982B980818068808380818F77DC
:1045F00080838091A80982B98081806880838081CE
:104600008F7780838091A90982B9808180688083B7
:1046100080818F7780838091AA0982B980818068A8
:10462000808380818F7780838091AB0982B980817C
:104630008068808380818F7780838091AC0982B984
:1046400080818068808380818F7780838091AD09AD
:1046500082B980818068808380818F778083809118
:10466000AE0982B980818068808380818F77808362
:104670008091AF0982B980818068808380818F7743
:1046800080838091B00982B9808180688083808135
:104690008F7780838091B10982B98081806880831F
:1046A00080818F7780838091B20982B98081806810
:1046B000808380818F7780838091B30982B98081E4
:1046C0008068808380818F7780838091B40982B9EC
:1046D00080818068808380818F7780838091B50915
:1046E00082B980818068808380818F778083809188
:1046F000B60982B980818068808380818F778083CA
:104700008091B70982B980818068808380818F77AA
:1047100080838091B80982B980818068808380819C
:104720008F7780838091B90982B980818068808386
:1047300080818F7780838091BA0982B98081806877
:10474000808380818F7780838091BB0982B980814B
:104750008068808380818F7780838091BC0982B953
:1047600080818068808380818F7780838091BD097C
:1047700082B980818068808380818F7780838091F7
:10478000BE0982B980818068808380818F77808331
:104790008091BF0982B980818068808380818F7712
:1047A00080838091C00982B9808180688083808104
:1047B0008F7780838091C10982B9808180688083EE
:1047C00080818F7780838091C20982B980818068DF
:1047D000808380818F7780838091C30982B98081B3
:1047E0008068808380818F7780838091C40982B9BB
:1047F00080818068808380818F7780838091C509E4
:1048000082B980818068808380818F778083809166
:10481000C60982B980818068808380818F77808398
:104820008091C70982B980818068808380818F7779
:1048300080838091C80982B980818068808380816B
:104840008F7780838091C90982B980818068808355
:1048500080818F7780838091CA0982B98081806846
:10486000808380818F7780838091CB0982B980811A
:104870008068808380818F7780838091CC0982B922
:1048800080818068808380818F7780838091CD094B
:1048900082B980818068808380818F7780838091D6
:1048A000CE0982B980818068808380818F77808300
:1048B0008091CF0982B980818068808380818F77E1
:1048C00080838091D00982B98081806880838081D3
:1048D0008F7780838091D10982B9808180688083BD
:1048E00080818F7780838091D20982B980818068AE
:1048F000808380818F7780838091D30982B9808182
:104900008068808380818F7780838091D40982B989
:1049100080818068808380818F7780838091D509B2
:1049200082B980818068808380818F778083809145
:10493000D60982B980818068808380818F77808367
:104940008091D70982B980818068808380818F7748
:1049500080838091D80982B9888180688883888122
:104960008F7788838091D90982B98881806888830C
:1049700088818F7788838091DA0982B988818068FD
:10498000888388818F7788838091DB0982B98881C9
:104990008068888388818F7788838091DC0982B9D9
:1049A00088818068888388818F7788838091DD09FA
:1049B00082B988818068888388818F778883809195
:1049C000DE0982B988818068888388818F778883AF
:1049D0008091DF0982B988818068888388818F7798
:1049E00088838091E00982B9888180688883888182
:1049F0008F7788838091E10982B988818068888374
:104A000088818F7788838091E20982B98881806864
:104A1000888388818F7788838091E30982B9888130
:104A20008068888388818F7788838091E40982B940
:104A300088818068888388818F7788838091E50961
:104A400082B988818068888388818F778883809104
:104A5000E60982B988818068888388818F77888316
:104A60008091E70982B988818068888388818F77FF
:104A700088838091E80982B98881806888838881E9
:104A80008F7788838091E90982B9888180688883DB
:104A900088818F7788838091EA0982B988818068CC
:104AA000888388818F7788838091EB0982B9888198
:104AB0008068888388818F7788838091EC0982B9A8
:104AC00088818068888388818F7788838091ED09C9
:104AD00082B988818068888388818F778883809174
:104AE000EE0982B988818068888388818F7788837E
:104AF0008091EF0982B988818068888388818F7767
:104B000088838091F00982B9888180688883888150
:104B10008F7788838091F10982B988818068888342
:104B200088818F7788838091F20982B98881806833
:104B3000888388818F7788838091F30982B98881FF
:104B40008068888388818F7788838091F40982B90F
:104B500088818068888388818F7788838091F50930
:104B600082B988818068888388818F7788838091E3
:104B7000F60982B988818068888388818F778883E5
:104B80008091F70982B988818068888388818F77CE
:104B900088838091F80982B98881806888838881B8
:104BA0008F7788838091F90982B9888180688883AA
:104BB00088818F7788838091FA0982B9888180689B
:104BC000888388818F7788838091FB0982B9888167
:104BD0008068888388818F7788838091FC0982B977
:104BE00088818068888388818F7788838091FD0998
:104BF00082B988818068888388818F778883809153
:104C0000FE0982B988818068888388818F7788834C
:104C10008091FF0982B988818068888388818F7735
:104C200088838091000A82B988818068888388811E
:104C30008F7788838091010A82B988818068888310
:104C400088818F7788838091020A82B98881806801
:104C5000888364E080E00E94B81088818F7B88831D
:104C600088818F7788838091030A82B988818068E0
:104C7000888388818F7788838091040A82B98881AC
:104C80008068888388818F7788838091050A82B9BC
:104C900088818068888388818F7788838091060ADD
:104CA00082B988818068888388818F7788838091A2
:104CB000070A82B988818068888388818F77888392
:104CC0008091080A82B988818068888388818F777B
:104CD00088838091090A82B9888180688883888165
:104CE0008F77888380910A0A82B988818068888357
:104CF00088818F77888380910B0A82B98881806848
:104D0000888388818F77888380910C0A82B9888113
:104D10008068888388818F77888380910D0A82B923
:104D200088818068888388818F77888380910E0A44
:104D300082B988818068888388818F778883809111
:104D40000F0A82B988818068888388818F778883F9
:104D50008091100A82B988818068888388818F77E2
:104D600088838091110A82B98881806888838881CC
:104D70008F7788838091120A82B9888180688883BE
:104D800088818F7788838091130A82B988818068AF
:104D9000888388818F7788838091140A82B988817B
:104DA0008068888388818F7788838091150A82B98B
:104DB00088818068888388818F7788838091160AAC
:104DC00082B988818068888388818F778883809181
:104DD000170A82B988818068888388818F77888361
:104DE0008091180A82B988818068888388818F774A
:104DF00088838091190A82B9888180688883888134
:104E00008F77888380911A0A82B988818068888325
:104E1000E8E0F1E088818F77888380911B0A82B96E
:104E200088818068888388818F77888380911C0A35
:104E300082B988818068888388818F778883809110
:104E40001D0A82B988818068888388818F778883EA
:104E500080911E0A82B988818068888388818F77D3
:104E6000888380911F0A82B98881806888838881BD
:104E70008F7788838091200A82B9888180688883AF
:104E800088818F7788838091210A82B988818068A0
:104E9000888388818F7788838091220A82B988816C
:104EA0008068888388818F7788838091230A82B97C
:104EB00088818068888388818F7788838091240A9D
:104EC00082B988818068888388818F778883809180
:104ED000250A82B988818068888388818F77888352
:104EE0008091260A82B988818068888388818F773B
:104EF00088838091270A82B9888180688883888125
:104F00008F7788838091280A82B988818068888316
:104F100088818F7788838091290A82B98881806807
:104F2000888388818F77888380912A0A82B98881D3
:104F30008068888388818F77888380912B0A82B9E3
:104F400088818068888388818F77888380912C0A04
:104F500082B988818068888388818F7788838091EF
:104F60002D0A82B988818068888388818F778883B9
:104F700080912E0A82B988818068888388818F77A2
:104F8000888380912F0A82B988818068888388818C
:104F90008F7788838091300A82B98881806888837E
:104FA00088818F7788838091310A82B9888180686F
:104FB000888380818F7780838091320A82B9808153
:104FC0008068808380818F7780838091330A82B963
:104FD00080818068808380818F7780838091340A8C
:104FE00082B980818068808380818F77808380917F
:104FF000350A82B980818068808380818F77808341
:105000008091360A82B980818068808380818F7721
:1050100080838091370A82B9808180688083808113
:105020008F7780838091380A82B9808180688083FD
:1050300080818F7780838091390A82B980818068EE
:10504000808380818F77808380913A0A82B98081C2
:105050008068808380818F77808380913B0A82B9CA
:1050600080818068808380818F77808380913C0AF3
:1050700082B980818068808380818F7780838091EE
:105080003D0A82B980818068808380818F778083A8
:1050900080913E0A82B980818068808380818F7789
:1050A000808380913F0A82B980818068808380817B
:1050B0008F7780838091400A82B980818068808365
:1050C00080818F7780838091410A82B98081806856
:1050D000808380818F7780838091420A82B980812A
:1050E0008068808380818F7780838091430A82B932
:1050F00080818068808380818F7780838091440A5B
:1051000082B980818068808380818F77808380915D
:10511000450A82B980818068808380818F7780830F
:105120008091460A82B980818068808380818F77F0
:1051300080838091470A82B98081806880838081E2
:105140008F7780838091480A82B9808180688083CC
:1051500080818F7780838091490A82B980818068BD
:10516000808380818F77808380914A0A82B9808191
:105170008068808380818F77808380914B0A82B999
:1051800080818068808380818F77808380914C0AC2
:1051900082B980818068808380818F7780838091CD
:1051A0004D0A82B980818068808380818F77808377
:1051B00080914E0A82B980818068808380818F7758
:1051C000808380914F0A82B980818068808380814A
:1051D0008F7780838091500A82B980818068808334
:1051E00080818F7780838091510A82B98081806825
:1051F000808380818F7780838091520A82B98081F9
:105200008068808380818F7780838091530A82B900
:1052100080818068808380818F7780838091540A29
:1052200082B980818068808380818F77808380913C
:10523000550A82B980818068808380818F778083DE
:105240008091560A82B980818068808380818F77BF
:1052500080838091570A82B98081806880838081B1
:105260008F7780838091580A82B98081806880839B
:1052700080818F7780838091590A82B9808180688C
:10528000808380818F77808380915A0A82B9808160
:105290008068808380818F77808380915B0A82B968
:1052A00080818068808380818F77808380915C0A91
:1052B00082B980818068808380818F7780838091AC
:1052C0005D0A82B988818068888388818F77888326
:1052D00080915E0A82B988818068888388818F770F
:1052E000888380915F0A82B98881806888838881F9
:1052F0008F7788838091600A82B9888180688883EB
:1053000088818F7788838091610A82B988818068DB
:10531000888388818F7788838091620A82B98881A7
:105320008068888388818F7788838091630A82B9B7
:1053300088818068888388818F7788838091640AD8
:1053400082B988818068888388818F7788838091FB
:10535000650A82B988818068888388818F7788838D
:105360008091660A82B988818068888388818F7776
:1053700088838091670A82B9888180688883888160
:105380008F7788838091680A82B988818068888352
:1053900088818F7788838091690A82B98881806843
:1053A000888388818F77888380916A0A82B988810F
:1053B0008068888388818F77888380916B0A82B91F
:1053C00088818068888388818F77888380916C0A40
:1053D00082B988818068888388818F77888380916B
:1053E0006D0A82B988818068888388818F778883F5
:1053F00080916E0A82B988818068888388818F77DE
:10540000888380916F0A82B98881806888838881C7
:105410008F7788838091700A82B9888180688883B9
:1054200088818F7788838091710A82B988818068AA
:10543000888388818F7788838091720A82B9888176
:105440008068888388818F7788838091730A82B986
:1054500088818068888388818F7788838091740AA7
:1054600082B988818068888388818F7788838091DA
:10547000750A82B988818068888388818F7788835C
:105480008091760A82B988818068888388818F7745
:1054900088838091770A82B988818068888388812F
:1054A0008F7788838091780A82B988818068888321
:1054B00088818F7788838091790A82B98881806812
:1054C000888388818F77888380917A0A82B98881DE
:1054D0008068888388818F77888380917B0A82B9EE
:1054E00088818068888388818F77888380917C0A0F
:1054F00082B988818068888388818F77888380914A
:105500007D0A82B988818068888388818F778883C3
:1055100080917E0A82B988818068888388818F77AC
:10552000888380917F0A82B9888180688883888196
:105530008F7788838091800A82B988818068888388
:1055400088818F7788838091810A82B98881806879
:10555000888388818F7788838091820A82B9888145
:105560008068888365E080E00E94B81088818F7B26
:10557000888388818F7788838091830A82B9888124
:105580008068888388818F7788838091840A82B934
:1055900088818068888388818F7788838091850A55
:1055A00082B988818068888388818F778883809199
:1055B000860A82B988818068888388818F7788830A
:1055C0008091870A82B988818068888388818F77F3
:1055D00088838091880A82B98881806888838881DD
:1055E0008F7788838091890A82B9888180688883CF
:1055F00088818F77888380918A0A82B988818068C0
:10560000888388818F77888380918B0A82B988818B
:105610008068888388818F77888380918C0A82B99B
:1056200088818068888388818F77888380918D0ABC
:1056300082B988818068888388818F778883809108
:105640008E0A82B988818068888388818F77888371
:1056500080918F0A82B988818068888388818F775A
:1056600088838091900A82B9888180688883888144
:105670008F7788838091910A82B988818068888336
:1056800088818F7788838091920A82B98881806827
:10569000888388818F7788838091930A82B98881F3
:1056A0008068888388818F7788838091940A82B903
:1056B00088818068888388818F7788838091950A24
:1056C00082B988818068888388818F778883809178
:1056D000960A82B988818068888388818F778883D9
:1056E0008091970A82B988818068888388818F77C2
:1056F00088838091980A82B98881806888838881AC
:105700008F7788838091990A82B98881806888839D
:1057100088818F77888380919A0A82B9888180688E
:10572000888388818F77888380919B0A82B988815A
:105730008068888388818F77888380919C0A82B96A
:1057400088818068888388818F77888380919D0A8B
:1057500082B988818068888388818F7788838091E7
:105760009E0A82B988818068888388818F77888340
:1057700080919F0A82B9888180688883E8E0F1E09F
:1057800088818F7788838091A00A82B98081806820
:10579000808380818F7780838091A10A82B9808104
:1057A0008068808380818F7780838091A20A82B90C
:1057B00080818068808380818F7780838091A30A35
:1057C00082B980818068808380818F778083809197
:1057D000A40A82B980818068808380818F778083EA
:1057E0008091A50A82B980818068808380818F77CB
:1057F00080838091A60A82B98081806880838081BD
:105800008F7780838091A70A82B9808180688083A6
:1058100080818F7780838091A80A82B98081806897
:10582000808380818F7780838091A90A82B980816B
:105830008068808380818F7780838091AA0A82B973
:1058400080818068808380818F7780838091AB0A9C
:1058500082B980818068808380818F778083809106
:10586000AC0A82B980818068808380818F77808351
:105870008091AD0A82B980818068808380818F7732
:1058800080838091AE0A82B9808180688083808124
:105890008F7780838091AF0A82B98081806880830E
:1058A00080818F7780838091B00A82B980818068FF
:1058B000808380818F7780838091B10A82B98081D3
:1058C0008068808380818F7780838091B20A82B9DB
:1058D00080818068808380818F7780838091B30A04
:1058E00082B980818068808380818F778083809176
:1058F000B40A82B980818068808380818F778083B9
:105900008091B50A82B980818068808380818F7799
:1059100080838091B60A82B980818068808380818B
:105920008F7780838091B70A82B980818068808375
:1059300080818F7780838091B80A82B98081806866
:10594000808380818F7780838091B90A82B980813A
:105950008068808380818F7780838091BA0A82B942
:1059600080818068808380818F7780838091BB0A6B
:1059700082B980818068808380818F7780838091E5
:10598000BC0A82B980818068808380818F77808320
:105990008091BD0A82B980818068808380818F7701
:1059A00080838091BE0A82B98081806880838081F3
:1059B0008F7780838091BF0A82B9808180688083DD
:1059C00080818F7780838091C00A82B980818068CE
:1059D000808380818F7780838091C10A82B98081A2
:1059E0008068808380818F7780838091C20A82B9AA
:1059F00080818068808380818F7780838091C30AD3
:105A000082B980818068808380818F778083809154
:105A1000C40A82B980818068808380818F77808387
:105A20008091C50A82B980818068808380818F7768
:105A300080838091C60A82B980818068808380815A
:105A40008F7780838091C70A82B980818068808344
:105A500080818F7780838091C80A82B98081806835
:105A6000808380818F7780838091C90A82B9808109
:105A70008068808380818F7780838091CA0A82B911
:105A800080818068808380818F7780838091CB0A3A
:105A900082B980818068808380818F7780838091C4
:105AA000CC0A82B980818068808380818F778083EF
:105AB0008091CD0A82B980818068808380818F77D0
:105AC00080838091CE0A82B98081806880838081C2
:105AD0008F7780838091CF0A82B9808180688083AC
